{"abi":[{"type":"function","name":"approve","inputs":[{"name":"to","type":"address","internalType":"address"},{"name":"tokenId","type":"uint256","internalType":"uint256"}],"outputs":[],"stateMutability":"nonpayable"},{"type":"function","name":"balanceOf","inputs":[{"name":"owner","type":"address","internalType":"address"}],"outputs":[{"name":"","type":"uint256","internalType":"uint256"}],"stateMutability":"view"},{"type":"function","name":"challengeHashes","inputs":[{"name":"","type":"bytes32","internalType":"bytes32"}],"outputs":[{"name":"","type":"address","internalType":"address"}],"stateMutability":"view"},{"type":"function","name":"completeChallenge","inputs":[{"name":"tokenId","type":"uint256","internalType":"uint256"}],"outputs":[],"stateMutability":"nonpayable"},{"type":"function","name":"createChallenge","inputs":[{"name":"reward","type":"uint256","internalType":"uint256"},{"name":"challengeHash","type":"bytes32","internalType":"bytes32"},{"name":"challengeSignature","type":"bytes","internalType":"bytes"},{"name":"dueDate","type":"uint256","internalType":"uint256"},{"name":"minimumProofCount","type":"uint64","internalType":"uint64"},{"name":"receipent","type":"address","internalType":"address"}],"outputs":[{"name":"","type":"uint256","internalType":"uint256"}],"stateMutability":"nonpayable"},{"type":"function","name":"depositReward","inputs":[{"name":"challenger","type":"address","internalType":"address"},{"name":"amount","type":"uint256","internalType":"uint256"}],"outputs":[],"stateMutability":"nonpayable"},{"type":"function","name":"getApproved","inputs":[{"name":"tokenId","type":"uint256","internalType":"uint256"}],"outputs":[{"name":"","type":"address","internalType":"address"}],"stateMutability":"view"},{"type":"function","name":"getChallenge","inputs":[{"name":"tokenId","type":"uint256","internalType":"uint256"}],"outputs":[{"name":"","type":"uint256","internalType":"uint256"},{"name":"","type":"bytes32","internalType":"bytes32"},{"name":"","type":"uint256","internalType":"uint256"},{"name":"","type":"uint64","internalType":"uint64"},{"name":"","type":"address","internalType":"address"},{"name":"","type":"bytes32[]","internalType":"bytes32[]"},{"name":"","type":"bool","internalType":"bool"}],"stateMutability":"view"},{"type":"function","name":"getChallengeStatus","inputs":[{"name":"tokenId","type":"uint256","internalType":"uint256"}],"outputs":[{"name":"","type":"uint8","internalType":"enum OGUOGU.ChallengeStatus"}],"stateMutability":"view"},{"type":"function","name":"initialize","inputs":[{"name":"_rewardToken","type":"address","internalType":"address"},{"name":"_operator","type":"address","internalType":"address"}],"outputs":[],"stateMutability":"nonpayable"},{"type":"function","name":"isApprovedForAll","inputs":[{"name":"owner","type":"address","internalType":"address"},{"name":"operator","type":"address","internalType":"address"}],"outputs":[{"name":"","type":"bool","internalType":"bool"}],"stateMutability":"view"},{"type":"function","name":"name","inputs":[],"outputs":[{"name":"","type":"string","internalType":"string"}],"stateMutability":"view"},{"type":"function","name":"owner","inputs":[],"outputs":[{"name":"","type":"address","internalType":"address"}],"stateMutability":"view"},{"type":"function","name":"ownerOf","inputs":[{"name":"tokenId","type":"uint256","internalType":"uint256"}],"outputs":[{"name":"","type":"address","internalType":"address"}],"stateMutability":"view"},{"type":"function","name":"renounceOwnership","inputs":[],"outputs":[],"stateMutability":"nonpayable"},{"type":"function","name":"rewardToken","inputs":[],"outputs":[{"name":"","type":"address","internalType":"contract IERC20"}],"stateMutability":"view"},{"type":"function","name":"safeTransferFrom","inputs":[{"name":"from","type":"address","internalType":"address"},{"name":"to","type":"address","internalType":"address"},{"name":"tokenId","type":"uint256","internalType":"uint256"}],"outputs":[],"stateMutability":"nonpayable"},{"type":"function","name":"safeTransferFrom","inputs":[{"name":"from","type":"address","internalType":"address"},{"name":"to","type":"address","internalType":"address"},{"name":"tokenId","type":"uint256","internalType":"uint256"},{"name":"data","type":"bytes","internalType":"bytes"}],"outputs":[],"stateMutability":"nonpayable"},{"type":"function","name":"setApprovalForAll","inputs":[{"name":"operator","type":"address","internalType":"address"},{"name":"approved","type":"bool","internalType":"bool"}],"outputs":[],"stateMutability":"nonpayable"},{"type":"function","name":"submitProof","inputs":[{"name":"tokenId","type":"uint256","internalType":"uint256"},{"name":"proofHash","type":"bytes32","internalType":"bytes32"},{"name":"proofSignature","type":"bytes","internalType":"bytes"}],"outputs":[],"stateMutability":"nonpayable"},{"type":"function","name":"supportsInterface","inputs":[{"name":"interfaceId","type":"bytes4","internalType":"bytes4"}],"outputs":[{"name":"","type":"bool","internalType":"bool"}],"stateMutability":"view"},{"type":"function","name":"symbol","inputs":[],"outputs":[{"name":"","type":"string","internalType":"string"}],"stateMutability":"view"},{"type":"function","name":"tokenURI","inputs":[{"name":"tokenId","type":"uint256","internalType":"uint256"}],"outputs":[{"name":"","type":"string","internalType":"string"}],"stateMutability":"view"},{"type":"function","name":"transferFrom","inputs":[{"name":"from","type":"address","internalType":"address"},{"name":"to","type":"address","internalType":"address"},{"name":"tokenId","type":"uint256","internalType":"uint256"}],"outputs":[],"stateMutability":"nonpayable"},{"type":"function","name":"transferOwnership","inputs":[{"name":"newOwner","type":"address","internalType":"address"}],"outputs":[],"stateMutability":"nonpayable"},{"type":"function","name":"userAllocatedRewards","inputs":[{"name":"","type":"address","internalType":"address"}],"outputs":[{"name":"","type":"uint256","internalType":"uint256"}],"stateMutability":"view"},{"type":"function","name":"userReserves","inputs":[{"name":"","type":"address","internalType":"address"}],"outputs":[{"name":"","type":"uint256","internalType":"uint256"}],"stateMutability":"view"},{"type":"event","name":"Approval","inputs":[{"name":"owner","type":"address","indexed":true,"internalType":"address"},{"name":"approved","type":"address","indexed":true,"internalType":"address"},{"name":"tokenId","type":"uint256","indexed":true,"internalType":"uint256"}],"anonymous":false},{"type":"event","name":"ApprovalForAll","inputs":[{"name":"owner","type":"address","indexed":true,"internalType":"address"},{"name":"operator","type":"address","indexed":true,"internalType":"address"},{"name":"approved","type":"bool","indexed":false,"internalType":"bool"}],"anonymous":false},{"type":"event","name":"BatchMetadataUpdate","inputs":[{"name":"_fromTokenId","type":"uint256","indexed":false,"internalType":"uint256"},{"name":"_toTokenId","type":"uint256","indexed":false,"internalType":"uint256"}],"anonymous":false},{"type":"event","name":"ChallengeCompleted","inputs":[{"name":"tokenId","type":"uint256","indexed":true,"internalType":"uint256"},{"name":"challenger","type":"address","indexed":true,"internalType":"address"},{"name":"status","type":"uint8","indexed":false,"internalType":"enum OGUOGU.ChallengeStatus"},{"name":"paymentReward","type":"uint256","indexed":false,"internalType":"uint256"}],"anonymous":false},{"type":"event","name":"ChallengeCreated","inputs":[{"name":"tokenId","type":"uint256","indexed":true,"internalType":"uint256"},{"name":"challenger","type":"address","indexed":true,"internalType":"address"},{"name":"challengeHash","type":"bytes32","indexed":false,"internalType":"bytes32"}],"anonymous":false},{"type":"event","name":"DepositReward","inputs":[{"name":"challenger","type":"address","indexed":true,"internalType":"address"},{"name":"amount","type":"uint256","indexed":false,"internalType":"uint256"}],"anonymous":false},{"type":"event","name":"Initialized","inputs":[{"name":"version","type":"uint64","indexed":false,"internalType":"uint64"}],"anonymous":false},{"type":"event","name":"MetadataUpdate","inputs":[{"name":"_tokenId","type":"uint256","indexed":false,"internalType":"uint256"}],"anonymous":false},{"type":"event","name":"OwnershipTransferred","inputs":[{"name":"previousOwner","type":"address","indexed":true,"internalType":"address"},{"name":"newOwner","type":"address","indexed":true,"internalType":"address"}],"anonymous":false},{"type":"event","name":"SubmitProof","inputs":[{"name":"tokenId","type":"uint256","indexed":true,"internalType":"uint256"},{"name":"challenger","type":"address","indexed":true,"internalType":"address"},{"name":"proofHash","type":"bytes32","indexed":false,"internalType":"bytes32"}],"anonymous":false},{"type":"event","name":"Transfer","inputs":[{"name":"from","type":"address","indexed":true,"internalType":"address"},{"name":"to","type":"address","indexed":true,"internalType":"address"},{"name":"tokenId","type":"uint256","indexed":true,"internalType":"uint256"}],"anonymous":false},{"type":"error","name":"ECDSAInvalidSignature","inputs":[]},{"type":"error","name":"ECDSAInvalidSignatureLength","inputs":[{"name":"length","type":"uint256","internalType":"uint256"}]},{"type":"error","name":"ECDSAInvalidSignatureS","inputs":[{"name":"s","type":"bytes32","internalType":"bytes32"}]},{"type":"error","name":"ERC721IncorrectOwner","inputs":[{"name":"sender","type":"address","internalType":"address"},{"name":"tokenId","type":"uint256","internalType":"uint256"},{"name":"owner","type":"address","internalType":"address"}]},{"type":"error","name":"ERC721InsufficientApproval","inputs":[{"name":"operator","type":"address","internalType":"address"},{"name":"tokenId","type":"uint256","internalType":"uint256"}]},{"type":"error","name":"ERC721InvalidApprover","inputs":[{"name":"approver","type":"address","internalType":"address"}]},{"type":"error","name":"ERC721InvalidOperator","inputs":[{"name":"operator","type":"address","internalType":"address"}]},{"type":"error","name":"ERC721InvalidOwner","inputs":[{"name":"owner","type":"address","internalType":"address"}]},{"type":"error","name":"ERC721InvalidReceiver","inputs":[{"name":"receiver","type":"address","internalType":"address"}]},{"type":"error","name":"ERC721InvalidSender","inputs":[{"name":"sender","type":"address","internalType":"address"}]},{"type":"error","name":"ERC721NonexistentToken","inputs":[{"name":"tokenId","type":"uint256","internalType":"uint256"}]},{"type":"error","name":"InvalidInitialization","inputs":[]},{"type":"error","name":"NotInitializing","inputs":[]},{"type":"error","name":"OwnableInvalidOwner","inputs":[{"name":"owner","type":"address","internalType":"address"}]},{"type":"error","name":"OwnableUnauthorizedAccount","inputs":[{"name":"account","type":"address","internalType":"address"}]}],"bytecode":{"object":"0x6080604052348015600e575f5ffd5b50612a218061001c5f395ff3fe608060405234801561000f575f5ffd5b50600436106101a1575f3560e01c8063715018a6116100f3578063a7817bbc11610093578063cb345eca1161006e578063cb345eca146103c5578063e985e9c5146103d8578063f2fde38b146103eb578063f7c618c1146103fe575f5ffd5b8063a7817bbc1461038c578063b88d4fde1461039f578063c87b56dd146103b2575f5ffd5b80638da5cb5b116100ce5780638da5cb5b1461034a57806391469fbe1461035257806395d89b4114610371578063a22cb46514610379575f5ffd5b8063715018a61461030f5780637db4e28f14610317578063832c8bc61461032a575f5ffd5b806323b872dd1161015e57806342842e0e1161013957806342842e0e146102c3578063485cc955146102d65780636352211e146102e957806370a08231146102fc575f5ffd5b806323b872dd1461027557806329071254146102885780633dd68feb146102b0575f5ffd5b806301ffc9a7146101a557806306fdde03146101cd578063081812fc146101e2578063095ea7b31461020d5780630d08e181146102225780631bdd4b741461024f575b5f5ffd5b6101b86101b33660046122f7565b610410565b60405190151581526020015b60405180910390f35b6101d5610461565b6040516101c49190612340565b6101f56101f0366004612352565b610502565b6040516001600160a01b0390911681526020016101c4565b61022061021b36600461237f565b610516565b005b6102416102303660046123a7565b60016020525f908152604090205481565b6040519081526020016101c4565b61026261025d366004612352565b610525565b6040516101c497969594939291906123c0565b61022061028336600461244b565b61062b565b6101f5610296366004612352565b60056020525f90815260409020546001600160a01b031681565b6102206102be366004612522565b6106b9565b6102206102d136600461244b565b61091d565b6102206102e436600461256d565b61093c565b6101f56102f7366004612352565b610b52565b61024161030a3660046123a7565b610b5c565b610220610bb4565b61022061032536600461237f565b610bc7565b61033d610338366004612352565b610d80565b6040516101c491906125d2565b6101f5610e82565b6102416103603660046123a7565b60026020525f908152604090205481565b6101d5610eb0565b6102206103873660046125ed565b610eee565b61022061039a366004612352565b610ef9565b6102206103ad366004612622565b611219565b6101d56103c0366004612352565b611231565b6102416103d3366004612685565b611296565b6101b86103e636600461256d565b61165d565b6102206103f93660046123a7565b6116a9565b5f546101f5906001600160a01b031681565b5f6001600160e01b031982166380ac58cd60e01b148061044057506001600160e01b03198216635b5e139f60e01b145b8061045b57506301ffc9a760e01b6001600160e01b03198316145b92915050565b5f5160206129a55f395f51905f52805460609190819061048090612706565b80601f01602080910402602001604051908101604052809291908181526020018280546104ac90612706565b80156104f75780601f106104ce576101008083540402835291602001916104f7565b820191905f5260205f20905b8154815290600101906020018083116104da57829003601f168201915b505050505091505090565b5f61050c826116e6565b5061045b8261171d565b610521828233611756565b5050565b5f818152600460208181526040808420815160e0810183528154815260018201548185015260028201548184015260038201546001600160401b038116606080840191909152600160401b9091046001600160a01b031660808301529482018054845181870281018701909552808552879687968796879692958795869591949360a086019392908301828280156105da57602002820191905f5260205f20905b8154815260200190600101908083116105c6575b50505091835250506005919091015460ff16151560209182015281519082015160408301516060840151608085015160a086015160c090960151949f939e50919c509a509850919650945092505050565b6001600160a01b03821661065957604051633250574960e11b81525f60048201526024015b60405180910390fd5b5f610665838333611763565b9050836001600160a01b0316816001600160a01b0316146106b3576040516364283d7b60e01b81526001600160a01b0380861660048301526024820184905282166044820152606401610650565b50505050565b6106c1611865565b5f83815260046020526040902060030154600160401b90046001600160a01b03166107225760405162461bcd60e51b8152602060048201526011602482015270496e76616c6964206368616c6c656e676560781b6044820152606401610650565b5f61072c84610d80565b600281111561073d5761073d61259e565b146107835760405162461bcd60e51b815260206004820152601660248201527518da185b1b195b99d9481a5cc818dbdb5c1b195d195960521b6044820152606401610650565b61079661078f84610b52565b8383611897565b6107d65760405162461bcd60e51b8152602060048201526011602482015270496e76616c6964207369676e617475726560781b6044820152606401610650565b5f5b5f8481526004602081905260409091200154811015610875578260045f8681526020019081526020015f2060040182815481106108175761081761273e565b905f5260205f2001540361086d5760405162461bcd60e51b815260206004820152601760248201527f50726f6f6620616c7265616479207375626d69747465640000000000000000006044820152606401610650565b6001016107d8565b505f838152600460208181526040832090910180546001810182559083529120018290556108a283610b52565b6001600160a01b0316837fd6f6b0806ed53db894b8ea4b602bfa254458be35ee9644245455d07db21e208a846040516108dd91815260200190565b60405180910390a36040518381527ff8e1a15aba9398e019f0b49df1a4fde98ee17ae345cb5f6b5e2c27f5033e8ce79060200160405180910390a1505050565b61093783838360405180602001604052805f815250611219565b505050565b7ff0c57e16840df040f15088dc2f81fe391c3923bec73e23a9662efc9c229c6a008054600160401b810460ff1615906001600160401b03165f811580156109805750825b90505f826001600160401b0316600114801561099b5750303b155b9050811580156109a9575080155b156109c75760405163f92ee8a960e01b815260040160405180910390fd5b845467ffffffffffffffff1916600117855583156109f157845460ff60401b1916600160401b1785555b6001600160a01b038716610a3f5760405162461bcd60e51b8152602060048201526015602482015274496e76616c696420746f6b656e206164647265737360581b6044820152606401610650565b6001600160a01b038616610a955760405162461bcd60e51b815260206004820152601860248201527f496e76616c6964206f70657261746f72206164647265737300000000000000006044820152606401610650565b5f80546001600160a01b0319166001600160a01b0389161790556001600355610abd866118ec565b610b03604051806040016040528060068152602001654f47554f475560d01b815250604051806040016040528060068152602001654f47554f475560d01b8152506118fd565b8315610b4957845460ff60401b19168555604051600181527fc7f505b2f371ae2175ee4913f4499e1f2633a7b5936321eed1cdaeb6115181d29060200160405180910390a15b50505050505050565b5f61045b826116e6565b5f5f5160206129a55f395f51905f526001600160a01b038316610b94576040516322718ad960e21b81525f6004820152602401610650565b6001600160a01b039092165f908152600390920160205250604090205490565b610bbc611865565b610bc55f61190f565b565b6001600160a01b038216610c1d5760405162461bcd60e51b815260206004820152601a60248201527f496e76616c6964206368616c6c656e67657220616464726573730000000000006044820152606401610650565b5f8111610c5d5760405162461bcd60e51b815260206004820152600e60248201526d125b9d985b1a5908185b5bdd5b9d60921b6044820152606401610650565b5f546040516323b872dd60e01b8152336004820152306024820152604481018390526001600160a01b03909116906323b872dd906064016020604051808303815f875af1158015610cb0573d5f5f3e3d5ffd5b505050506040513d601f19601f82011682018060405250810190610cd49190612752565b610d125760405162461bcd60e51b815260206004820152600f60248201526e151c985b9cd9995c8819985a5b1959608a1b6044820152606401610650565b6001600160a01b0382165f9081526001602052604081208054839290610d39908490612781565b90915550506040518181526001600160a01b038316907f4f7fd5c9e17300a4800fd572ea53fc291e2ee7470d73346d16b357faee4e72109060200160405180910390a25050565b5f818152600460208181526040808420815160e0810183528154815260018201548185015260028201548184015260038201546001600160401b0381166060830152600160401b90046001600160a01b031660808201529381018054835181860281018601909452808452869594929360a086019390929190830182828015610e2657602002820191905f5260205f20905b815481526020019060010190808311610e12575b50505091835250506005919091015460ff161515602090910152606081015160a0820151519192506001600160401b031611610e655750600192915050565b4281604001511015610e7a5750600292915050565b505f92915050565b7f9016d09d72d40fdae2fd8ceac6b6234c7706214fd39c1cd1e609a0528c199300546001600160a01b031690565b7f80bb2b638cc20bc4d0a60d66940f3ab4a00c1d7b313497ca82fb0b4ab007930180546060915f5160206129a55f395f51905f529161048090612706565b61052133838361197f565b5f610f0382610d80565b5f838152600460208181526040808420815160e0810183528154815260018201548185015260028201548184015260038201546001600160401b0381166060830152600160401b90046001600160a01b03166080820152938101805483518186028101860190945280845296975094959394909360a0860193830182828015610fa957602002820191905f5260205f20905b815481526020019060010190808311610f95575b50505091835250506005919091015460ff16151560209091015290505f826002811115610fd857610fd861259e565b036110255760405162461bcd60e51b815260206004820152601760248201527f4368616c6c656e6765206973206e6f7420636c6f7365640000000000000000006044820152606401610650565b8060c00151156110775760405162461bcd60e51b815260206004820152601b60248201527f4368616c6c656e676520697320616c726561647920636c6f73656400000000006044820152606401610650565b5f61108184610b52565b5f858152600460209081526040808320600501805460ff1916600117905585516001600160a01b038516845260029092528220805493945090929091906110c9908490612794565b909155505f905060018460028111156110e4576110e461259e565b0361119b5782516110f490611a2e565b5f54608085015160405163a9059cbb60e01b81526001600160a01b03918216600482015260248101849052929350169063a9059cbb906044016020604051808303815f875af1158015611149573d5f5f3e3d5ffd5b505050506040513d601f19601f8201168201806040525081019061116d9190612752565b506001600160a01b0382165f9081526001602052604081208054839290611195908490612794565b90915550505b816001600160a01b0316857f4a6c71421a36589a138e810099781dc08801db5ef0a3e6d9c3d4ccc16de42feb86846040516111d79291906127a7565b60405180910390a36040518581527ff8e1a15aba9398e019f0b49df1a4fde98ee17ae345cb5f6b5e2c27f5033e8ce79060200160405180910390a15050505050565b61122484848461062b565b6106b33385858585611a4d565b606061123c826116e6565b505f611246611b75565b90505f8151116112645760405180602001604052805f81525061128f565b8061126e84611b95565b60405160200161127f9291906127d9565b6040516020818303038152906040525b9392505050565b5f6001600160a01b0382166112ed5760405162461bcd60e51b815260206004820152601960248201527f496e76616c696420726563656970656e742061646472657373000000000000006044820152606401610650565b5f871161132d5760405162461bcd60e51b815260206004820152600e60248201526d125b9d985b1a59081c995dd85c9960921b6044820152606401610650565b42841161136f5760405162461bcd60e51b815260206004820152601060248201526f496e76616c696420647565206461746560801b6044820152606401610650565b5f836001600160401b0316116113c75760405162461bcd60e51b815260206004820152601b60248201527f496e76616c6964206d696e696d756d2070726f6f6620636f756e7400000000006044820152606401610650565b5f868152600560205260409020546001600160a01b03161561142b5760405162461bcd60e51b815260206004820152601860248201527f4368616c6c656e676520616c72656164792065786973747300000000000000006044820152606401610650565b5f86815260056020526040902080546001600160a01b0319163317905561145a611453610e82565b8787611897565b61149a5760405162461bcd60e51b8152602060048201526011602482015270496e76616c6964207369676e617475726560781b6044820152606401610650565b335f90815260026020526040812080548992906114b8908490612781565b9091555050335f90815260016020908152604080832054600290925290912054111561151d5760405162461bcd60e51b8152602060048201526014602482015273496e73756666696369656e742062616c616e636560601b6044820152606401610650565b6040805160e08101825288815260208082018981528284018881526001600160401b03888116606086019081526001600160a01b038981166080880190815288515f8082528189018b5260a08a0191825260c08a018190526003805482526004808b529b9091208a5181559751600189015595516002880155925194860180549151959094166001600160e01b031990911617600160401b9490911693909302929092179055518051939491936115dc93928501929190910190612285565b5060c091909101516005909101805460ff1916911515919091179055600354611606903390611c24565b6003546040518781523391907feac6e327176e3b77d65d71ae889f4dc718d3cc814cfdfcb18da967415fc542239060200160405180910390a360038054905f61164e836127ed565b90915550979650505050505050565b6001600160a01b039182165f9081527f80bb2b638cc20bc4d0a60d66940f3ab4a00c1d7b313497ca82fb0b4ab00793056020908152604080832093909416825291909152205460ff1690565b6116b1611865565b6001600160a01b0381166116da57604051631e4fbdf760e01b81525f6004820152602401610650565b6116e38161190f565b50565b5f5f6116f183611c3d565b90506001600160a01b03811661045b57604051637e27328960e01b815260048101849052602401610650565b5f9081527f80bb2b638cc20bc4d0a60d66940f3ab4a00c1d7b313497ca82fb0b4ab007930460205260409020546001600160a01b031690565b6109378383836001611c76565b5f5f5160206129a55f395f51905f528161177c85611c3d565b90506001600160a01b0384161561179857611798818587611d89565b6001600160a01b038116156117d4576117b35f865f5f611c76565b6001600160a01b0381165f908152600383016020526040902080545f190190555b6001600160a01b03861615611804576001600160a01b0386165f9081526003830160205260409020805460010190555b5f85815260028301602052604080822080546001600160a01b0319166001600160a01b038a811691821790925591518893918516917fddf252ad1be2c89b69c2b068fc378daa952ba7f163c4a11628f55a4df523b3ef91a495945050505050565b3361186e610e82565b6001600160a01b031614610bc55760405163118cdaa760e01b8152336004820152602401610650565b7f19457468657265756d205369676e6564204d6573736167653a0a3332000000005f908152601c839052603c81206001600160a01b0385166118d98285611ded565b6001600160a01b03161495945050505050565b6118f4611e15565b6116e381611e5e565b611905611e15565b6105218282611e66565b7f9016d09d72d40fdae2fd8ceac6b6234c7706214fd39c1cd1e609a0528c19930080546001600160a01b031981166001600160a01b03848116918217845560405192169182907f8be0079c531659141344cd1fd0a4f28419497f9722a3daafe3b4186f6b6457e0905f90a3505050565b5f5160206129a55f395f51905f526001600160a01b0383166119bf57604051630b61174360e31b81526001600160a01b0384166004820152602401610650565b6001600160a01b038481165f818152600584016020908152604080832094881680845294825291829020805460ff191687151590811790915591519182527f17307eab39ab6107e8899845ad3d59bd9653f200f220920489ca2b5937696c31910160405180910390a350505050565b5f6064611a39611e96565b611a439084612805565b61045b9190612830565b6001600160a01b0383163b15611b6e57604051630a85bd0160e11b81526001600160a01b0384169063150b7a0290611a8f90889088908790879060040161284f565b6020604051808303815f875af1925050508015611ac9575060408051601f3d908101601f19168201909252611ac69181019061288b565b60015b611b30573d808015611af6576040519150601f19603f3d011682016040523d82523d5f602084013e611afb565b606091505b5080515f03611b2857604051633250574960e11b81526001600160a01b0385166004820152602401610650565b805181602001fd5b6001600160e01b03198116630a85bd0160e11b14611b6c57604051633250574960e11b81526001600160a01b0385166004820152602401610650565b505b5050505050565b60606040518060600160405280602781526020016129c560279139905090565b60605f611ba183611f08565b60010190505f816001600160401b03811115611bbf57611bbf612485565b6040519080825280601f01601f191660200182016040528015611be9576020820181803683370190505b5090508181016020015b5f19016f181899199a1a9b1b9c1cb0b131b232b360811b600a86061a8153600a8504945084611bf357509392505050565b610521828260405180602001604052805f815250611fdf565b5f9081527f80bb2b638cc20bc4d0a60d66940f3ab4a00c1d7b313497ca82fb0b4ab007930260205260409020546001600160a01b031690565b5f5160206129a55f395f51905f528180611c9857506001600160a01b03831615155b15611d59575f611ca7856116e6565b90506001600160a01b03841615801590611cd35750836001600160a01b0316816001600160a01b031614155b8015611ce65750611ce4818561165d565b155b15611d0f5760405163a9fbf51f60e01b81526001600160a01b0385166004820152602401610650565b8215611d575784866001600160a01b0316826001600160a01b03167f8c5be1e5ebec7d5bd14f71427d1e84f3dd0314c0f7b2291e5b200ac8c7c3b92560405160405180910390a45b505b5f93845260040160205250506040902080546001600160a01b0319166001600160a01b0392909216919091179055565b611d94838383611ff6565b610937576001600160a01b038316611dc257604051637e27328960e01b815260048101829052602401610650565b60405163177e802f60e01b81526001600160a01b038316600482015260248101829052604401610650565b5f5f5f5f611dfb868661205b565b925092509250611e0b82826120a4565b5090949350505050565b7ff0c57e16840df040f15088dc2f81fe391c3923bec73e23a9662efc9c229c6a0054600160401b900460ff16610bc557604051631afcd79f60e31b815260040160405180910390fd5b6116b1611e15565b611e6e611e15565b5f5160206129a55f395f51905f5280611e8784826128ea565b50600181016106b383826128ea565b5f5f6064600143034041604051602001611ecc92919091825260601b6bffffffffffffffffffffffff1916602082015260340190565b604051602081830303815290604052805190602001205f1c81611ef157611ef161281c565b069050805f03611f0357600191505090565b919050565b5f8072184f03e93ff9f4daa797ed6e38ed64bf6a1f0160401b8310611f465772184f03e93ff9f4daa797ed6e38ed64bf6a1f0160401b830492506040015b6d04ee2d6d415b85acef81000000008310611f72576d04ee2d6d415b85acef8100000000830492506020015b662386f26fc100008310611f9057662386f26fc10000830492506010015b6305f5e1008310611fa8576305f5e100830492506008015b6127108310611fbc57612710830492506004015b60648310611fce576064830492506002015b600a831061045b5760010192915050565b611fe9838361215c565b610937335f858585611a4d565b5f6001600160a01b038316158015906120535750826001600160a01b0316846001600160a01b0316148061202f575061202f848461165d565b806120535750826001600160a01b03166120488361171d565b6001600160a01b0316145b949350505050565b5f5f5f8351604103612092576020840151604085015160608601515f1a612084888285856121bd565b95509550955050505061209d565b505081515f91506002905b9250925092565b5f8260038111156120b7576120b761259e565b036120c0575050565b60018260038111156120d4576120d461259e565b036120f25760405163f645eedf60e01b815260040160405180910390fd5b60028260038111156121065761210661259e565b036121275760405163fce698f760e01b815260048101829052602401610650565b600382600381111561213b5761213b61259e565b03610521576040516335e2f38360e21b815260048101829052602401610650565b6001600160a01b03821661218557604051633250574960e11b81525f6004820152602401610650565b5f61219183835f611763565b90506001600160a01b03811615610937576040516339e3563760e11b81525f6004820152602401610650565b5f80807f7fffffffffffffffffffffffffffffff5d576e7357a4501ddfe92f46681b20a08411156121f657505f9150600390508261227b565b604080515f808252602082018084528a905260ff891692820192909252606081018790526080810186905260019060a0016020604051602081039080840390855afa158015612247573d5f5f3e3d5ffd5b5050604051601f1901519150506001600160a01b03811661227257505f92506001915082905061227b565b92505f91508190505b9450945094915050565b828054828255905f5260205f209081019282156122be579160200282015b828111156122be5782518255916020019190600101906122a3565b506122ca9291506122ce565b5090565b5b808211156122ca575f81556001016122cf565b6001600160e01b0319811681146116e3575f5ffd5b5f60208284031215612307575f5ffd5b813561128f816122e2565b5f81518084528060208401602086015e5f602082860101526020601f19601f83011685010191505092915050565b602081525f61128f6020830184612312565b5f60208284031215612362575f5ffd5b5035919050565b80356001600160a01b0381168114611f03575f5ffd5b5f5f60408385031215612390575f5ffd5b61239983612369565b946020939093013593505050565b5f602082840312156123b7575f5ffd5b61128f82612369565b8781526020808201889052604082018790526001600160401b03861660608301526001600160a01b038516608083015260e060a0830181905284519083018190525f91850190610100840190835b8181101561242c57835183526020938401939092019160010161240e565b505084151560c0850152915061243f9050565b98975050505050505050565b5f5f5f6060848603121561245d575f5ffd5b61246684612369565b925061247460208501612369565b929592945050506040919091013590565b634e487b7160e01b5f52604160045260245ffd5b5f82601f8301126124a8575f5ffd5b81356001600160401b038111156124c1576124c1612485565b604051601f8201601f19908116603f011681016001600160401b03811182821017156124ef576124ef612485565b604052818152838201602001851015612506575f5ffd5b816020850160208301375f918101602001919091529392505050565b5f5f5f60608486031215612534575f5ffd5b833592506020840135915060408401356001600160401b03811115612557575f5ffd5b61256386828701612499565b9150509250925092565b5f5f6040838503121561257e575f5ffd5b61258783612369565b915061259560208401612369565b90509250929050565b634e487b7160e01b5f52602160045260245ffd5b600381106125ce57634e487b7160e01b5f52602160045260245ffd5b9052565b6020810161045b82846125b2565b80151581146116e3575f5ffd5b5f5f604083850312156125fe575f5ffd5b61260783612369565b91506020830135612617816125e0565b809150509250929050565b5f5f5f5f60808587031215612635575f5ffd5b61263e85612369565b935061264c60208601612369565b92506040850135915060608501356001600160401b0381111561266d575f5ffd5b61267987828801612499565b91505092959194509250565b5f5f5f5f5f5f60c0878903121561269a575f5ffd5b863595506020870135945060408701356001600160401b038111156126bd575f5ffd5b6126c989828a01612499565b9450506060870135925060808701356001600160401b03811681146126ec575f5ffd5b91506126fa60a08801612369565b90509295509295509295565b600181811c9082168061271a57607f821691505b60208210810361273857634e487b7160e01b5f52602260045260245ffd5b50919050565b634e487b7160e01b5f52603260045260245ffd5b5f60208284031215612762575f5ffd5b815161128f816125e0565b634e487b7160e01b5f52601160045260245ffd5b8082018082111561045b5761045b61276d565b8181038181111561045b5761045b61276d565b604081016127b582856125b2565b8260208301529392505050565b5f81518060208401855e5f93019283525090919050565b5f6120536127e783866127c2565b846127c2565b5f600182016127fe576127fe61276d565b5060010190565b808202811582820484141761045b5761045b61276d565b634e487b7160e01b5f52601260045260245ffd5b5f8261284a57634e487b7160e01b5f52601260045260245ffd5b500490565b6001600160a01b03858116825284166020820152604081018390526080606082018190525f9061288190830184612312565b9695505050505050565b5f6020828403121561289b575f5ffd5b815161128f816122e2565b601f82111561093757805f5260205f20601f840160051c810160208510156128cb5750805b601f840160051c820191505b81811015611b6e575f81556001016128d7565b81516001600160401b0381111561290357612903612485565b612917816129118454612706565b846128a6565b6020601f821160018114612949575f83156129325750848201515b5f19600385901b1c1916600184901b178455611b6e565b5f84815260208120601f198516915b828110156129785787850151825560209485019460019092019101612958565b508482101561299557868401515f19600387901b60f8161c191681555b50505050600190811b0190555056fe80bb2b638cc20bc4d0a60d66940f3ab4a00c1d7b313497ca82fb0b4ab007930068747470733a2f2f7265736f75726365732e6f67756f67752e6d652f6368616c6c656e6765732fa2646970667358221220b1b91fe8813de56393591844d366395faf649f8f4cf4abc8353a03fd2f4d090164736f6c634300081c0033","linkReferences":{}},"methodIdentifiers":{"approve(address,uint256)":"095ea7b3","balanceOf(address)":"70a08231","challengeHashes(bytes32)":"29071254","completeChallenge(uint256)":"a7817bbc","createChallenge(uint256,bytes32,bytes,uint256,uint64,address)":"cb345eca","depositReward(address,uint256)":"7db4e28f","getApproved(uint256)":"081812fc","getChallenge(uint256)":"1bdd4b74","getChallengeStatus(uint256)":"832c8bc6","initialize(address,address)":"485cc955","isApprovedForAll(address,address)":"e985e9c5","name()":"06fdde03","owner()":"8da5cb5b","ownerOf(uint256)":"6352211e","renounceOwnership()":"715018a6","rewardToken()":"f7c618c1","safeTransferFrom(address,address,uint256)":"42842e0e","safeTransferFrom(address,address,uint256,bytes)":"b88d4fde","setApprovalForAll(address,bool)":"a22cb465","submitProof(uint256,bytes32,bytes)":"3dd68feb","supportsInterface(bytes4)":"01ffc9a7","symbol()":"95d89b41","tokenURI(uint256)":"c87b56dd","transferFrom(address,address,uint256)":"23b872dd","transferOwnership(address)":"f2fde38b","userAllocatedRewards(address)":"91469fbe","userReserves(address)":"0d08e181"},"storageLayout":{"storage":[{"astId":48706,"contract":"src/Oguogu.sol:OGUOGU","label":"rewardToken","offset":0,"slot":"0","type":"t_contract(IERC20)43429"},{"astId":48710,"contract":"src/Oguogu.sol:OGUOGU","label":"userReserves","offset":0,"slot":"1","type":"t_mapping(t_address,t_uint256)"},{"astId":48714,"contract":"src/Oguogu.sol:OGUOGU","label":"userAllocatedRewards","offset":0,"slot":"2","type":"t_mapping(t_address,t_uint256)"},{"astId":48716,"contract":"src/Oguogu.sol:OGUOGU","label":"_challengeId","offset":0,"slot":"3","type":"t_uint256"},{"astId":48721,"contract":"src/Oguogu.sol:OGUOGU","label":"_challenges","offset":0,"slot":"4","type":"t_mapping(t_uint256,t_struct(Challenge)48741_storage)"},{"astId":48725,"contract":"src/Oguogu.sol:OGUOGU","label":"challengeHashes","offset":0,"slot":"5","type":"t_mapping(t_bytes32,t_address)"}],"types":{"t_address":{"encoding":"inplace","label":"address","numberOfBytes":"20"},"t_array(t_bytes32)dyn_storage":{"encoding":"dynamic_array","label":"bytes32[]","numberOfBytes":"32","base":"t_bytes32"},"t_bool":{"encoding":"inplace","label":"bool","numberOfBytes":"1"},"t_bytes32":{"encoding":"inplace","label":"bytes32","numberOfBytes":"32"},"t_contract(IERC20)43429":{"encoding":"inplace","label":"contract IERC20","numberOfBytes":"20"},"t_mapping(t_address,t_uint256)":{"encoding":"mapping","key":"t_address","label":"mapping(address => uint256)","numberOfBytes":"32","value":"t_uint256"},"t_mapping(t_bytes32,t_address)":{"encoding":"mapping","key":"t_bytes32","label":"mapping(bytes32 => address)","numberOfBytes":"32","value":"t_address"},"t_mapping(t_uint256,t_struct(Challenge)48741_storage)":{"encoding":"mapping","key":"t_uint256","label":"mapping(uint256 => struct OGUOGU.Challenge)","numberOfBytes":"32","value":"t_struct(Challenge)48741_storage"},"t_struct(Challenge)48741_storage":{"encoding":"inplace","label":"struct OGUOGU.Challenge","numberOfBytes":"192","members":[{"astId":48727,"contract":"src/Oguogu.sol:OGUOGU","label":"reward","offset":0,"slot":"0","type":"t_uint256"},{"astId":48729,"contract":"src/Oguogu.sol:OGUOGU","label":"challengeHash","offset":0,"slot":"1","type":"t_bytes32"},{"astId":48731,"contract":"src/Oguogu.sol:OGUOGU","label":"dueDate","offset":0,"slot":"2","type":"t_uint256"},{"astId":48733,"contract":"src/Oguogu.sol:OGUOGU","label":"minimumProofCount","offset":0,"slot":"3","type":"t_uint64"},{"astId":48735,"contract":"src/Oguogu.sol:OGUOGU","label":"receipent","offset":8,"slot":"3","type":"t_address"},{"astId":48738,"contract":"src/Oguogu.sol:OGUOGU","label":"proofHashes","offset":0,"slot":"4","type":"t_array(t_bytes32)dyn_storage"},{"astId":48740,"contract":"src/Oguogu.sol:OGUOGU","label":"isClosed","offset":0,"slot":"5","type":"t_bool"}]},"t_uint256":{"encoding":"inplace","label":"uint256","numberOfBytes":"32"},"t_uint64":{"encoding":"inplace","label":"uint64","numberOfBytes":"8"}}},"id":62}