{"abi":[{"type":"function","name":"approve","inputs":[{"name":"to","type":"address","internalType":"address"},{"name":"tokenId","type":"uint256","internalType":"uint256"}],"outputs":[],"stateMutability":"nonpayable"},{"type":"function","name":"balanceOf","inputs":[{"name":"owner","type":"address","internalType":"address"}],"outputs":[{"name":"","type":"uint256","internalType":"uint256"}],"stateMutability":"view"},{"type":"function","name":"challengeHashes","inputs":[{"name":"","type":"bytes32","internalType":"bytes32"}],"outputs":[{"name":"","type":"address","internalType":"address"}],"stateMutability":"view"},{"type":"function","name":"completeChallenge","inputs":[{"name":"receipent","type":"address","internalType":"address"},{"name":"tokenId","type":"uint256","internalType":"uint256"}],"outputs":[],"stateMutability":"nonpayable"},{"type":"function","name":"createChallenge","inputs":[{"name":"reward","type":"uint256","internalType":"uint256"},{"name":"challengeHash","type":"bytes32","internalType":"bytes32"},{"name":"challengeSignature","type":"bytes","internalType":"bytes"},{"name":"startDate","type":"uint256","internalType":"uint256"},{"name":"endDate","type":"uint256","internalType":"uint256"},{"name":"minimumProofCount","type":"uint64","internalType":"uint64"}],"outputs":[{"name":"","type":"uint256","internalType":"uint256"}],"stateMutability":"nonpayable"},{"type":"function","name":"depositReward","inputs":[{"name":"challenger","type":"address","internalType":"address"},{"name":"amount","type":"uint256","internalType":"uint256"}],"outputs":[],"stateMutability":"nonpayable"},{"type":"function","name":"getApproved","inputs":[{"name":"tokenId","type":"uint256","internalType":"uint256"}],"outputs":[{"name":"","type":"address","internalType":"address"}],"stateMutability":"view"},{"type":"function","name":"getChallenge","inputs":[{"name":"tokenId","type":"uint256","internalType":"uint256"}],"outputs":[{"name":"","type":"bytes32","internalType":"bytes32"},{"name":"","type":"bytes32[]","internalType":"bytes32[]"},{"name":"","type":"uint256","internalType":"uint256"},{"name":"","type":"uint256","internalType":"uint256"},{"name":"","type":"uint256","internalType":"uint256"},{"name":"","type":"uint64","internalType":"uint64"},{"name":"","type":"bool","internalType":"bool"}],"stateMutability":"view"},{"type":"function","name":"getChallengeStatus","inputs":[{"name":"tokenId","type":"uint256","internalType":"uint256"}],"outputs":[{"name":"","type":"uint8","internalType":"enum OGUOGU.ChallengeStatus"}],"stateMutability":"view"},{"type":"function","name":"initialize","inputs":[{"name":"_rewardToken","type":"address","internalType":"address"},{"name":"_operator","type":"address","internalType":"address"}],"outputs":[],"stateMutability":"nonpayable"},{"type":"function","name":"isApprovedForAll","inputs":[{"name":"owner","type":"address","internalType":"address"},{"name":"operator","type":"address","internalType":"address"}],"outputs":[{"name":"","type":"bool","internalType":"bool"}],"stateMutability":"view"},{"type":"function","name":"name","inputs":[],"outputs":[{"name":"","type":"string","internalType":"string"}],"stateMutability":"view"},{"type":"function","name":"owner","inputs":[],"outputs":[{"name":"","type":"address","internalType":"address"}],"stateMutability":"view"},{"type":"function","name":"ownerOf","inputs":[{"name":"tokenId","type":"uint256","internalType":"uint256"}],"outputs":[{"name":"","type":"address","internalType":"address"}],"stateMutability":"view"},{"type":"function","name":"renounceOwnership","inputs":[],"outputs":[],"stateMutability":"nonpayable"},{"type":"function","name":"rewardToken","inputs":[],"outputs":[{"name":"","type":"address","internalType":"contract IERC20"}],"stateMutability":"view"},{"type":"function","name":"safeTransferFrom","inputs":[{"name":"from","type":"address","internalType":"address"},{"name":"to","type":"address","internalType":"address"},{"name":"tokenId","type":"uint256","internalType":"uint256"}],"outputs":[],"stateMutability":"nonpayable"},{"type":"function","name":"safeTransferFrom","inputs":[{"name":"from","type":"address","internalType":"address"},{"name":"to","type":"address","internalType":"address"},{"name":"tokenId","type":"uint256","internalType":"uint256"},{"name":"data","type":"bytes","internalType":"bytes"}],"outputs":[],"stateMutability":"nonpayable"},{"type":"function","name":"setApprovalForAll","inputs":[{"name":"operator","type":"address","internalType":"address"},{"name":"approved","type":"bool","internalType":"bool"}],"outputs":[],"stateMutability":"nonpayable"},{"type":"function","name":"submitProof","inputs":[{"name":"tokenId","type":"uint256","internalType":"uint256"},{"name":"proofHash","type":"bytes32","internalType":"bytes32"},{"name":"proofSignature","type":"bytes","internalType":"bytes"}],"outputs":[],"stateMutability":"nonpayable"},{"type":"function","name":"supportsInterface","inputs":[{"name":"interfaceId","type":"bytes4","internalType":"bytes4"}],"outputs":[{"name":"","type":"bool","internalType":"bool"}],"stateMutability":"view"},{"type":"function","name":"symbol","inputs":[],"outputs":[{"name":"","type":"string","internalType":"string"}],"stateMutability":"view"},{"type":"function","name":"tokenURI","inputs":[{"name":"tokenId","type":"uint256","internalType":"uint256"}],"outputs":[{"name":"","type":"string","internalType":"string"}],"stateMutability":"view"},{"type":"function","name":"transferFrom","inputs":[{"name":"from","type":"address","internalType":"address"},{"name":"to","type":"address","internalType":"address"},{"name":"tokenId","type":"uint256","internalType":"uint256"}],"outputs":[],"stateMutability":"nonpayable"},{"type":"function","name":"transferOwnership","inputs":[{"name":"newOwner","type":"address","internalType":"address"}],"outputs":[],"stateMutability":"nonpayable"},{"type":"function","name":"userAllocatedRewards","inputs":[{"name":"","type":"address","internalType":"address"}],"outputs":[{"name":"","type":"uint256","internalType":"uint256"}],"stateMutability":"view"},{"type":"function","name":"userReserves","inputs":[{"name":"","type":"address","internalType":"address"}],"outputs":[{"name":"","type":"uint256","internalType":"uint256"}],"stateMutability":"view"},{"type":"function","name":"withdrawReward","inputs":[{"name":"receiver","type":"address","internalType":"address"}],"outputs":[],"stateMutability":"nonpayable"},{"type":"function","name":"withdrawableUnlockTime","inputs":[{"name":"","type":"address","internalType":"address"}],"outputs":[{"name":"","type":"uint256","internalType":"uint256"}],"stateMutability":"view"},{"type":"event","name":"Approval","inputs":[{"name":"owner","type":"address","indexed":true,"internalType":"address"},{"name":"approved","type":"address","indexed":true,"internalType":"address"},{"name":"tokenId","type":"uint256","indexed":true,"internalType":"uint256"}],"anonymous":false},{"type":"event","name":"ApprovalForAll","inputs":[{"name":"owner","type":"address","indexed":true,"internalType":"address"},{"name":"operator","type":"address","indexed":true,"internalType":"address"},{"name":"approved","type":"bool","indexed":false,"internalType":"bool"}],"anonymous":false},{"type":"event","name":"BatchMetadataUpdate","inputs":[{"name":"_fromTokenId","type":"uint256","indexed":false,"internalType":"uint256"},{"name":"_toTokenId","type":"uint256","indexed":false,"internalType":"uint256"}],"anonymous":false},{"type":"event","name":"ChallengeCompleted","inputs":[{"name":"tokenId","type":"uint256","indexed":true,"internalType":"uint256"},{"name":"challenger","type":"address","indexed":true,"internalType":"address"},{"name":"status","type":"uint8","indexed":false,"internalType":"enum OGUOGU.ChallengeStatus"},{"name":"paymentReward","type":"uint256","indexed":false,"internalType":"uint256"}],"anonymous":false},{"type":"event","name":"ChallengeCreated","inputs":[{"name":"tokenId","type":"uint256","indexed":true,"internalType":"uint256"},{"name":"challenger","type":"address","indexed":true,"internalType":"address"},{"name":"challengeHash","type":"bytes32","indexed":false,"internalType":"bytes32"}],"anonymous":false},{"type":"event","name":"DepositReward","inputs":[{"name":"challenger","type":"address","indexed":true,"internalType":"address"},{"name":"amount","type":"uint256","indexed":false,"internalType":"uint256"}],"anonymous":false},{"type":"event","name":"Initialized","inputs":[{"name":"version","type":"uint64","indexed":false,"internalType":"uint64"}],"anonymous":false},{"type":"event","name":"MetadataUpdate","inputs":[{"name":"_tokenId","type":"uint256","indexed":false,"internalType":"uint256"}],"anonymous":false},{"type":"event","name":"OwnershipTransferred","inputs":[{"name":"previousOwner","type":"address","indexed":true,"internalType":"address"},{"name":"newOwner","type":"address","indexed":true,"internalType":"address"}],"anonymous":false},{"type":"event","name":"SubmitProof","inputs":[{"name":"tokenId","type":"uint256","indexed":true,"internalType":"uint256"},{"name":"challenger","type":"address","indexed":true,"internalType":"address"},{"name":"challengeHash","type":"bytes32","indexed":false,"internalType":"bytes32"},{"name":"proofHash","type":"bytes32","indexed":false,"internalType":"bytes32"}],"anonymous":false},{"type":"event","name":"Transfer","inputs":[{"name":"from","type":"address","indexed":true,"internalType":"address"},{"name":"to","type":"address","indexed":true,"internalType":"address"},{"name":"tokenId","type":"uint256","indexed":true,"internalType":"uint256"}],"anonymous":false},{"type":"event","name":"WithdrawReward","inputs":[{"name":"challenger","type":"address","indexed":true,"internalType":"address"},{"name":"amount","type":"uint256","indexed":false,"internalType":"uint256"}],"anonymous":false},{"type":"error","name":"ECDSAInvalidSignature","inputs":[]},{"type":"error","name":"ECDSAInvalidSignatureLength","inputs":[{"name":"length","type":"uint256","internalType":"uint256"}]},{"type":"error","name":"ECDSAInvalidSignatureS","inputs":[{"name":"s","type":"bytes32","internalType":"bytes32"}]},{"type":"error","name":"ERC721IncorrectOwner","inputs":[{"name":"sender","type":"address","internalType":"address"},{"name":"tokenId","type":"uint256","internalType":"uint256"},{"name":"owner","type":"address","internalType":"address"}]},{"type":"error","name":"ERC721InsufficientApproval","inputs":[{"name":"operator","type":"address","internalType":"address"},{"name":"tokenId","type":"uint256","internalType":"uint256"}]},{"type":"error","name":"ERC721InvalidApprover","inputs":[{"name":"approver","type":"address","internalType":"address"}]},{"type":"error","name":"ERC721InvalidOperator","inputs":[{"name":"operator","type":"address","internalType":"address"}]},{"type":"error","name":"ERC721InvalidOwner","inputs":[{"name":"owner","type":"address","internalType":"address"}]},{"type":"error","name":"ERC721InvalidReceiver","inputs":[{"name":"receiver","type":"address","internalType":"address"}]},{"type":"error","name":"ERC721InvalidSender","inputs":[{"name":"sender","type":"address","internalType":"address"}]},{"type":"error","name":"ERC721NonexistentToken","inputs":[{"name":"tokenId","type":"uint256","internalType":"uint256"}]},{"type":"error","name":"InvalidInitialization","inputs":[]},{"type":"error","name":"NotInitializing","inputs":[]},{"type":"error","name":"OwnableInvalidOwner","inputs":[{"name":"owner","type":"address","internalType":"address"}]},{"type":"error","name":"OwnableUnauthorizedAccount","inputs":[{"name":"account","type":"address","internalType":"address"}]}],"bytecode":{"object":"0x6080604052348015600e575f5ffd5b50612c5e8061001c5f395ff3fe608060405234801561000f575f5ffd5b50600436106101c6575f3560e01c806370a08231116100fe578063a22cb4651161009e578063c87b56dd1161006e578063c87b56dd1461041c578063e985e9c51461042f578063f2fde38b14610442578063f7c618c114610455575f5ffd5b8063a22cb465146103d0578063b86e321c146103e3578063b88d4fde146103f6578063be3f2e3a14610409575f5ffd5b8063832c8bc6116100d9578063832c8bc6146103815780638da5cb5b146103a157806391469fbe146103a957806395d89b41146103c8575f5ffd5b806370a0823114610353578063715018a6146103665780637db4e28f1461036e575f5ffd5b806323b872dd1161016957806342842e0e1161014457806342842e0e14610307578063485cc9551461031a5780636352211e1461032d5780636e9b992514610340575f5ffd5b806323b872dd146102b957806329071254146102cc5780633dd68feb146102f4575f5ffd5b8063081812fc116101a4578063081812fc14610234578063095ea7b31461025f5780630d08e181146102745780631bdd4b7414610293575f5ffd5b806301ffc9a7146101ca57806306fdde03146101f257806307feb30914610207575b5f5ffd5b6101dd6101d836600461253e565b610467565b60405190151581526020015b60405180910390f35b6101fa6104b8565b6040516101e99190612587565b6102266102153660046125b4565b60046020525f908152604090205481565b6040519081526020016101e9565b6102476102423660046125cd565b610559565b6040516001600160a01b0390911681526020016101e9565b61027261026d3660046125e4565b61056d565b005b6102266102823660046125b4565b60026020525f908152604090205481565b6102a66102a13660046125cd565b61057c565b6040516101e9979695949392919061260c565b6102726102c7366004612690565b61068b565b6102476102da3660046125cd565b60066020525f90815260409020546001600160a01b031681565b610272610302366004612767565b610719565b610272610315366004612690565b610936565b6102726103283660046127b2565b610955565b61024761033b3660046125cd565b610b6a565b61027261034e3660046125e4565b610b74565b6102266103613660046125b4565b610ee5565b610272610f3d565b61027261037c3660046125e4565b610f50565b61039461038f3660046125cd565b611128565b6040516101e99190612817565b61024761121d565b6102266103b73660046125b4565b60036020525f908152604090205481565b6101fa61124b565b6102726103de366004612832565b611289565b6102726103f13660046125b4565b611294565b610272610404366004612867565b6114a9565b6102266104173660046128ca565b6114c1565b6101fa61042a3660046125cd565b611851565b6101dd61043d3660046127b2565b6118b6565b6102726104503660046125b4565b611902565b5f54610247906001600160a01b031681565b5f6001600160e01b031982166380ac58cd60e01b148061049757506001600160e01b03198216635b5e139f60e01b145b806104b257506301ffc9a760e01b6001600160e01b03198316145b92915050565b5f516020612be55f395f51905f5280546060919081906104d790612946565b80601f016020809104026020016040519081016040528092919081815260200182805461050390612946565b801561054e5780601f106105255761010080835404028352916020019161054e565b820191905f5260205f20905b81548152906001019060200180831161053157829003601f168201915b505050505091505090565b5f6105638261193f565b506104b282611976565b6105788282336119af565b5050565b5f60605f5f5f5f5f5f60055f8a81526020019081526020015f206040518060e00160405290815f8201548152602001600182018054806020026020016040519081016040528092919081815260200182805480156105f757602002820191905f5260205f20905b8154815260200190600101908083116105e3575b50505091835250506002820154602080830191909152600383015460408084019190915260048401546060808501919091526005909401546001600160401b038116608080860191909152600160401b90910460ff16151560a0948501528551928601519186015194860151908601519386015160c090960151929f919e50939c50929a5090985091965090945092505050565b6001600160a01b0382166106b957604051633250574960e11b81525f60048201526024015b60405180910390fd5b5f6106c58383336119bc565b9050836001600160a01b0316816001600160a01b031614610713576040516364283d7b60e01b81526001600160a01b03808616600483015260248201849052821660448201526064016106b0565b50505050565b610721611abe565b5f61072b84611128565b600281111561073c5761073c6127e3565b146107825760405162461bcd60e51b815260206004820152601660248201527518da185b1b195b99d9481a5cc818dbdb5c1b195d195960521b60448201526064016106b0565b61079561078e84610b6a565b8383611af0565b6107d55760405162461bcd60e51b8152602060048201526011602482015270496e76616c6964207369676e617475726560781b60448201526064016106b0565b5f5b5f84815260056020526040902060010154811015610872575f8481526005602052604090206001018054849190839081106108145761081461297e565b905f5260205f2001540361086a5760405162461bcd60e51b815260206004820152601760248201527f50726f6f6620616c7265616479207375626d697474656400000000000000000060448201526064016106b0565b6001016107d7565b505f8381526005602090815260408220600190810180549182018155835291200182905561089f83610b6a565b6001600160a01b0316837fdb90ed0ea07beab3ce3553b2b31b640d1f71566666c958fbb692d10c067ec24860055f8781526020019081526020015f205f0154856040516108f6929190918252602082015260400190565b60405180910390a36040518381527ff8e1a15aba9398e019f0b49df1a4fde98ee17ae345cb5f6b5e2c27f5033e8ce79060200160405180910390a1505050565b61095083838360405180602001604052805f8152506114a9565b505050565b7ff0c57e16840df040f15088dc2f81fe391c3923bec73e23a9662efc9c229c6a008054600160401b810460ff1615906001600160401b03165f811580156109995750825b90505f826001600160401b031660011480156109b45750303b155b9050811580156109c2575080155b156109e05760405163f92ee8a960e01b815260040160405180910390fd5b845467ffffffffffffffff191660011785558315610a0a57845460ff60401b1916600160401b1785555b6001600160a01b038716610a585760405162461bcd60e51b8152602060048201526015602482015274496e76616c696420746f6b656e206164647265737360581b60448201526064016106b0565b6001600160a01b038616610aae5760405162461bcd60e51b815260206004820152601860248201527f496e76616c6964206f70657261746f722061646472657373000000000000000060448201526064016106b0565b5f80546001600160a01b0319166001600160a01b03891617905560018055610ad586611b45565b610b1b604051806040016040528060068152602001654f47554f475560d01b815250604051806040016040528060068152602001654f47554f475560d01b815250611b56565b8315610b6157845460ff60401b19168555604051600181527fc7f505b2f371ae2175ee4913f4499e1f2633a7b5936321eed1cdaeb6115181d29060200160405180910390a15b50505050505050565b5f6104b28261193f565b5f610b7e82610b6a565b9050336001600160a01b03821614610b94578092505b5f610b9e83611128565b90505f60055f8581526020019081526020015f206040518060e00160405290815f820154815260200160018201805480602002602001604051908101604052809291908181526020018280548015610c1357602002820191905f5260205f20905b815481526020019060010190808311610bff575b50505091835250506002820154602082015260038201546040820152600482015460608201526005909101546001600160401b0381166080830152600160401b900460ff16151560a09091015290505f826002811115610c7557610c756127e3565b03610cc25760405162461bcd60e51b815260206004820152601760248201527f4368616c6c656e6765206973206e6f7420636c6f73656400000000000000000060448201526064016106b0565b8060c0015115610d145760405162461bcd60e51b815260206004820152601b60248201527f4368616c6c656e676520697320616c726561647920636c6f736564000000000060448201526064016106b0565b5f848152600560208181526040808420909201805460ff60401b1916600160401b179055838201516001600160a01b03871684526003909152908220805491929091610d619084906129a6565b909155505f90506001836002811115610d7c57610d7c6127e3565b03610e3657610d8e8260400151611b68565b5f5460405163a9059cbb60e01b81526001600160a01b0389811660048301526024820184905292935091169063a9059cbb906044016020604051808303815f875af1158015610ddf573d5f5f3e3d5ffd5b505050506040513d601f19601f82011682018060405250810190610e0391906129b9565b506001600160a01b0384165f9081526002602052604081208054839290610e2b9084906129a6565b90915550610e669050565b6001600160a01b0384165f908152600460205260408120805462093a809290610e609084906129d4565b90915550505b836001600160a01b0316857f4a6c71421a36589a138e810099781dc08801db5ef0a3e6d9c3d4ccc16de42feb8584604051610ea29291906129e7565b60405180910390a36040518581527ff8e1a15aba9398e019f0b49df1a4fde98ee17ae345cb5f6b5e2c27f5033e8ce79060200160405180910390a1505050505050565b5f5f516020612be55f395f51905f526001600160a01b038316610f1d576040516322718ad960e21b81525f60048201526024016106b0565b6001600160a01b039092165f908152600390920160205250604090205490565b610f45611abe565b610f4e5f611b87565b565b6001600160a01b038216610fa65760405162461bcd60e51b815260206004820152601a60248201527f496e76616c6964206368616c6c656e676572206164647265737300000000000060448201526064016106b0565b5f8111610fe65760405162461bcd60e51b815260206004820152600e60248201526d125b9d985b1a5908185b5bdd5b9d60921b60448201526064016106b0565b5f546040516323b872dd60e01b81526001600160a01b03848116600483015230602483015260448201849052909116906323b872dd906064016020604051808303815f875af115801561103b573d5f5f3e3d5ffd5b505050506040513d601f19601f8201168201806040525081019061105f91906129b9565b61109d5760405162461bcd60e51b815260206004820152600f60248201526e151c985b9cd9995c8819985a5b1959608a1b60448201526064016106b0565b6001600160a01b0382165f8181526002602052604090208054830190553390036110e1576001600160a01b0382165f9081526004602052604090206224ea00420190555b816001600160a01b03167f4f7fd5c9e17300a4800fd572ea53fc291e2ee7470d73346d16b357faee4e72108260405161111c91815260200190565b60405180910390a25050565b5f818152600560209081526040808320815160e0810183528154815260018201805484518187028101870190955280855286959294858401939092919083018282801561119257602002820191905f5260205f20905b81548152602001906001019080831161117e575b5050509183525050600282015460208083019190915260038301546040830152600483015460608301526005909201546001600160401b038082166080840152600160401b90910460ff16151560a09283015290830151918301515192935016116112005750600192915050565b42816080015110156112155750600292915050565b505f92915050565b7f9016d09d72d40fdae2fd8ceac6b6234c7706214fd39c1cd1e609a0528c199300546001600160a01b031690565b7f80bb2b638cc20bc4d0a60d66940f3ab4a00c1d7b313497ca82fb0b4ab007930180546060915f516020612be55f395f51905f52916104d790612946565b610578338383611bf7565b336001600160a01b0382166112eb5760405162461bcd60e51b815260206004820152601860248201527f496e76616c69642072656365697665722061646472657373000000000000000060448201526064016106b0565b6001600160a01b0381165f90815260036020908152604080832054600290925282205461131891906129a6565b90505f811161135a5760405162461bcd60e51b815260206004820152600e60248201526d125b9d985b1a5908185b5bdd5b9d60921b60448201526064016106b0565b6001600160a01b0382165f908152600460205260409020544210156113c15760405162461bcd60e51b815260206004820152601c60248201527f5769746864726177616c206e6f742079657420617661696c61626c650000000060448201526064016106b0565b6001600160a01b0382165f90815260026020526040812080548392906113e89084906129a6565b90915550505f5460405163a9059cbb60e01b81526001600160a01b038581166004830152602482018490529091169063a9059cbb906044016020604051808303815f875af115801561143c573d5f5f3e3d5ffd5b505050506040513d601f19601f8201168201806040525081019061146091906129b9565b50816001600160a01b03167fbc84835063c693975166f00cffb19f01a94c2db55b1bf259238c5da3594e50668260405161149c91815260200190565b60405180910390a2505050565b6114b484848461068b565b6107133385858585611ca6565b5f5f87116115025760405162461bcd60e51b815260206004820152600e60248201526d125b9d985b1a59081c995dd85c9960921b60448201526064016106b0565b8284106115465760405162461bcd60e51b8152602060048201526012602482015271496e76616c6964207374617274206461746560701b60448201526064016106b0565b8242106115885760405162461bcd60e51b815260206004820152601060248201526f496e76616c696420656e64206461746560801b60448201526064016106b0565b5f826001600160401b0316116115e05760405162461bcd60e51b815260206004820152601b60248201527f496e76616c6964206d696e696d756d2070726f6f6620636f756e74000000000060448201526064016106b0565b5f868152600660205260409020546001600160a01b0316156116445760405162461bcd60e51b815260206004820152601860248201527f4368616c6c656e676520616c726561647920657869737473000000000000000060448201526064016106b0565b5f86815260066020526040902080546001600160a01b0319163317905561167361166c61121d565b8787611af0565b6116b35760405162461bcd60e51b8152602060048201526011602482015270496e76616c6964207369676e617475726560781b60448201526064016106b0565b335f90815260036020818152604080842080548c019081905560028352932054919052101561171b5760405162461bcd60e51b8152602060048201526014602482015273496e73756666696369656e742062616c616e636560601b60448201526064016106b0565b6040805160e08101825287815281515f808252602080830185528084019283528385018c905260608401899052608084018890526001600160401b03871660a085015260c0840182905260018054835260058252949091208351815591518051939492936117909385019291909101906124cc565b5060408201516002820155606082015160038201556080820151600482015560a08201516005909101805460c0909301511515600160401b0268ffffffffffffffffff199093166001600160401b03909216919091179190911790556001546117fa903390611dce565b6001546040518781523391907feac6e327176e3b77d65d71ae889f4dc718d3cc814cfdfcb18da967415fc542239060200160405180910390a360018054905f61184283612a02565b90915550979650505050505050565b606061185c8261193f565b505f611866611de7565b90505f8151116118845760405180602001604052805f8152506118af565b8061188e84611e07565b60405160200161189f929190612a31565b6040516020818303038152906040525b9392505050565b6001600160a01b039182165f9081527f80bb2b638cc20bc4d0a60d66940f3ab4a00c1d7b313497ca82fb0b4ab00793056020908152604080832093909416825291909152205460ff1690565b61190a611abe565b6001600160a01b03811661193357604051631e4fbdf760e01b81525f60048201526024016106b0565b61193c81611b87565b50565b5f5f61194a83611e96565b90506001600160a01b0381166104b257604051637e27328960e01b8152600481018490526024016106b0565b5f9081527f80bb2b638cc20bc4d0a60d66940f3ab4a00c1d7b313497ca82fb0b4ab007930460205260409020546001600160a01b031690565b6109508383836001611ecf565b5f5f516020612be55f395f51905f52816119d585611e96565b90506001600160a01b038416156119f1576119f1818587611fe2565b6001600160a01b03811615611a2d57611a0c5f865f5f611ecf565b6001600160a01b0381165f908152600383016020526040902080545f190190555b6001600160a01b03861615611a5d576001600160a01b0386165f9081526003830160205260409020805460010190555b5f85815260028301602052604080822080546001600160a01b0319166001600160a01b038a811691821790925591518893918516917fddf252ad1be2c89b69c2b068fc378daa952ba7f163c4a11628f55a4df523b3ef91a495945050505050565b33611ac761121d565b6001600160a01b031614610f4e5760405163118cdaa760e01b81523360048201526024016106b0565b7f19457468657265756d205369676e6564204d6573736167653a0a3332000000005f908152601c839052603c81206001600160a01b038516611b328285612046565b6001600160a01b03161495945050505050565b611b4d61206e565b61193c816120b7565b611b5e61206e565b61057882826120bf565b5f6064611b736120ef565b611b7d9084612a45565b6104b29190612a70565b7f9016d09d72d40fdae2fd8ceac6b6234c7706214fd39c1cd1e609a0528c19930080546001600160a01b031981166001600160a01b03848116918217845560405192169182907f8be0079c531659141344cd1fd0a4f28419497f9722a3daafe3b4186f6b6457e0905f90a3505050565b5f516020612be55f395f51905f526001600160a01b038316611c3757604051630b61174360e31b81526001600160a01b03841660048201526024016106b0565b6001600160a01b038481165f818152600584016020908152604080832094881680845294825291829020805460ff191687151590811790915591519182527f17307eab39ab6107e8899845ad3d59bd9653f200f220920489ca2b5937696c31910160405180910390a350505050565b6001600160a01b0383163b15611dc757604051630a85bd0160e11b81526001600160a01b0384169063150b7a0290611ce8908890889087908790600401612a8f565b6020604051808303815f875af1925050508015611d22575060408051601f3d908101601f19168201909252611d1f91810190612acb565b60015b611d89573d808015611d4f576040519150601f19603f3d011682016040523d82523d5f602084013e611d54565b606091505b5080515f03611d8157604051633250574960e11b81526001600160a01b03851660048201526024016106b0565b805181602001fd5b6001600160e01b03198116630a85bd0160e11b14611dc557604051633250574960e11b81526001600160a01b03851660048201526024016106b0565b505b5050505050565b610578828260405180602001604052805f81525061214f565b6060604051806060016040528060248152602001612c0560249139905090565b60605f611e1383612166565b60010190505f816001600160401b03811115611e3157611e316126ca565b6040519080825280601f01601f191660200182016040528015611e5b576020820181803683370190505b5090508181016020015b5f19016f181899199a1a9b1b9c1cb0b131b232b360811b600a86061a8153600a8504945084611e6557509392505050565b5f9081527f80bb2b638cc20bc4d0a60d66940f3ab4a00c1d7b313497ca82fb0b4ab007930260205260409020546001600160a01b031690565b5f516020612be55f395f51905f528180611ef157506001600160a01b03831615155b15611fb2575f611f008561193f565b90506001600160a01b03841615801590611f2c5750836001600160a01b0316816001600160a01b031614155b8015611f3f5750611f3d81856118b6565b155b15611f685760405163a9fbf51f60e01b81526001600160a01b03851660048201526024016106b0565b8215611fb05784866001600160a01b0316826001600160a01b03167f8c5be1e5ebec7d5bd14f71427d1e84f3dd0314c0f7b2291e5b200ac8c7c3b92560405160405180910390a45b505b5f93845260040160205250506040902080546001600160a01b0319166001600160a01b0392909216919091179055565b611fed83838361223d565b610950576001600160a01b03831661201b57604051637e27328960e01b8152600481018290526024016106b0565b60405163177e802f60e01b81526001600160a01b0383166004820152602481018290526044016106b0565b5f5f5f5f61205486866122a2565b92509250925061206482826122eb565b5090949350505050565b7ff0c57e16840df040f15088dc2f81fe391c3923bec73e23a9662efc9c229c6a0054600160401b900460ff16610f4e57604051631afcd79f60e31b815260040160405180910390fd5b61190a61206e565b6120c761206e565b5f516020612be55f395f51905f52806120e08482612b2a565b50600181016107138382612b2a565b5f606460014303404160405160200161212492919091825260601b6bffffffffffffffffffffffff1916602082015260340190565b604051602081830303815290604052805190602001205f1c8161214957612149612a5c565b06905090565b61215983836123a3565b610950335f858585611ca6565b5f8072184f03e93ff9f4daa797ed6e38ed64bf6a1f0160401b83106121a45772184f03e93ff9f4daa797ed6e38ed64bf6a1f0160401b830492506040015b6d04ee2d6d415b85acef810000000083106121d0576d04ee2d6d415b85acef8100000000830492506020015b662386f26fc1000083106121ee57662386f26fc10000830492506010015b6305f5e1008310612206576305f5e100830492506008015b612710831061221a57612710830492506004015b6064831061222c576064830492506002015b600a83106104b25760010192915050565b5f6001600160a01b0383161580159061229a5750826001600160a01b0316846001600160a01b03161480612276575061227684846118b6565b8061229a5750826001600160a01b031661228f83611976565b6001600160a01b0316145b949350505050565b5f5f5f83516041036122d9576020840151604085015160608601515f1a6122cb88828585612404565b9550955095505050506122e4565b505081515f91506002905b9250925092565b5f8260038111156122fe576122fe6127e3565b03612307575050565b600182600381111561231b5761231b6127e3565b036123395760405163f645eedf60e01b815260040160405180910390fd5b600282600381111561234d5761234d6127e3565b0361236e5760405163fce698f760e01b8152600481018290526024016106b0565b6003826003811115612382576123826127e3565b03610578576040516335e2f38360e21b8152600481018290526024016106b0565b6001600160a01b0382166123cc57604051633250574960e11b81525f60048201526024016106b0565b5f6123d883835f6119bc565b90506001600160a01b03811615610950576040516339e3563760e11b81525f60048201526024016106b0565b5f80807f7fffffffffffffffffffffffffffffff5d576e7357a4501ddfe92f46681b20a084111561243d57505f915060039050826124c2565b604080515f808252602082018084528a905260ff891692820192909252606081018790526080810186905260019060a0016020604051602081039080840390855afa15801561248e573d5f5f3e3d5ffd5b5050604051601f1901519150506001600160a01b0381166124b957505f9250600191508290506124c2565b92505f91508190505b9450945094915050565b828054828255905f5260205f20908101928215612505579160200282015b828111156125055782518255916020019190600101906124ea565b50612511929150612515565b5090565b5b80821115612511575f8155600101612516565b6001600160e01b03198116811461193c575f5ffd5b5f6020828403121561254e575f5ffd5b81356118af81612529565b5f81518084528060208401602086015e5f602082860101526020601f19601f83011685010191505092915050565b602081525f6118af6020830184612559565b80356001600160a01b03811681146125af575f5ffd5b919050565b5f602082840312156125c4575f5ffd5b6118af82612599565b5f602082840312156125dd575f5ffd5b5035919050565b5f5f604083850312156125f5575f5ffd5b6125fe83612599565b946020939093013593505050565b5f60e0820189835260e060208401528089518083526101008501915060208b0192505f5b8181101561264e578351835260209384019390920191600101612630565b5050809250505086604083015285606083015284608083015261267c60a08301856001600160401b03169052565b82151560c083015298975050505050505050565b5f5f5f606084860312156126a2575f5ffd5b6126ab84612599565b92506126b960208501612599565b929592945050506040919091013590565b634e487b7160e01b5f52604160045260245ffd5b5f82601f8301126126ed575f5ffd5b81356001600160401b03811115612706576127066126ca565b604051601f8201601f19908116603f011681016001600160401b0381118282101715612734576127346126ca565b60405281815283820160200185101561274b575f5ffd5b816020850160208301375f918101602001919091529392505050565b5f5f5f60608486031215612779575f5ffd5b833592506020840135915060408401356001600160401b0381111561279c575f5ffd5b6127a8868287016126de565b9150509250925092565b5f5f604083850312156127c3575f5ffd5b6127cc83612599565b91506127da60208401612599565b90509250929050565b634e487b7160e01b5f52602160045260245ffd5b6003811061281357634e487b7160e01b5f52602160045260245ffd5b9052565b602081016104b282846127f7565b801515811461193c575f5ffd5b5f5f60408385031215612843575f5ffd5b61284c83612599565b9150602083013561285c81612825565b809150509250929050565b5f5f5f5f6080858703121561287a575f5ffd5b61288385612599565b935061289160208601612599565b92506040850135915060608501356001600160401b038111156128b2575f5ffd5b6128be878288016126de565b91505092959194509250565b5f5f5f5f5f5f60c087890312156128df575f5ffd5b863595506020870135945060408701356001600160401b03811115612902575f5ffd5b61290e89828a016126de565b945050606087013592506080870135915060a08701356001600160401b0381168114612938575f5ffd5b809150509295509295509295565b600181811c9082168061295a57607f821691505b60208210810361297857634e487b7160e01b5f52602260045260245ffd5b50919050565b634e487b7160e01b5f52603260045260245ffd5b634e487b7160e01b5f52601160045260245ffd5b818103818111156104b2576104b2612992565b5f602082840312156129c9575f5ffd5b81516118af81612825565b808201808211156104b2576104b2612992565b604081016129f582856127f7565b8260208301529392505050565b5f60018201612a1357612a13612992565b5060010190565b5f81518060208401855e5f93019283525090919050565b5f61229a612a3f8386612a1a565b84612a1a565b80820281158282048414176104b2576104b2612992565b634e487b7160e01b5f52601260045260245ffd5b5f82612a8a57634e487b7160e01b5f52601260045260245ffd5b500490565b6001600160a01b03858116825284166020820152604081018390526080606082018190525f90612ac190830184612559565b9695505050505050565b5f60208284031215612adb575f5ffd5b81516118af81612529565b601f82111561095057805f5260205f20601f840160051c81016020851015612b0b5750805b601f840160051c820191505b81811015611dc7575f8155600101612b17565b81516001600160401b03811115612b4357612b436126ca565b612b5781612b518454612946565b84612ae6565b6020601f821160018114612b89575f8315612b725750848201515b5f19600385901b1c1916600184901b178455611dc7565b5f84815260208120601f198516915b82811015612bb85787850151825560209485019460019092019101612b98565b5084821015612bd557868401515f19600387901b60f8161c191681555b50505050600190811b0190555056fe80bb2b638cc20bc4d0a60d66940f3ab4a00c1d7b313497ca82fb0b4ab007930068747470733a2f2f6173736574732e6f67756f67752e6d652f6368616c6c656e6765732fa2646970667358221220e7e1a5b0af538b07cdb71fb24df82d8ae74862d77e148f0bac8cd34f4b563baa64736f6c634300081c0033","linkReferences":{}},"methodIdentifiers":{"approve(address,uint256)":"095ea7b3","balanceOf(address)":"70a08231","challengeHashes(bytes32)":"29071254","completeChallenge(address,uint256)":"6e9b9925","createChallenge(uint256,bytes32,bytes,uint256,uint256,uint64)":"be3f2e3a","depositReward(address,uint256)":"7db4e28f","getApproved(uint256)":"081812fc","getChallenge(uint256)":"1bdd4b74","getChallengeStatus(uint256)":"832c8bc6","initialize(address,address)":"485cc955","isApprovedForAll(address,address)":"e985e9c5","name()":"06fdde03","owner()":"8da5cb5b","ownerOf(uint256)":"6352211e","renounceOwnership()":"715018a6","rewardToken()":"f7c618c1","safeTransferFrom(address,address,uint256)":"42842e0e","safeTransferFrom(address,address,uint256,bytes)":"b88d4fde","setApprovalForAll(address,bool)":"a22cb465","submitProof(uint256,bytes32,bytes)":"3dd68feb","supportsInterface(bytes4)":"01ffc9a7","symbol()":"95d89b41","tokenURI(uint256)":"c87b56dd","transferFrom(address,address,uint256)":"23b872dd","transferOwnership(address)":"f2fde38b","userAllocatedRewards(address)":"91469fbe","userReserves(address)":"0d08e181","withdrawReward(address)":"b86e321c","withdrawableUnlockTime(address)":"07feb309"},"storageLayout":{"storage":[{"astId":44595,"contract":"src/Oguogu.sol:OGUOGU","label":"rewardToken","offset":0,"slot":"0","type":"t_contract(IERC20)39452"},{"astId":44597,"contract":"src/Oguogu.sol:OGUOGU","label":"_challengeId","offset":0,"slot":"1","type":"t_uint256"},{"astId":44601,"contract":"src/Oguogu.sol:OGUOGU","label":"userReserves","offset":0,"slot":"2","type":"t_mapping(t_address,t_uint256)"},{"astId":44605,"contract":"src/Oguogu.sol:OGUOGU","label":"userAllocatedRewards","offset":0,"slot":"3","type":"t_mapping(t_address,t_uint256)"},{"astId":44609,"contract":"src/Oguogu.sol:OGUOGU","label":"withdrawableUnlockTime","offset":0,"slot":"4","type":"t_mapping(t_address,t_uint256)"},{"astId":44614,"contract":"src/Oguogu.sol:OGUOGU","label":"_challenges","offset":0,"slot":"5","type":"t_mapping(t_uint256,t_struct(Challenge)44634_storage)"},{"astId":44618,"contract":"src/Oguogu.sol:OGUOGU","label":"challengeHashes","offset":0,"slot":"6","type":"t_mapping(t_bytes32,t_address)"}],"types":{"t_address":{"encoding":"inplace","label":"address","numberOfBytes":"20"},"t_array(t_bytes32)dyn_storage":{"encoding":"dynamic_array","label":"bytes32[]","numberOfBytes":"32","base":"t_bytes32"},"t_bool":{"encoding":"inplace","label":"bool","numberOfBytes":"1"},"t_bytes32":{"encoding":"inplace","label":"bytes32","numberOfBytes":"32"},"t_contract(IERC20)39452":{"encoding":"inplace","label":"contract IERC20","numberOfBytes":"20"},"t_mapping(t_address,t_uint256)":{"encoding":"mapping","key":"t_address","label":"mapping(address => uint256)","numberOfBytes":"32","value":"t_uint256"},"t_mapping(t_bytes32,t_address)":{"encoding":"mapping","key":"t_bytes32","label":"mapping(bytes32 => address)","numberOfBytes":"32","value":"t_address"},"t_mapping(t_uint256,t_struct(Challenge)44634_storage)":{"encoding":"mapping","key":"t_uint256","label":"mapping(uint256 => struct OGUOGU.Challenge)","numberOfBytes":"32","value":"t_struct(Challenge)44634_storage"},"t_struct(Challenge)44634_storage":{"encoding":"inplace","label":"struct OGUOGU.Challenge","numberOfBytes":"192","members":[{"astId":44620,"contract":"src/Oguogu.sol:OGUOGU","label":"challengeHash","offset":0,"slot":"0","type":"t_bytes32"},{"astId":44623,"contract":"src/Oguogu.sol:OGUOGU","label":"proofHashes","offset":0,"slot":"1","type":"t_array(t_bytes32)dyn_storage"},{"astId":44625,"contract":"src/Oguogu.sol:OGUOGU","label":"reward","offset":0,"slot":"2","type":"t_uint256"},{"astId":44627,"contract":"src/Oguogu.sol:OGUOGU","label":"startDate","offset":0,"slot":"3","type":"t_uint256"},{"astId":44629,"contract":"src/Oguogu.sol:OGUOGU","label":"endDate","offset":0,"slot":"4","type":"t_uint256"},{"astId":44631,"contract":"src/Oguogu.sol:OGUOGU","label":"minimumProofCount","offset":0,"slot":"5","type":"t_uint64"},{"astId":44633,"contract":"src/Oguogu.sol:OGUOGU","label":"isClosed","offset":8,"slot":"5","type":"t_bool"}]},"t_uint256":{"encoding":"inplace","label":"uint256","numberOfBytes":"32"},"t_uint64":{"encoding":"inplace","label":"uint64","numberOfBytes":"8"}}},"id":56}