{"abi":[{"type":"function","name":"approve","inputs":[{"name":"to","type":"address","internalType":"address"},{"name":"tokenId","type":"uint256","internalType":"uint256"}],"outputs":[],"stateMutability":"nonpayable"},{"type":"function","name":"balanceOf","inputs":[{"name":"owner","type":"address","internalType":"address"}],"outputs":[{"name":"","type":"uint256","internalType":"uint256"}],"stateMutability":"view"},{"type":"function","name":"calculateChallengeHash","inputs":[{"name":"title","type":"string","internalType":"string"},{"name":"reward","type":"uint256","internalType":"uint256"},{"name":"challengeType","type":"uint8","internalType":"enum OGUOGU.ChallengeType"},{"name":"challenger","type":"address","internalType":"address"},{"name":"startDate","type":"uint256","internalType":"uint256"},{"name":"endDate","type":"uint256","internalType":"uint256"},{"name":"nonce","type":"uint32","internalType":"uint32"},{"name":"minimumActivityCount","type":"uint8","internalType":"uint8"}],"outputs":[{"name":"","type":"bytes32","internalType":"bytes32"}],"stateMutability":"pure"},{"type":"function","name":"challengeHashes","inputs":[{"name":"challengeHash","type":"bytes32","internalType":"bytes32"}],"outputs":[{"name":"","type":"address","internalType":"address"}],"stateMutability":"view"},{"type":"function","name":"completeChallenge","inputs":[{"name":"receipent","type":"address","internalType":"address"},{"name":"tokenId","type":"uint256","internalType":"uint256"}],"outputs":[],"stateMutability":"nonpayable"},{"type":"function","name":"createChallenge","inputs":[{"name":"title","type":"string","internalType":"string"},{"name":"reward","type":"uint256","internalType":"uint256"},{"name":"challengeType","type":"uint8","internalType":"enum OGUOGU.ChallengeType"},{"name":"challengeSignature","type":"bytes","internalType":"bytes"},{"name":"startDate","type":"uint256","internalType":"uint256"},{"name":"endDate","type":"uint256","internalType":"uint256"},{"name":"nonce","type":"uint32","internalType":"uint32"},{"name":"minimumActivityCount","type":"uint8","internalType":"uint8"}],"outputs":[{"name":"","type":"uint256","internalType":"uint256"}],"stateMutability":"nonpayable"},{"type":"function","name":"depositReward","inputs":[{"name":"challenger","type":"address","internalType":"address"},{"name":"amount","type":"uint256","internalType":"uint256"}],"outputs":[],"stateMutability":"nonpayable"},{"type":"function","name":"getApproved","inputs":[{"name":"tokenId","type":"uint256","internalType":"uint256"}],"outputs":[{"name":"","type":"address","internalType":"address"}],"stateMutability":"view"},{"type":"function","name":"getChallenge","inputs":[{"name":"tokenId","type":"uint256","internalType":"uint256"}],"outputs":[{"name":"","type":"bytes32","internalType":"bytes32"},{"name":"","type":"bytes32[]","internalType":"bytes32[]"},{"name":"","type":"uint256","internalType":"uint256"},{"name":"","type":"uint256","internalType":"uint256"},{"name":"","type":"uint256","internalType":"uint256"},{"name":"","type":"uint64","internalType":"uint64"},{"name":"","type":"bool","internalType":"bool"}],"stateMutability":"view"},{"type":"function","name":"getChallengeStatus","inputs":[{"name":"tokenId","type":"uint256","internalType":"uint256"}],"outputs":[{"name":"","type":"uint8","internalType":"enum OGUOGU.ChallengeStatus"}],"stateMutability":"view"},{"type":"function","name":"initialize","inputs":[{"name":"_rewardToken","type":"address","internalType":"address"},{"name":"_operator","type":"address","internalType":"address"}],"outputs":[],"stateMutability":"nonpayable"},{"type":"function","name":"isApprovedForAll","inputs":[{"name":"owner","type":"address","internalType":"address"},{"name":"operator","type":"address","internalType":"address"}],"outputs":[{"name":"","type":"bool","internalType":"bool"}],"stateMutability":"view"},{"type":"function","name":"name","inputs":[],"outputs":[{"name":"","type":"string","internalType":"string"}],"stateMutability":"view"},{"type":"function","name":"owner","inputs":[],"outputs":[{"name":"","type":"address","internalType":"address"}],"stateMutability":"view"},{"type":"function","name":"ownerOf","inputs":[{"name":"tokenId","type":"uint256","internalType":"uint256"}],"outputs":[{"name":"","type":"address","internalType":"address"}],"stateMutability":"view"},{"type":"function","name":"renounceOwnership","inputs":[],"outputs":[],"stateMutability":"nonpayable"},{"type":"function","name":"rewardToken","inputs":[],"outputs":[{"name":"","type":"address","internalType":"contract IERC20"}],"stateMutability":"view"},{"type":"function","name":"safeTransferFrom","inputs":[{"name":"from","type":"address","internalType":"address"},{"name":"to","type":"address","internalType":"address"},{"name":"tokenId","type":"uint256","internalType":"uint256"}],"outputs":[],"stateMutability":"nonpayable"},{"type":"function","name":"safeTransferFrom","inputs":[{"name":"from","type":"address","internalType":"address"},{"name":"to","type":"address","internalType":"address"},{"name":"tokenId","type":"uint256","internalType":"uint256"},{"name":"data","type":"bytes","internalType":"bytes"}],"outputs":[],"stateMutability":"nonpayable"},{"type":"function","name":"setApprovalForAll","inputs":[{"name":"operator","type":"address","internalType":"address"},{"name":"approved","type":"bool","internalType":"bool"}],"outputs":[],"stateMutability":"nonpayable"},{"type":"function","name":"submitActivity","inputs":[{"name":"tokenId","type":"uint256","internalType":"uint256"},{"name":"activityHash","type":"bytes32","internalType":"bytes32"},{"name":"activitySignature","type":"bytes","internalType":"bytes"}],"outputs":[],"stateMutability":"nonpayable"},{"type":"function","name":"supportsInterface","inputs":[{"name":"interfaceId","type":"bytes4","internalType":"bytes4"}],"outputs":[{"name":"","type":"bool","internalType":"bool"}],"stateMutability":"view"},{"type":"function","name":"symbol","inputs":[],"outputs":[{"name":"","type":"string","internalType":"string"}],"stateMutability":"view"},{"type":"function","name":"tokenURI","inputs":[{"name":"tokenId","type":"uint256","internalType":"uint256"}],"outputs":[{"name":"","type":"string","internalType":"string"}],"stateMutability":"view"},{"type":"function","name":"transferFrom","inputs":[{"name":"from","type":"address","internalType":"address"},{"name":"to","type":"address","internalType":"address"},{"name":"tokenId","type":"uint256","internalType":"uint256"}],"outputs":[],"stateMutability":"nonpayable"},{"type":"function","name":"transferOwnership","inputs":[{"name":"newOwner","type":"address","internalType":"address"}],"outputs":[],"stateMutability":"nonpayable"},{"type":"function","name":"userAccumulatedReserves","inputs":[{"name":"challenger","type":"address","internalType":"address"}],"outputs":[{"name":"","type":"uint256","internalType":"uint256"}],"stateMutability":"view"},{"type":"function","name":"userAllocatedRewards","inputs":[{"name":"challenger","type":"address","internalType":"address"}],"outputs":[{"name":"","type":"uint256","internalType":"uint256"}],"stateMutability":"view"},{"type":"function","name":"userReserves","inputs":[{"name":"challenger","type":"address","internalType":"address"}],"outputs":[{"name":"","type":"uint256","internalType":"uint256"}],"stateMutability":"view"},{"type":"function","name":"withdrawReward","inputs":[{"name":"receiver","type":"address","internalType":"address"}],"outputs":[],"stateMutability":"nonpayable"},{"type":"function","name":"withdrawableUnlockTime","inputs":[{"name":"challenger","type":"address","internalType":"address"}],"outputs":[{"name":"","type":"uint256","internalType":"uint256"}],"stateMutability":"view"},{"type":"event","name":"Approval","inputs":[{"name":"owner","type":"address","indexed":true,"internalType":"address"},{"name":"approved","type":"address","indexed":true,"internalType":"address"},{"name":"tokenId","type":"uint256","indexed":true,"internalType":"uint256"}],"anonymous":false},{"type":"event","name":"ApprovalForAll","inputs":[{"name":"owner","type":"address","indexed":true,"internalType":"address"},{"name":"operator","type":"address","indexed":true,"internalType":"address"},{"name":"approved","type":"bool","indexed":false,"internalType":"bool"}],"anonymous":false},{"type":"event","name":"BatchMetadataUpdate","inputs":[{"name":"_fromTokenId","type":"uint256","indexed":false,"internalType":"uint256"},{"name":"_toTokenId","type":"uint256","indexed":false,"internalType":"uint256"}],"anonymous":false},{"type":"event","name":"ChallengeCompleted","inputs":[{"name":"tokenId","type":"uint256","indexed":true,"internalType":"uint256"},{"name":"challenger","type":"address","indexed":true,"internalType":"address"},{"name":"status","type":"uint8","indexed":false,"internalType":"enum OGUOGU.ChallengeStatus"},{"name":"paymentReward","type":"uint256","indexed":false,"internalType":"uint256"}],"anonymous":false},{"type":"event","name":"ChallengeCreated","inputs":[{"name":"tokenId","type":"uint256","indexed":true,"internalType":"uint256"},{"name":"challenger","type":"address","indexed":true,"internalType":"address"},{"name":"challengeHash","type":"bytes32","indexed":false,"internalType":"bytes32"}],"anonymous":false},{"type":"event","name":"DepositReward","inputs":[{"name":"challenger","type":"address","indexed":true,"internalType":"address"},{"name":"amount","type":"uint256","indexed":false,"internalType":"uint256"}],"anonymous":false},{"type":"event","name":"Initialized","inputs":[{"name":"version","type":"uint64","indexed":false,"internalType":"uint64"}],"anonymous":false},{"type":"event","name":"MetadataUpdate","inputs":[{"name":"_tokenId","type":"uint256","indexed":false,"internalType":"uint256"}],"anonymous":false},{"type":"event","name":"OwnershipTransferred","inputs":[{"name":"previousOwner","type":"address","indexed":true,"internalType":"address"},{"name":"newOwner","type":"address","indexed":true,"internalType":"address"}],"anonymous":false},{"type":"event","name":"SubmitActivity","inputs":[{"name":"tokenId","type":"uint256","indexed":true,"internalType":"uint256"},{"name":"challenger","type":"address","indexed":true,"internalType":"address"},{"name":"challengeHash","type":"bytes32","indexed":false,"internalType":"bytes32"},{"name":"activityHash","type":"bytes32","indexed":false,"internalType":"bytes32"}],"anonymous":false},{"type":"event","name":"Transfer","inputs":[{"name":"from","type":"address","indexed":true,"internalType":"address"},{"name":"to","type":"address","indexed":true,"internalType":"address"},{"name":"tokenId","type":"uint256","indexed":true,"internalType":"uint256"}],"anonymous":false},{"type":"event","name":"WithdrawReward","inputs":[{"name":"challenger","type":"address","indexed":true,"internalType":"address"},{"name":"amount","type":"uint256","indexed":false,"internalType":"uint256"}],"anonymous":false},{"type":"error","name":"ECDSAInvalidSignature","inputs":[]},{"type":"error","name":"ECDSAInvalidSignatureLength","inputs":[{"name":"length","type":"uint256","internalType":"uint256"}]},{"type":"error","name":"ECDSAInvalidSignatureS","inputs":[{"name":"s","type":"bytes32","internalType":"bytes32"}]},{"type":"error","name":"ERC721IncorrectOwner","inputs":[{"name":"sender","type":"address","internalType":"address"},{"name":"tokenId","type":"uint256","internalType":"uint256"},{"name":"owner","type":"address","internalType":"address"}]},{"type":"error","name":"ERC721InsufficientApproval","inputs":[{"name":"operator","type":"address","internalType":"address"},{"name":"tokenId","type":"uint256","internalType":"uint256"}]},{"type":"error","name":"ERC721InvalidApprover","inputs":[{"name":"approver","type":"address","internalType":"address"}]},{"type":"error","name":"ERC721InvalidOperator","inputs":[{"name":"operator","type":"address","internalType":"address"}]},{"type":"error","name":"ERC721InvalidOwner","inputs":[{"name":"owner","type":"address","internalType":"address"}]},{"type":"error","name":"ERC721InvalidReceiver","inputs":[{"name":"receiver","type":"address","internalType":"address"}]},{"type":"error","name":"ERC721InvalidSender","inputs":[{"name":"sender","type":"address","internalType":"address"}]},{"type":"error","name":"ERC721NonexistentToken","inputs":[{"name":"tokenId","type":"uint256","internalType":"uint256"}]},{"type":"error","name":"InvalidInitialization","inputs":[]},{"type":"error","name":"NotInitializing","inputs":[]},{"type":"error","name":"OwnableInvalidOwner","inputs":[{"name":"owner","type":"address","internalType":"address"}]},{"type":"error","name":"OwnableUnauthorizedAccount","inputs":[{"name":"account","type":"address","internalType":"address"}]}],"bytecode":{"object":"0x6080604052348015600e575f5ffd5b50612fd48061001c5f395ff3fe608060405234801561000f575f5ffd5b50600436106101dc575f3560e01c80636e9b992511610109578063a22cb4651161009e578063d67f98b61161006e578063d67f98b614610488578063e985e9c51461049b578063f2fde38b146104ae578063f7c618c1146104c1575f5ffd5b8063a22cb4651461043c578063b86e321c1461044f578063b88d4fde14610462578063c87b56dd14610475575f5ffd5b8063832c8bc6116100d9578063832c8bc6146103e45780638da5cb5b1461040457806391469fbe1461040c57806395d89b4114610434575f5ffd5b80636e9b9925146103a357806370a08231146103b6578063715018a6146103c95780637db4e28f146103d1575f5ffd5b806323b872dd1161017f57806342842e0e1161014f57806342842e0e14610357578063485cc9551461036a5780634a85120c1461037d5780636352211e14610390575f5ffd5b806323b872dd146102e157806329071254146102f45780632fb7e0991461031c578063343020a514610344575f5ffd5b8063081812fc116101ba578063081812fc14610253578063095ea7b31461027e5780630d08e181146102935780631bdd4b74146102bb575f5ffd5b806301ffc9a7146101e057806306fdde031461020857806307feb3091461021d575b5f5ffd5b6101f36101ee36600461275a565b6104d3565b60405190151581526020015b60405180910390f35b610210610524565b6040516101ff91906127a3565b61024561022b3660046127d0565b6001600160a01b03165f9081526004602052604090205490565b6040519081526020016101ff565b6102666102613660046127e9565b6105c5565b6040516001600160a01b0390911681526020016101ff565b61029161028c366004612800565b6105d9565b005b6102456102a13660046127d0565b6001600160a01b03165f9081526002602052604090205490565b6102ce6102c93660046127e9565b6105e8565b6040516101ff9796959493929190612828565b6102916102ef3660046128a6565b61073e565b6102666103023660046127e9565b5f908152600760205260409020546001600160a01b031690565b61024561032a3660046127d0565b6001600160a01b03165f9081526005602052604090205490565b610291610352366004612985565b6107cc565b6102916103653660046128a6565b6109e9565b6102916103783660046129d1565b610a08565b61024561038b366004612a33565b610c1f565b61026661039e3660046127e9565b611035565b6102916103b1366004612800565b61103f565b6102456103c43660046127d0565b6113f7565b61029161144f565b6102916103df366004612800565b611462565b6103f76103f23660046127e9565b611648565b6040516101ff9190612b0c565b610266611784565b61024561041a3660046127d0565b6001600160a01b03165f9081526003602052604090205490565b6102106117b2565b61029161044a366004612b27565b6117f0565b61029161045d3660046127d0565b6117fb565b610291610470366004612b5c565b611a10565b6102106104833660046127e9565b611a28565b610245610496366004612bc0565b611a8d565b6101f36104a93660046129d1565b611ad1565b6102916104bc3660046127d0565b611b1d565b5f54610266906001600160a01b031681565b5f6001600160e01b031982166380ac58cd60e01b148061050357506001600160e01b03198216635b5e139f60e01b145b8061051e57506301ffc9a760e01b6001600160e01b03198316145b92915050565b5f516020612f5b5f395f51905f52805460609190819061054390612c3a565b80601f016020809104026020016040519081016040528092919081815260200182805461056f90612c3a565b80156105ba5780601f10610591576101008083540402835291602001916105ba565b820191905f5260205f20905b81548152906001019060200180831161059d57829003601f168201915b505050505091505090565b5f6105cf82611b5a565b5061051e82611b91565b6105e4828233611bca565b5050565b5f60605f5f5f5f5f5f60065f8a81526020019081526020015f20604051806101200160405290815f82015481526020016001820180548060200260200160405190810160405280929190818152602001828054801561066457602002820191905f5260205f20905b815481526020019060010190808311610650575b5050509183525050600282015460208201526003820154604082015260048201546060820152600582015460809091019060ff1660018111156106a9576106a9612ae4565b60018111156106ba576106ba612ae4565b81526005919091015463ffffffff6101008083049190911660208085019190915260ff600160281b84048116604080870191909152600160301b909404811615156060958601528551918601519386015194860151608087015160e08801519790940151929e50939c50939a50919850965091169350915050919395979092949650565b6001600160a01b03821661076c57604051633250574960e11b81525f60048201526024015b60405180910390fd5b5f610778838333611bd7565b9050836001600160a01b0316816001600160a01b0316146107c6576040516364283d7b60e01b81526001600160a01b0380861660048301526024820184905282166044820152606401610763565b50505050565b6107d4611cd9565b5f6107de84611648565b60028111156107ef576107ef612ae4565b146108355760405162461bcd60e51b815260206004820152601660248201527518da185b1b195b99d9481a5cc818dbdb5c1b195d195960521b6044820152606401610763565b61084861084184611035565b8383611d0b565b6108885760405162461bcd60e51b8152602060048201526011602482015270496e76616c6964207369676e617475726560781b6044820152606401610763565b5f5b5f84815260066020526040902060010154811015610925575f8481526006602052604090206001018054849190839081106108c7576108c7612c72565b905f5260205f2001540361091d5760405162461bcd60e51b815260206004820152601a60248201527f416374697669747920616c7265616479207375626d69747465640000000000006044820152606401610763565b60010161088a565b505f8381526006602090815260408220600190810180549182018155835291200182905561095283611035565b6001600160a01b0316837f04e795b277c586184b86dd1444bf0ff4f9b20068da2a6345c599fe509ba1b87f60065f8781526020019081526020015f205f0154856040516109a9929190918252602082015260400190565b60405180910390a36040518381527ff8e1a15aba9398e019f0b49df1a4fde98ee17ae345cb5f6b5e2c27f5033e8ce79060200160405180910390a1505050565b610a0383838360405180602001604052805f815250611a10565b505050565b7ff0c57e16840df040f15088dc2f81fe391c3923bec73e23a9662efc9c229c6a008054600160401b810460ff16159067ffffffffffffffff165f81158015610a4d5750825b90505f8267ffffffffffffffff166001148015610a695750303b155b905081158015610a77575080155b15610a955760405163f92ee8a960e01b815260040160405180910390fd5b845467ffffffffffffffff191660011785558315610abf57845460ff60401b1916600160401b1785555b6001600160a01b038716610b0d5760405162461bcd60e51b8152602060048201526015602482015274496e76616c696420746f6b656e206164647265737360581b6044820152606401610763565b6001600160a01b038616610b635760405162461bcd60e51b815260206004820152601860248201527f496e76616c6964206f70657261746f72206164647265737300000000000000006044820152606401610763565b5f80546001600160a01b0319166001600160a01b03891617905560018055610b8a86611d60565b610bd0604051806040016040528060068152602001654f47554f475560d01b815250604051806040016040528060068152602001654f47554f475560d01b815250611d71565b8315610c1657845460ff60401b19168555604051600181527fc7f505b2f371ae2175ee4913f4499e1f2633a7b5936321eed1cdaeb6115181d29060200160405180910390a15b50505050505050565b5f5f8811610c605760405162461bcd60e51b815260206004820152600e60248201526d125b9d985b1a59081c995dd85c9960921b6044820152606401610763565b838510610ca45760405162461bcd60e51b8152602060048201526012602482015271496e76616c6964207374617274206461746560701b6044820152606401610763565b834210610ce65760405162461bcd60e51b815260206004820152601060248201526f496e76616c696420656e64206461746560801b6044820152606401610763565b5f8260ff1611610d385760405162461bcd60e51b815260206004820152601e60248201527f496e76616c6964206d696e696d756d20616374697669747920636f756e7400006044820152606401610763565b5f610d498a8a8a338a8a8a8a611a8d565b5f818152600760205260409020549091506001600160a01b031615610db05760405162461bcd60e51b815260206004820152601860248201527f4368616c6c656e676520616c72656164792065786973747300000000000000006044820152606401610763565b610dc2610dbb611784565b8289611d0b565b610e025760405162461bcd60e51b8152602060048201526011602482015270496e76616c6964207369676e617475726560781b6044820152606401610763565b5f81815260076020908152604080832080546001600160a01b031916339081179091558352600380835281842080548e0190819055600284529190932054929091521115610e895760405162461bcd60e51b8152602060048201526014602482015273496e73756666696369656e742062616c616e636560601b6044820152606401610763565b604080516101208101825282815281515f8152602080820184528201529081018a9052606081018790526080810186905260a08101896001811115610ed057610ed0612ae4565b815263ffffffff861660208083019190915260ff86166040808401919091525f6060909301839052600180548452600683529220835181558382015180519193610f2093908501929101906126e8565b5060408201516002820155606082015160038201556080820151600482015560a082015160058201805460ff191660018381811115610f6157610f61612ae4565b021790555060c08201516005909101805460e0840151610100948501511515600160301b0266ff0000000000001960ff909216600160281b0265ff00000000001963ffffffff9096169096029490941665ffffffffff0019909216919091179390931792909216179055600154610fd9903390611d83565b6001546040518281523391907feac6e327176e3b77d65d71ae889f4dc718d3cc814cfdfcb18da967415fc542239060200160405180910390a360018054905f61102183612c9a565b919050559150505b98975050505050505050565b5f61051e82611b5a565b5f61104982611035565b9050336001600160a01b0382161461105f578092505b5f61106983611648565b90505f60065f8581526020019081526020015f20604051806101200160405290815f8201548152602001600182018054806020026020016040519081016040528092919081815260200182805480156110df57602002820191905f5260205f20905b8154815260200190600101908083116110cb575b5050509183525050600282015460208201526003820154604082015260048201546060820152600582015460809091019060ff16600181111561112457611124612ae4565b600181111561113557611135612ae4565b81526005919091015463ffffffff610100820416602083015260ff600160281b820481166040840152600160301b90910416151560609091015290505f82600281111561118457611184612ae4565b036111d15760405162461bcd60e51b815260206004820152601760248201527f4368616c6c656e6765206973206e6f7420636c6f7365640000000000000000006044820152606401610763565b806101000151156112245760405162461bcd60e51b815260206004820152601b60248201527f4368616c6c656e676520697320616c726561647920636c6f73656400000000006044820152606401610763565b5f848152600660209081526040808320600501805466ff0000000000001916600160301b179055838101516001600160a01b038716845260039092528220805491929091611273908490612cb2565b909155505f9050600183600281111561128e5761128e612ae4565b03611348576112a08260400151611d9c565b5f5460405163a9059cbb60e01b81526001600160a01b0389811660048301526024820184905292935091169063a9059cbb906044016020604051808303815f875af11580156112f1573d5f5f3e3d5ffd5b505050506040513d601f19601f820116820180604052508101906113159190612cc5565b506001600160a01b0384165f908152600260205260408120805483929061133d908490612cb2565b909155506113789050565b6001600160a01b0384165f908152600460205260408120805462093a809290611372908490612ce0565b90915550505b836001600160a01b0316857f4a6c71421a36589a138e810099781dc08801db5ef0a3e6d9c3d4ccc16de42feb85846040516113b4929190612cf3565b60405180910390a36040518581527ff8e1a15aba9398e019f0b49df1a4fde98ee17ae345cb5f6b5e2c27f5033e8ce79060200160405180910390a1505050505050565b5f5f516020612f5b5f395f51905f526001600160a01b03831661142f576040516322718ad960e21b81525f6004820152602401610763565b6001600160a01b039092165f908152600390920160205250604090205490565b611457611cd9565b6114605f611dbb565b565b6001600160a01b0382166114b85760405162461bcd60e51b815260206004820152601a60248201527f496e76616c6964206368616c6c656e67657220616464726573730000000000006044820152606401610763565b5f81116114f85760405162461bcd60e51b815260206004820152600e60248201526d125b9d985b1a5908185b5bdd5b9d60921b6044820152606401610763565b5f546040516323b872dd60e01b8152336004820152306024820152604481018390526001600160a01b03909116906323b872dd906064016020604051808303815f875af115801561154b573d5f5f3e3d5ffd5b505050506040513d601f19601f8201168201806040525081019061156f9190612cc5565b6115ad5760405162461bcd60e51b815260206004820152600f60248201526e151c985b9cd9995c8819985a5b1959608a1b6044820152606401610763565b6001600160a01b0382165f81815260026020908152604080832080548601905560059091529020805483019055339003611601576001600160a01b0382165f9081526004602052604090206224ea00420190555b816001600160a01b03167f4f7fd5c9e17300a4800fd572ea53fc291e2ee7470d73346d16b357faee4e72108260405161163c91815260200190565b60405180910390a25050565b5f818152600660209081526040808320815161012081018352815481526001820180548451818702810187019095528085528695929485840193909291908301828280156116b357602002820191905f5260205f20905b81548152602001906001019080831161169f575b5050509183525050600282015460208201526003820154604082015260048201546060820152600582015460809091019060ff1660018111156116f8576116f8612ae4565b600181111561170957611709612ae4565b81526005919091015463ffffffff61010082041660208084019190915260ff600160281b830481166040850152600160301b9092048216151560609093019290925260e0830151918301515192935016116117675750600192915050565b428160800151101561177c5750600292915050565b505f92915050565b7f9016d09d72d40fdae2fd8ceac6b6234c7706214fd39c1cd1e609a0528c199300546001600160a01b031690565b7f80bb2b638cc20bc4d0a60d66940f3ab4a00c1d7b313497ca82fb0b4ab007930180546060915f516020612f5b5f395f51905f529161054390612c3a565b6105e4338383611e2b565b336001600160a01b0382166118525760405162461bcd60e51b815260206004820152601860248201527f496e76616c6964207265636569766572206164647265737300000000000000006044820152606401610763565b6001600160a01b0381165f90815260036020908152604080832054600290925282205461187f9190612cb2565b90505f81116118c15760405162461bcd60e51b815260206004820152600e60248201526d125b9d985b1a5908185b5bdd5b9d60921b6044820152606401610763565b6001600160a01b0382165f908152600460205260409020544210156119285760405162461bcd60e51b815260206004820152601c60248201527f5769746864726177616c206e6f742079657420617661696c61626c65000000006044820152606401610763565b6001600160a01b0382165f908152600260205260408120805483929061194f908490612cb2565b90915550505f5460405163a9059cbb60e01b81526001600160a01b038581166004830152602482018490529091169063a9059cbb906044016020604051808303815f875af11580156119a3573d5f5f3e3d5ffd5b505050506040513d601f19601f820116820180604052508101906119c79190612cc5565b50816001600160a01b03167fbc84835063c693975166f00cffb19f01a94c2db55b1bf259238c5da3594e506682604051611a0391815260200190565b60405180910390a2505050565b611a1b84848461073e565b6107c63385858585611eda565b6060611a3382611b5a565b505f611a3d612002565b90505f815111611a5b5760405180602001604052805f815250611a86565b80611a6584612022565b604051602001611a76929190612d25565b6040516020818303038152906040525b9392505050565b5f8888888888888888604051602001611aad989796959493929190612d39565b60405160208183030381529060405280519060200120905098975050505050505050565b6001600160a01b039182165f9081527f80bb2b638cc20bc4d0a60d66940f3ab4a00c1d7b313497ca82fb0b4ab00793056020908152604080832093909416825291909152205460ff1690565b611b25611cd9565b6001600160a01b038116611b4e57604051631e4fbdf760e01b81525f6004820152602401610763565b611b5781611dbb565b50565b5f5f611b65836120b2565b90506001600160a01b03811661051e57604051637e27328960e01b815260048101849052602401610763565b5f9081527f80bb2b638cc20bc4d0a60d66940f3ab4a00c1d7b313497ca82fb0b4ab007930460205260409020546001600160a01b031690565b610a0383838360016120eb565b5f5f516020612f5b5f395f51905f5281611bf0856120b2565b90506001600160a01b03841615611c0c57611c0c8185876121fe565b6001600160a01b03811615611c4857611c275f865f5f6120eb565b6001600160a01b0381165f908152600383016020526040902080545f190190555b6001600160a01b03861615611c78576001600160a01b0386165f9081526003830160205260409020805460010190555b5f85815260028301602052604080822080546001600160a01b0319166001600160a01b038a811691821790925591518893918516917fddf252ad1be2c89b69c2b068fc378daa952ba7f163c4a11628f55a4df523b3ef91a495945050505050565b33611ce2611784565b6001600160a01b0316146114605760405163118cdaa760e01b8152336004820152602401610763565b7f19457468657265756d205369676e6564204d6573736167653a0a3332000000005f908152601c839052603c81206001600160a01b038516611d4d8285612262565b6001600160a01b03161495945050505050565b611d6861228a565b611b57816122d3565b611d7961228a565b6105e482826122db565b6105e4828260405180602001604052805f81525061230b565b5f6064611da7612322565b611db19084612dba565b61051e9190612de5565b7f9016d09d72d40fdae2fd8ceac6b6234c7706214fd39c1cd1e609a0528c19930080546001600160a01b031981166001600160a01b03848116918217845560405192169182907f8be0079c531659141344cd1fd0a4f28419497f9722a3daafe3b4186f6b6457e0905f90a3505050565b5f516020612f5b5f395f51905f526001600160a01b038316611e6b57604051630b61174360e31b81526001600160a01b0384166004820152602401610763565b6001600160a01b038481165f818152600584016020908152604080832094881680845294825291829020805460ff191687151590811790915591519182527f17307eab39ab6107e8899845ad3d59bd9653f200f220920489ca2b5937696c31910160405180910390a350505050565b6001600160a01b0383163b15611ffb57604051630a85bd0160e11b81526001600160a01b0384169063150b7a0290611f1c908890889087908790600401612e04565b6020604051808303815f875af1925050508015611f56575060408051601f3d908101601f19168201909252611f5391810190612e40565b60015b611fbd573d808015611f83576040519150601f19603f3d011682016040523d82523d5f602084013e611f88565b606091505b5080515f03611fb557604051633250574960e11b81526001600160a01b0385166004820152602401610763565b805181602001fd5b6001600160e01b03198116630a85bd0160e11b14611ff957604051633250574960e11b81526001600160a01b0385166004820152602401610763565b505b5050505050565b6060604051806060016040528060248152602001612f7b60249139905090565b60605f61202e83612382565b60010190505f8167ffffffffffffffff81111561204d5761204d6128e0565b6040519080825280601f01601f191660200182016040528015612077576020820181803683370190505b5090508181016020015b5f19016f181899199a1a9b1b9c1cb0b131b232b360811b600a86061a8153600a850494508461208157509392505050565b5f9081527f80bb2b638cc20bc4d0a60d66940f3ab4a00c1d7b313497ca82fb0b4ab007930260205260409020546001600160a01b031690565b5f516020612f5b5f395f51905f52818061210d57506001600160a01b03831615155b156121ce575f61211c85611b5a565b90506001600160a01b038416158015906121485750836001600160a01b0316816001600160a01b031614155b801561215b57506121598185611ad1565b155b156121845760405163a9fbf51f60e01b81526001600160a01b0385166004820152602401610763565b82156121cc5784866001600160a01b0316826001600160a01b03167f8c5be1e5ebec7d5bd14f71427d1e84f3dd0314c0f7b2291e5b200ac8c7c3b92560405160405180910390a45b505b5f93845260040160205250506040902080546001600160a01b0319166001600160a01b0392909216919091179055565b612209838383612459565b610a03576001600160a01b03831661223757604051637e27328960e01b815260048101829052602401610763565b60405163177e802f60e01b81526001600160a01b038316600482015260248101829052604401610763565b5f5f5f5f61227086866124be565b9250925092506122808282612507565b5090949350505050565b7ff0c57e16840df040f15088dc2f81fe391c3923bec73e23a9662efc9c229c6a0054600160401b900460ff1661146057604051631afcd79f60e31b815260040160405180910390fd5b611b2561228a565b6122e361228a565b5f516020612f5b5f395f51905f52806122fc8482612e9f565b50600181016107c68382612e9f565b61231583836125bf565b610a03335f858585611eda565b5f606460014303404160405160200161235792919091825260601b6bffffffffffffffffffffffff1916602082015260340190565b604051602081830303815290604052805190602001205f1c8161237c5761237c612dd1565b06905090565b5f8072184f03e93ff9f4daa797ed6e38ed64bf6a1f0160401b83106123c05772184f03e93ff9f4daa797ed6e38ed64bf6a1f0160401b830492506040015b6d04ee2d6d415b85acef810000000083106123ec576d04ee2d6d415b85acef8100000000830492506020015b662386f26fc10000831061240a57662386f26fc10000830492506010015b6305f5e1008310612422576305f5e100830492506008015b612710831061243657612710830492506004015b60648310612448576064830492506002015b600a831061051e5760010192915050565b5f6001600160a01b038316158015906124b65750826001600160a01b0316846001600160a01b0316148061249257506124928484611ad1565b806124b65750826001600160a01b03166124ab83611b91565b6001600160a01b0316145b949350505050565b5f5f5f83516041036124f5576020840151604085015160608601515f1a6124e788828585612620565b955095509550505050612500565b505081515f91506002905b9250925092565b5f82600381111561251a5761251a612ae4565b03612523575050565b600182600381111561253757612537612ae4565b036125555760405163f645eedf60e01b815260040160405180910390fd5b600282600381111561256957612569612ae4565b0361258a5760405163fce698f760e01b815260048101829052602401610763565b600382600381111561259e5761259e612ae4565b036105e4576040516335e2f38360e21b815260048101829052602401610763565b6001600160a01b0382166125e857604051633250574960e11b81525f6004820152602401610763565b5f6125f483835f611bd7565b90506001600160a01b03811615610a03576040516339e3563760e11b81525f6004820152602401610763565b5f80807f7fffffffffffffffffffffffffffffff5d576e7357a4501ddfe92f46681b20a084111561265957505f915060039050826126de565b604080515f808252602082018084528a905260ff891692820192909252606081018790526080810186905260019060a0016020604051602081039080840390855afa1580156126aa573d5f5f3e3d5ffd5b5050604051601f1901519150506001600160a01b0381166126d557505f9250600191508290506126de565b92505f91508190505b9450945094915050565b828054828255905f5260205f20908101928215612721579160200282015b82811115612721578251825591602001919060010190612706565b5061272d929150612731565b5090565b5b8082111561272d575f8155600101612732565b6001600160e01b031981168114611b57575f5ffd5b5f6020828403121561276a575f5ffd5b8135611a8681612745565b5f81518084528060208401602086015e5f602082860101526020601f19601f83011685010191505092915050565b602081525f611a866020830184612775565b80356001600160a01b03811681146127cb575f5ffd5b919050565b5f602082840312156127e0575f5ffd5b611a86826127b5565b5f602082840312156127f9575f5ffd5b5035919050565b5f5f60408385031215612811575f5ffd5b61281a836127b5565b946020939093013593505050565b5f60e0820189835260e060208401528089518083526101008501915060208b0192505f5b8181101561286a57835183526020938401939092019160010161284c565b5050809250505086604083015285606083015284608083015261289960a083018567ffffffffffffffff169052565b82151560c0830152611029565b5f5f5f606084860312156128b8575f5ffd5b6128c1846127b5565b92506128cf602085016127b5565b929592945050506040919091013590565b634e487b7160e01b5f52604160045260245ffd5b5f82601f830112612903575f5ffd5b8135602083015f5f67ffffffffffffffff841115612923576129236128e0565b50604051601f19601f85018116603f0116810181811067ffffffffffffffff82111715612952576129526128e0565b604052838152905080828401871015612969575f5ffd5b838360208301375f602085830101528094505050505092915050565b5f5f5f60608486031215612997575f5ffd5b8335925060208401359150604084013567ffffffffffffffff8111156129bb575f5ffd5b6129c7868287016128f4565b9150509250925092565b5f5f604083850312156129e2575f5ffd5b6129eb836127b5565b91506129f9602084016127b5565b90509250929050565b8035600281106127cb575f5ffd5b803563ffffffff811681146127cb575f5ffd5b803560ff811681146127cb575f5ffd5b5f5f5f5f5f5f5f5f610100898b031215612a4b575f5ffd5b883567ffffffffffffffff811115612a61575f5ffd5b612a6d8b828c016128f4565b98505060208901359650612a8360408a01612a02565b9550606089013567ffffffffffffffff811115612a9e575f5ffd5b612aaa8b828c016128f4565b9550506080890135935060a08901359250612ac760c08a01612a10565b9150612ad560e08a01612a23565b90509295985092959890939650565b634e487b7160e01b5f52602160045260245ffd5b60038110612b0857612b08612ae4565b9052565b6020810161051e8284612af8565b8015158114611b57575f5ffd5b5f5f60408385031215612b38575f5ffd5b612b41836127b5565b91506020830135612b5181612b1a565b809150509250929050565b5f5f5f5f60808587031215612b6f575f5ffd5b612b78856127b5565b9350612b86602086016127b5565b925060408501359150606085013567ffffffffffffffff811115612ba8575f5ffd5b612bb4878288016128f4565b91505092959194509250565b5f5f5f5f5f5f5f5f610100898b031215612bd8575f5ffd5b883567ffffffffffffffff811115612bee575f5ffd5b612bfa8b828c016128f4565b98505060208901359650612c1060408a01612a02565b9550612c1e60608a016127b5565b94506080890135935060a08901359250612ac760c08a01612a10565b600181811c90821680612c4e57607f821691505b602082108103612c6c57634e487b7160e01b5f52602260045260245ffd5b50919050565b634e487b7160e01b5f52603260045260245ffd5b634e487b7160e01b5f52601160045260245ffd5b5f60018201612cab57612cab612c86565b5060010190565b8181038181111561051e5761051e612c86565b5f60208284031215612cd5575f5ffd5b8151611a8681612b1a565b8082018082111561051e5761051e612c86565b60408101612d018285612af8565b8260208301529392505050565b5f81518060208401855e5f93019283525090919050565b5f6124b6612d338386612d0e565b84612d0e565b5f612d44828b612d0e565b89815260028910612d5757612d57612ae4565b60f898891b602082015260609790971b6bffffffffffffffffffffffff1916602188015250506035850193909352605584019190915260e01b6001600160e01b031916607583015290911b6001600160f81b0319166079820152607a0192915050565b808202811582820484141761051e5761051e612c86565b634e487b7160e01b5f52601260045260245ffd5b5f82612dff57634e487b7160e01b5f52601260045260245ffd5b500490565b6001600160a01b03858116825284166020820152604081018390526080606082018190525f90612e3690830184612775565b9695505050505050565b5f60208284031215612e50575f5ffd5b8151611a8681612745565b601f821115610a0357805f5260205f20601f840160051c81016020851015612e805750805b601f840160051c820191505b81811015611ffb575f8155600101612e8c565b815167ffffffffffffffff811115612eb957612eb96128e0565b612ecd81612ec78454612c3a565b84612e5b565b6020601f821160018114612eff575f8315612ee85750848201515b5f19600385901b1c1916600184901b178455611ffb565b5f84815260208120601f198516915b82811015612f2e5787850151825560209485019460019092019101612f0e565b5084821015612f4b57868401515f19600387901b60f8161c191681555b50505050600190811b0190555056fe80bb2b638cc20bc4d0a60d66940f3ab4a00c1d7b313497ca82fb0b4ab007930068747470733a2f2f6173736574732e6f67756f67752e6d652f6368616c6c656e6765732fa2646970667358221220881fdc32b654b27f37820434490a01a9b3f68977636994df4cc41b27614dd8ca64736f6c634300081c0033","linkReferences":{}},"methodIdentifiers":{"approve(address,uint256)":"095ea7b3","balanceOf(address)":"70a08231","calculateChallengeHash(string,uint256,uint8,address,uint256,uint256,uint32,uint8)":"d67f98b6","challengeHashes(bytes32)":"29071254","completeChallenge(address,uint256)":"6e9b9925","createChallenge(string,uint256,uint8,bytes,uint256,uint256,uint32,uint8)":"4a85120c","depositReward(address,uint256)":"7db4e28f","getApproved(uint256)":"081812fc","getChallenge(uint256)":"1bdd4b74","getChallengeStatus(uint256)":"832c8bc6","initialize(address,address)":"485cc955","isApprovedForAll(address,address)":"e985e9c5","name()":"06fdde03","owner()":"8da5cb5b","ownerOf(uint256)":"6352211e","renounceOwnership()":"715018a6","rewardToken()":"f7c618c1","safeTransferFrom(address,address,uint256)":"42842e0e","safeTransferFrom(address,address,uint256,bytes)":"b88d4fde","setApprovalForAll(address,bool)":"a22cb465","submitActivity(uint256,bytes32,bytes)":"343020a5","supportsInterface(bytes4)":"01ffc9a7","symbol()":"95d89b41","tokenURI(uint256)":"c87b56dd","transferFrom(address,address,uint256)":"23b872dd","transferOwnership(address)":"f2fde38b","userAccumulatedReserves(address)":"2fb7e099","userAllocatedRewards(address)":"91469fbe","userReserves(address)":"0d08e181","withdrawReward(address)":"b86e321c","withdrawableUnlockTime(address)":"07feb309"},"storageLayout":{"storage":[{"astId":49340,"contract":"src/Oguogu.sol:OGUOGU","label":"rewardToken","offset":0,"slot":"0","type":"t_contract(IERC20)43429"},{"astId":49342,"contract":"src/Oguogu.sol:OGUOGU","label":"_challengeId","offset":0,"slot":"1","type":"t_uint256"},{"astId":49346,"contract":"src/Oguogu.sol:OGUOGU","label":"_userReserves","offset":0,"slot":"2","type":"t_mapping(t_address,t_uint256)"},{"astId":49350,"contract":"src/Oguogu.sol:OGUOGU","label":"_userAllocatedRewards","offset":0,"slot":"3","type":"t_mapping(t_address,t_uint256)"},{"astId":49354,"contract":"src/Oguogu.sol:OGUOGU","label":"_withdrawableUnlockTime","offset":0,"slot":"4","type":"t_mapping(t_address,t_uint256)"},{"astId":49358,"contract":"src/Oguogu.sol:OGUOGU","label":"_userAccumulatedReserves","offset":0,"slot":"5","type":"t_mapping(t_address,t_uint256)"},{"astId":49363,"contract":"src/Oguogu.sol:OGUOGU","label":"_challenges","offset":0,"slot":"6","type":"t_mapping(t_uint256,t_struct(Challenge)49391_storage)"},{"astId":49367,"contract":"src/Oguogu.sol:OGUOGU","label":"_challengeHashes","offset":0,"slot":"7","type":"t_mapping(t_bytes32,t_address)"}],"types":{"t_address":{"encoding":"inplace","label":"address","numberOfBytes":"20"},"t_array(t_bytes32)dyn_storage":{"encoding":"dynamic_array","label":"bytes32[]","numberOfBytes":"32","base":"t_bytes32"},"t_bool":{"encoding":"inplace","label":"bool","numberOfBytes":"1"},"t_bytes32":{"encoding":"inplace","label":"bytes32","numberOfBytes":"32"},"t_contract(IERC20)43429":{"encoding":"inplace","label":"contract IERC20","numberOfBytes":"20"},"t_enum(ChallengeType)49370":{"encoding":"inplace","label":"enum OGUOGU.ChallengeType","numberOfBytes":"1"},"t_mapping(t_address,t_uint256)":{"encoding":"mapping","key":"t_address","label":"mapping(address => uint256)","numberOfBytes":"32","value":"t_uint256"},"t_mapping(t_bytes32,t_address)":{"encoding":"mapping","key":"t_bytes32","label":"mapping(bytes32 => address)","numberOfBytes":"32","value":"t_address"},"t_mapping(t_uint256,t_struct(Challenge)49391_storage)":{"encoding":"mapping","key":"t_uint256","label":"mapping(uint256 => struct OGUOGU.Challenge)","numberOfBytes":"32","value":"t_struct(Challenge)49391_storage"},"t_struct(Challenge)49391_storage":{"encoding":"inplace","label":"struct OGUOGU.Challenge","numberOfBytes":"192","members":[{"astId":49372,"contract":"src/Oguogu.sol:OGUOGU","label":"challengeHash","offset":0,"slot":"0","type":"t_bytes32"},{"astId":49375,"contract":"src/Oguogu.sol:OGUOGU","label":"activityHashes","offset":0,"slot":"1","type":"t_array(t_bytes32)dyn_storage"},{"astId":49377,"contract":"src/Oguogu.sol:OGUOGU","label":"reward","offset":0,"slot":"2","type":"t_uint256"},{"astId":49379,"contract":"src/Oguogu.sol:OGUOGU","label":"startDate","offset":0,"slot":"3","type":"t_uint256"},{"astId":49381,"contract":"src/Oguogu.sol:OGUOGU","label":"endDate","offset":0,"slot":"4","type":"t_uint256"},{"astId":49384,"contract":"src/Oguogu.sol:OGUOGU","label":"challengeType","offset":0,"slot":"5","type":"t_enum(ChallengeType)49370"},{"astId":49386,"contract":"src/Oguogu.sol:OGUOGU","label":"nonce","offset":1,"slot":"5","type":"t_uint32"},{"astId":49388,"contract":"src/Oguogu.sol:OGUOGU","label":"minimumActivityCount","offset":5,"slot":"5","type":"t_uint8"},{"astId":49390,"contract":"src/Oguogu.sol:OGUOGU","label":"isClosed","offset":6,"slot":"5","type":"t_bool"}]},"t_uint256":{"encoding":"inplace","label":"uint256","numberOfBytes":"32"},"t_uint32":{"encoding":"inplace","label":"uint32","numberOfBytes":"4"},"t_uint8":{"encoding":"inplace","label":"uint8","numberOfBytes":"1"}}},"id":66}