{"abi":[{"type":"function","name":"approve","inputs":[{"name":"to","type":"address","internalType":"address"},{"name":"tokenId","type":"uint256","internalType":"uint256"}],"outputs":[],"stateMutability":"nonpayable"},{"type":"function","name":"balanceOf","inputs":[{"name":"owner","type":"address","internalType":"address"}],"outputs":[{"name":"","type":"uint256","internalType":"uint256"}],"stateMutability":"view"},{"type":"function","name":"challengeHashes","inputs":[{"name":"","type":"bytes32","internalType":"bytes32"}],"outputs":[{"name":"","type":"address","internalType":"address"}],"stateMutability":"view"},{"type":"function","name":"completeChallenge","inputs":[{"name":"tokenId","type":"uint256","internalType":"uint256"}],"outputs":[],"stateMutability":"nonpayable"},{"type":"function","name":"createChallenge","inputs":[{"name":"reward","type":"uint256","internalType":"uint256"},{"name":"challengeHash","type":"bytes32","internalType":"bytes32"},{"name":"challengeSignature","type":"bytes","internalType":"bytes"},{"name":"dueDate","type":"uint256","internalType":"uint256"},{"name":"minimumProofCount","type":"uint64","internalType":"uint64"},{"name":"receipent","type":"address","internalType":"address"}],"outputs":[{"name":"","type":"uint256","internalType":"uint256"}],"stateMutability":"nonpayable"},{"type":"function","name":"depositReward","inputs":[{"name":"challenger","type":"address","internalType":"address"},{"name":"amount","type":"uint256","internalType":"uint256"}],"outputs":[],"stateMutability":"nonpayable"},{"type":"function","name":"getApproved","inputs":[{"name":"tokenId","type":"uint256","internalType":"uint256"}],"outputs":[{"name":"","type":"address","internalType":"address"}],"stateMutability":"view"},{"type":"function","name":"getChallenge","inputs":[{"name":"tokenId","type":"uint256","internalType":"uint256"}],"outputs":[{"name":"","type":"uint256","internalType":"uint256"},{"name":"","type":"bytes32","internalType":"bytes32"},{"name":"","type":"uint256","internalType":"uint256"},{"name":"","type":"uint64","internalType":"uint64"},{"name":"","type":"address","internalType":"address"},{"name":"","type":"bytes32[]","internalType":"bytes32[]"},{"name":"","type":"bool","internalType":"bool"}],"stateMutability":"view"},{"type":"function","name":"getChallengeStatus","inputs":[{"name":"tokenId","type":"uint256","internalType":"uint256"}],"outputs":[{"name":"","type":"uint8","internalType":"enum OGUOGU.ChallengeStatus"}],"stateMutability":"view"},{"type":"function","name":"initialize","inputs":[{"name":"_rewardToken","type":"address","internalType":"address"},{"name":"_operator","type":"address","internalType":"address"}],"outputs":[],"stateMutability":"nonpayable"},{"type":"function","name":"isApprovedForAll","inputs":[{"name":"owner","type":"address","internalType":"address"},{"name":"operator","type":"address","internalType":"address"}],"outputs":[{"name":"","type":"bool","internalType":"bool"}],"stateMutability":"view"},{"type":"function","name":"name","inputs":[],"outputs":[{"name":"","type":"string","internalType":"string"}],"stateMutability":"view"},{"type":"function","name":"owner","inputs":[],"outputs":[{"name":"","type":"address","internalType":"address"}],"stateMutability":"view"},{"type":"function","name":"ownerOf","inputs":[{"name":"tokenId","type":"uint256","internalType":"uint256"}],"outputs":[{"name":"","type":"address","internalType":"address"}],"stateMutability":"view"},{"type":"function","name":"renounceOwnership","inputs":[],"outputs":[],"stateMutability":"nonpayable"},{"type":"function","name":"rewardToken","inputs":[],"outputs":[{"name":"","type":"address","internalType":"contract IERC20"}],"stateMutability":"view"},{"type":"function","name":"safeTransferFrom","inputs":[{"name":"from","type":"address","internalType":"address"},{"name":"to","type":"address","internalType":"address"},{"name":"tokenId","type":"uint256","internalType":"uint256"}],"outputs":[],"stateMutability":"nonpayable"},{"type":"function","name":"safeTransferFrom","inputs":[{"name":"from","type":"address","internalType":"address"},{"name":"to","type":"address","internalType":"address"},{"name":"tokenId","type":"uint256","internalType":"uint256"},{"name":"data","type":"bytes","internalType":"bytes"}],"outputs":[],"stateMutability":"nonpayable"},{"type":"function","name":"setApprovalForAll","inputs":[{"name":"operator","type":"address","internalType":"address"},{"name":"approved","type":"bool","internalType":"bool"}],"outputs":[],"stateMutability":"nonpayable"},{"type":"function","name":"submitProof","inputs":[{"name":"tokenId","type":"uint256","internalType":"uint256"},{"name":"proofHash","type":"bytes32","internalType":"bytes32"},{"name":"proofSignature","type":"bytes","internalType":"bytes"}],"outputs":[],"stateMutability":"nonpayable"},{"type":"function","name":"supportsInterface","inputs":[{"name":"interfaceId","type":"bytes4","internalType":"bytes4"}],"outputs":[{"name":"","type":"bool","internalType":"bool"}],"stateMutability":"view"},{"type":"function","name":"symbol","inputs":[],"outputs":[{"name":"","type":"string","internalType":"string"}],"stateMutability":"view"},{"type":"function","name":"tokenURI","inputs":[{"name":"tokenId","type":"uint256","internalType":"uint256"}],"outputs":[{"name":"","type":"string","internalType":"string"}],"stateMutability":"view"},{"type":"function","name":"transferFrom","inputs":[{"name":"from","type":"address","internalType":"address"},{"name":"to","type":"address","internalType":"address"},{"name":"tokenId","type":"uint256","internalType":"uint256"}],"outputs":[],"stateMutability":"nonpayable"},{"type":"function","name":"transferOwnership","inputs":[{"name":"newOwner","type":"address","internalType":"address"}],"outputs":[],"stateMutability":"nonpayable"},{"type":"function","name":"userAllocatedRewards","inputs":[{"name":"","type":"address","internalType":"address"}],"outputs":[{"name":"","type":"uint256","internalType":"uint256"}],"stateMutability":"view"},{"type":"function","name":"userReserves","inputs":[{"name":"","type":"address","internalType":"address"}],"outputs":[{"name":"","type":"uint256","internalType":"uint256"}],"stateMutability":"view"},{"type":"event","name":"Approval","inputs":[{"name":"owner","type":"address","indexed":true,"internalType":"address"},{"name":"approved","type":"address","indexed":true,"internalType":"address"},{"name":"tokenId","type":"uint256","indexed":true,"internalType":"uint256"}],"anonymous":false},{"type":"event","name":"ApprovalForAll","inputs":[{"name":"owner","type":"address","indexed":true,"internalType":"address"},{"name":"operator","type":"address","indexed":true,"internalType":"address"},{"name":"approved","type":"bool","indexed":false,"internalType":"bool"}],"anonymous":false},{"type":"event","name":"BatchMetadataUpdate","inputs":[{"name":"_fromTokenId","type":"uint256","indexed":false,"internalType":"uint256"},{"name":"_toTokenId","type":"uint256","indexed":false,"internalType":"uint256"}],"anonymous":false},{"type":"event","name":"ChallengeCompleted","inputs":[{"name":"tokenId","type":"uint256","indexed":true,"internalType":"uint256"},{"name":"challenger","type":"address","indexed":true,"internalType":"address"},{"name":"status","type":"uint8","indexed":false,"internalType":"enum OGUOGU.ChallengeStatus"}],"anonymous":false},{"type":"event","name":"ChallengeCreated","inputs":[{"name":"tokenId","type":"uint256","indexed":true,"internalType":"uint256"},{"name":"challenger","type":"address","indexed":true,"internalType":"address"},{"name":"challengeHash","type":"bytes32","indexed":false,"internalType":"bytes32"}],"anonymous":false},{"type":"event","name":"DepositReward","inputs":[{"name":"challenger","type":"address","indexed":true,"internalType":"address"},{"name":"amount","type":"uint256","indexed":false,"internalType":"uint256"}],"anonymous":false},{"type":"event","name":"Initialized","inputs":[{"name":"version","type":"uint64","indexed":false,"internalType":"uint64"}],"anonymous":false},{"type":"event","name":"MetadataUpdate","inputs":[{"name":"_tokenId","type":"uint256","indexed":false,"internalType":"uint256"}],"anonymous":false},{"type":"event","name":"OwnershipTransferred","inputs":[{"name":"previousOwner","type":"address","indexed":true,"internalType":"address"},{"name":"newOwner","type":"address","indexed":true,"internalType":"address"}],"anonymous":false},{"type":"event","name":"SubmitProof","inputs":[{"name":"tokenId","type":"uint256","indexed":true,"internalType":"uint256"},{"name":"challenger","type":"address","indexed":true,"internalType":"address"},{"name":"proofHash","type":"bytes32","indexed":false,"internalType":"bytes32"}],"anonymous":false},{"type":"event","name":"Transfer","inputs":[{"name":"from","type":"address","indexed":true,"internalType":"address"},{"name":"to","type":"address","indexed":true,"internalType":"address"},{"name":"tokenId","type":"uint256","indexed":true,"internalType":"uint256"}],"anonymous":false},{"type":"error","name":"ECDSAInvalidSignature","inputs":[]},{"type":"error","name":"ECDSAInvalidSignatureLength","inputs":[{"name":"length","type":"uint256","internalType":"uint256"}]},{"type":"error","name":"ECDSAInvalidSignatureS","inputs":[{"name":"s","type":"bytes32","internalType":"bytes32"}]},{"type":"error","name":"ERC721IncorrectOwner","inputs":[{"name":"sender","type":"address","internalType":"address"},{"name":"tokenId","type":"uint256","internalType":"uint256"},{"name":"owner","type":"address","internalType":"address"}]},{"type":"error","name":"ERC721InsufficientApproval","inputs":[{"name":"operator","type":"address","internalType":"address"},{"name":"tokenId","type":"uint256","internalType":"uint256"}]},{"type":"error","name":"ERC721InvalidApprover","inputs":[{"name":"approver","type":"address","internalType":"address"}]},{"type":"error","name":"ERC721InvalidOperator","inputs":[{"name":"operator","type":"address","internalType":"address"}]},{"type":"error","name":"ERC721InvalidOwner","inputs":[{"name":"owner","type":"address","internalType":"address"}]},{"type":"error","name":"ERC721InvalidReceiver","inputs":[{"name":"receiver","type":"address","internalType":"address"}]},{"type":"error","name":"ERC721InvalidSender","inputs":[{"name":"sender","type":"address","internalType":"address"}]},{"type":"error","name":"ERC721NonexistentToken","inputs":[{"name":"tokenId","type":"uint256","internalType":"uint256"}]},{"type":"error","name":"InvalidInitialization","inputs":[]},{"type":"error","name":"NotInitializing","inputs":[]},{"type":"error","name":"OwnableInvalidOwner","inputs":[{"name":"owner","type":"address","internalType":"address"}]},{"type":"error","name":"OwnableUnauthorizedAccount","inputs":[{"name":"account","type":"address","internalType":"address"}]}],"bytecode":{"object":"0x6080604052348015600e575f5ffd5b5061291c8061001c5f395ff3fe608060405234801561000f575f5ffd5b50600436106101a1575f3560e01c8063715018a6116100f3578063a7817bbc11610093578063cb345eca1161006e578063cb345eca146103c5578063e985e9c5146103d8578063f2fde38b146103eb578063f7c618c1146103fe575f5ffd5b8063a7817bbc1461038c578063b88d4fde1461039f578063c87b56dd146103b2575f5ffd5b80638da5cb5b116100ce5780638da5cb5b1461034a57806391469fbe1461035257806395d89b4114610371578063a22cb46514610379575f5ffd5b8063715018a61461030f5780637db4e28f14610317578063832c8bc61461032a575f5ffd5b806323b872dd1161015e57806342842e0e1161013957806342842e0e146102c3578063485cc955146102d65780636352211e146102e957806370a08231146102fc575f5ffd5b806323b872dd1461027557806329071254146102885780633dd68feb146102b0575f5ffd5b806301ffc9a7146101a557806306fdde03146101cd578063081812fc146101e2578063095ea7b31461020d5780630d08e181146102225780631bdd4b741461024f575b5f5ffd5b6101b86101b336600461225a565b610410565b60405190151581526020015b60405180910390f35b6101d5610461565b6040516101c491906122a3565b6101f56101f03660046122b5565b610502565b6040516001600160a01b0390911681526020016101c4565b61022061021b3660046122e7565b610516565b005b61024161023036600461230f565b60016020525f908152604090205481565b6040519081526020016101c4565b61026261025d3660046122b5565b610525565b6040516101c49796959493929190612328565b6102206102833660046123b3565b61062b565b6101f56102963660046122b5565b60056020525f90815260409020546001600160a01b031681565b6102206102be36600461248a565b6106b9565b6102206102d13660046123b3565b61091d565b6102206102e43660046124d5565b61093c565b6101f56102f73660046122b5565b610b52565b61024161030a36600461230f565b610b5c565b610220610bb4565b6102206103253660046122e7565b610bc7565b61033d6103383660046122b5565b610d80565b6040516101c4919061251a565b6101f5610e82565b61024161036036600461230f565b60026020525f908152604090205481565b6101d5610eb0565b61022061038736600461254d565b610eee565b61022061039a3660046122b5565b610ef9565b6102206103ad366004612582565b61120d565b6101d56103c03660046122b5565b611225565b6102416103d33660046125e5565b61128a565b6101b86103e63660046124d5565b611651565b6102206103f936600461230f565b61169d565b5f546101f5906001600160a01b031681565b5f6001600160e01b031982166380ac58cd60e01b148061044057506001600160e01b03198216635b5e139f60e01b145b8061045b57506301ffc9a760e01b6001600160e01b03198316145b92915050565b5f5160206128a05f395f51905f52805460609190819061048090612666565b80601f01602080910402602001604051908101604052809291908181526020018280546104ac90612666565b80156104f75780601f106104ce576101008083540402835291602001916104f7565b820191905f5260205f20905b8154815290600101906020018083116104da57829003601f168201915b505050505091505090565b5f61050c826116da565b5061045b82611711565b61052182823361174a565b5050565b5f818152600460208181526040808420815160e0810183528154815260018201548185015260028201548184015260038201546001600160401b038116606080840191909152600160401b9091046001600160a01b031660808301529482018054845181870281018701909552808552879687968796879692958795869591949360a086019392908301828280156105da57602002820191905f5260205f20905b8154815260200190600101908083116105c6575b50505091835250506005919091015460ff16151560209182015281519082015160408301516060840151608085015160a086015160c090960151949f939e50919c509a509850919650945092505050565b6001600160a01b03821661065957604051633250574960e11b81525f60048201526024015b60405180910390fd5b5f610665838333611757565b9050836001600160a01b0316816001600160a01b0316146106b3576040516364283d7b60e01b81526001600160a01b0380861660048301526024820184905282166044820152606401610650565b50505050565b6106c1611859565b5f83815260046020526040902060030154600160401b90046001600160a01b03166107225760405162461bcd60e51b8152602060048201526011602482015270496e76616c6964206368616c6c656e676560781b6044820152606401610650565b5f61072c84610d80565b600281111561073d5761073d612506565b146107835760405162461bcd60e51b815260206004820152601660248201527518da185b1b195b99d9481a5cc818dbdb5c1b195d195960521b6044820152606401610650565b61079661078f84610b52565b838361188b565b6107d65760405162461bcd60e51b8152602060048201526011602482015270496e76616c6964207369676e617475726560781b6044820152606401610650565b5f5b5f8481526004602081905260409091200154811015610875578260045f8681526020019081526020015f2060040182815481106108175761081761269e565b905f5260205f2001540361086d5760405162461bcd60e51b815260206004820152601760248201527f50726f6f6620616c7265616479207375626d69747465640000000000000000006044820152606401610650565b6001016107d8565b505f838152600460208181526040832090910180546001810182559083529120018290556108a283610b52565b6001600160a01b0316837fd6f6b0806ed53db894b8ea4b602bfa254458be35ee9644245455d07db21e208a846040516108dd91815260200190565b60405180910390a36040518381527ff8e1a15aba9398e019f0b49df1a4fde98ee17ae345cb5f6b5e2c27f5033e8ce79060200160405180910390a1505050565b61093783838360405180602001604052805f81525061120d565b505050565b7ff0c57e16840df040f15088dc2f81fe391c3923bec73e23a9662efc9c229c6a008054600160401b810460ff1615906001600160401b03165f811580156109805750825b90505f826001600160401b0316600114801561099b5750303b155b9050811580156109a9575080155b156109c75760405163f92ee8a960e01b815260040160405180910390fd5b845467ffffffffffffffff1916600117855583156109f157845460ff60401b1916600160401b1785555b6001600160a01b038716610a3f5760405162461bcd60e51b8152602060048201526015602482015274496e76616c696420746f6b656e206164647265737360581b6044820152606401610650565b6001600160a01b038616610a955760405162461bcd60e51b815260206004820152601860248201527f496e76616c6964206f70657261746f72206164647265737300000000000000006044820152606401610650565b5f80546001600160a01b0319166001600160a01b0389161790556001600355610abd866118e0565b610b03604051806040016040528060068152602001654f47554f475560d01b815250604051806040016040528060068152602001654f47554f475560d01b8152506118f1565b8315610b4957845460ff60401b19168555604051600181527fc7f505b2f371ae2175ee4913f4499e1f2633a7b5936321eed1cdaeb6115181d29060200160405180910390a15b50505050505050565b5f61045b826116da565b5f5f5160206128a05f395f51905f526001600160a01b038316610b94576040516322718ad960e21b81525f6004820152602401610650565b6001600160a01b039092165f908152600390920160205250604090205490565b610bbc611859565b610bc55f611903565b565b6001600160a01b038216610c1d5760405162461bcd60e51b815260206004820152601a60248201527f496e76616c6964206368616c6c656e67657220616464726573730000000000006044820152606401610650565b5f8111610c5d5760405162461bcd60e51b815260206004820152600e60248201526d125b9d985b1a5908185b5bdd5b9d60921b6044820152606401610650565b5f546040516323b872dd60e01b8152336004820152306024820152604481018390526001600160a01b03909116906323b872dd906064016020604051808303815f875af1158015610cb0573d5f5f3e3d5ffd5b505050506040513d601f19601f82011682018060405250810190610cd491906126b2565b610d125760405162461bcd60e51b815260206004820152600f60248201526e151c985b9cd9995c8819985a5b1959608a1b6044820152606401610650565b6001600160a01b0382165f9081526001602052604081208054839290610d399084906126e1565b90915550506040518181526001600160a01b038316907f4f7fd5c9e17300a4800fd572ea53fc291e2ee7470d73346d16b357faee4e72109060200160405180910390a25050565b5f818152600460208181526040808420815160e0810183528154815260018201548185015260028201548184015260038201546001600160401b0381166060830152600160401b90046001600160a01b031660808201529381018054835181860281018601909452808452869594929360a086019390929190830182828015610e2657602002820191905f5260205f20905b815481526020019060010190808311610e12575b50505091835250506005919091015460ff161515602090910152606081015160a0820151519192506001600160401b031611610e655750600192915050565b4281604001511015610e7a5750600292915050565b505f92915050565b7f9016d09d72d40fdae2fd8ceac6b6234c7706214fd39c1cd1e609a0528c199300546001600160a01b031690565b7f80bb2b638cc20bc4d0a60d66940f3ab4a00c1d7b313497ca82fb0b4ab007930180546060915f5160206128a05f395f51905f529161048090612666565b610521338383611973565b5f610f0382610d80565b5f838152600460208181526040808420815160e0810183528154815260018201548185015260028201548184015260038201546001600160401b0381166060830152600160401b90046001600160a01b03166080820152938101805483518186028101860190945280845296975094959394909360a0860193830182828015610fa957602002820191905f5260205f20905b815481526020019060010190808311610f95575b50505091835250506005919091015460ff16151560209091015290505f826002811115610fd857610fd8612506565b036110255760405162461bcd60e51b815260206004820152601760248201527f4368616c6c656e6765206973206e6f7420636c6f7365640000000000000000006044820152606401610650565b8060c00151156110775760405162461bcd60e51b815260206004820152601b60248201527f4368616c6c656e676520697320616c726561647920636c6f73656400000000006044820152606401610650565b5f61108184610b52565b5f858152600460209081526040808320600501805460ff1916600117905585516001600160a01b038516845260029092528220805493945090929091906110c99084906126f4565b90915550600190508360028111156110e3576110e3612506565b03611192575f546080830151835160405163a9059cbb60e01b81526001600160a01b039283166004820152602481019190915291169063a9059cbb906044016020604051808303815f875af115801561113e573d5f5f3e3d5ffd5b505050506040513d601f19601f8201168201806040525081019061116291906126b2565b5081516001600160a01b0382165f908152600160205260408120805490919061118c9084906126f4565b90915550505b806001600160a01b0316847f8ae589da3f84f4e79e93cb80f4addfed0e01b8dd731392a8b86e10ec8856e92c856040516111cc919061251a565b60405180910390a36040518481527ff8e1a15aba9398e019f0b49df1a4fde98ee17ae345cb5f6b5e2c27f5033e8ce79060200160405180910390a150505050565b61121884848461062b565b6106b33385858585611a22565b6060611230826116da565b505f61123a611b4a565b90505f8151116112585760405180602001604052805f815250611283565b8061126284611b6a565b60405160200161127392919061271e565b6040516020818303038152906040525b9392505050565b5f6001600160a01b0382166112e15760405162461bcd60e51b815260206004820152601960248201527f496e76616c696420726563656970656e742061646472657373000000000000006044820152606401610650565b5f87116113215760405162461bcd60e51b815260206004820152600e60248201526d125b9d985b1a59081c995dd85c9960921b6044820152606401610650565b4284116113635760405162461bcd60e51b815260206004820152601060248201526f496e76616c696420647565206461746560801b6044820152606401610650565b5f836001600160401b0316116113bb5760405162461bcd60e51b815260206004820152601b60248201527f496e76616c6964206d696e696d756d2070726f6f6620636f756e7400000000006044820152606401610650565b5f868152600560205260409020546001600160a01b03161561141f5760405162461bcd60e51b815260206004820152601860248201527f4368616c6c656e676520616c72656164792065786973747300000000000000006044820152606401610650565b5f86815260056020526040902080546001600160a01b0319163317905561144e611447610e82565b878761188b565b61148e5760405162461bcd60e51b8152602060048201526011602482015270496e76616c6964207369676e617475726560781b6044820152606401610650565b335f90815260026020526040812080548992906114ac9084906126e1565b9091555050335f9081526001602090815260408083205460029092529091205411156115115760405162461bcd60e51b8152602060048201526014602482015273496e73756666696369656e742062616c616e636560601b6044820152606401610650565b6040805160e08101825288815260208082018981528284018881526001600160401b03888116606086019081526001600160a01b038981166080880190815288515f8082528189018b5260a08a0191825260c08a018190526003805482526004808b529b9091208a5181559751600189015595516002880155925194860180549151959094166001600160e01b031990911617600160401b9490911693909302929092179055518051939491936115d0939285019291909101906121e8565b5060c091909101516005909101805460ff19169115159190911790556003546115fa903390611bf9565b6003546040518781523391907feac6e327176e3b77d65d71ae889f4dc718d3cc814cfdfcb18da967415fc542239060200160405180910390a360038054905f61164283612732565b90915550979650505050505050565b6001600160a01b039182165f9081527f80bb2b638cc20bc4d0a60d66940f3ab4a00c1d7b313497ca82fb0b4ab00793056020908152604080832093909416825291909152205460ff1690565b6116a5611859565b6001600160a01b0381166116ce57604051631e4fbdf760e01b81525f6004820152602401610650565b6116d781611903565b50565b5f5f6116e583611c12565b90506001600160a01b03811661045b57604051637e27328960e01b815260048101849052602401610650565b5f9081527f80bb2b638cc20bc4d0a60d66940f3ab4a00c1d7b313497ca82fb0b4ab007930460205260409020546001600160a01b031690565b6109378383836001611c4b565b5f5f5160206128a05f395f51905f528161177085611c12565b90506001600160a01b0384161561178c5761178c818587611d5e565b6001600160a01b038116156117c8576117a75f865f5f611c4b565b6001600160a01b0381165f908152600383016020526040902080545f190190555b6001600160a01b038616156117f8576001600160a01b0386165f9081526003830160205260409020805460010190555b5f85815260028301602052604080822080546001600160a01b0319166001600160a01b038a811691821790925591518893918516917fddf252ad1be2c89b69c2b068fc378daa952ba7f163c4a11628f55a4df523b3ef91a495945050505050565b33611862610e82565b6001600160a01b031614610bc55760405163118cdaa760e01b8152336004820152602401610650565b7f19457468657265756d205369676e6564204d6573736167653a0a3332000000005f908152601c839052603c81206001600160a01b0385166118cd8285611dc2565b6001600160a01b03161495945050505050565b6118e8611dea565b6116d781611e33565b6118f9611dea565b6105218282611e3b565b7f9016d09d72d40fdae2fd8ceac6b6234c7706214fd39c1cd1e609a0528c19930080546001600160a01b031981166001600160a01b03848116918217845560405192169182907f8be0079c531659141344cd1fd0a4f28419497f9722a3daafe3b4186f6b6457e0905f90a3505050565b5f5160206128a05f395f51905f526001600160a01b0383166119b357604051630b61174360e31b81526001600160a01b0384166004820152602401610650565b6001600160a01b038481165f818152600584016020908152604080832094881680845294825291829020805460ff191687151590811790915591519182527f17307eab39ab6107e8899845ad3d59bd9653f200f220920489ca2b5937696c31910160405180910390a350505050565b6001600160a01b0383163b15611b4357604051630a85bd0160e11b81526001600160a01b0384169063150b7a0290611a6490889088908790879060040161274a565b6020604051808303815f875af1925050508015611a9e575060408051601f3d908101601f19168201909252611a9b91810190612786565b60015b611b05573d808015611acb576040519150601f19603f3d011682016040523d82523d5f602084013e611ad0565b606091505b5080515f03611afd57604051633250574960e11b81526001600160a01b0385166004820152602401610650565b805181602001fd5b6001600160e01b03198116630a85bd0160e11b14611b4157604051633250574960e11b81526001600160a01b0385166004820152602401610650565b505b5050505050565b60606040518060600160405280602781526020016128c060279139905090565b60605f611b7683611e6b565b60010190505f816001600160401b03811115611b9457611b946123ed565b6040519080825280601f01601f191660200182016040528015611bbe576020820181803683370190505b5090508181016020015b5f19016f181899199a1a9b1b9c1cb0b131b232b360811b600a86061a8153600a8504945084611bc857509392505050565b610521828260405180602001604052805f815250611f42565b5f9081527f80bb2b638cc20bc4d0a60d66940f3ab4a00c1d7b313497ca82fb0b4ab007930260205260409020546001600160a01b031690565b5f5160206128a05f395f51905f528180611c6d57506001600160a01b03831615155b15611d2e575f611c7c856116da565b90506001600160a01b03841615801590611ca85750836001600160a01b0316816001600160a01b031614155b8015611cbb5750611cb98185611651565b155b15611ce45760405163a9fbf51f60e01b81526001600160a01b0385166004820152602401610650565b8215611d2c5784866001600160a01b0316826001600160a01b03167f8c5be1e5ebec7d5bd14f71427d1e84f3dd0314c0f7b2291e5b200ac8c7c3b92560405160405180910390a45b505b5f93845260040160205250506040902080546001600160a01b0319166001600160a01b0392909216919091179055565b611d69838383611f59565b610937576001600160a01b038316611d9757604051637e27328960e01b815260048101829052602401610650565b60405163177e802f60e01b81526001600160a01b038316600482015260248101829052604401610650565b5f5f5f5f611dd08686611fbe565b925092509250611de08282612007565b5090949350505050565b7ff0c57e16840df040f15088dc2f81fe391c3923bec73e23a9662efc9c229c6a0054600160401b900460ff16610bc557604051631afcd79f60e31b815260040160405180910390fd5b6116a5611dea565b611e43611dea565b5f5160206128a05f395f51905f5280611e5c84826127e5565b50600181016106b383826127e5565b5f8072184f03e93ff9f4daa797ed6e38ed64bf6a1f0160401b8310611ea95772184f03e93ff9f4daa797ed6e38ed64bf6a1f0160401b830492506040015b6d04ee2d6d415b85acef81000000008310611ed5576d04ee2d6d415b85acef8100000000830492506020015b662386f26fc100008310611ef357662386f26fc10000830492506010015b6305f5e1008310611f0b576305f5e100830492506008015b6127108310611f1f57612710830492506004015b60648310611f31576064830492506002015b600a831061045b5760010192915050565b611f4c83836120bf565b610937335f858585611a22565b5f6001600160a01b03831615801590611fb65750826001600160a01b0316846001600160a01b03161480611f925750611f928484611651565b80611fb65750826001600160a01b0316611fab83611711565b6001600160a01b0316145b949350505050565b5f5f5f8351604103611ff5576020840151604085015160608601515f1a611fe788828585612120565b955095509550505050612000565b505081515f91506002905b9250925092565b5f82600381111561201a5761201a612506565b03612023575050565b600182600381111561203757612037612506565b036120555760405163f645eedf60e01b815260040160405180910390fd5b600282600381111561206957612069612506565b0361208a5760405163fce698f760e01b815260048101829052602401610650565b600382600381111561209e5761209e612506565b03610521576040516335e2f38360e21b815260048101829052602401610650565b6001600160a01b0382166120e857604051633250574960e11b81525f6004820152602401610650565b5f6120f483835f611757565b90506001600160a01b03811615610937576040516339e3563760e11b81525f6004820152602401610650565b5f80807f7fffffffffffffffffffffffffffffff5d576e7357a4501ddfe92f46681b20a084111561215957505f915060039050826121de565b604080515f808252602082018084528a905260ff891692820192909252606081018790526080810186905260019060a0016020604051602081039080840390855afa1580156121aa573d5f5f3e3d5ffd5b5050604051601f1901519150506001600160a01b0381166121d557505f9250600191508290506121de565b92505f91508190505b9450945094915050565b828054828255905f5260205f20908101928215612221579160200282015b82811115612221578251825591602001919060010190612206565b5061222d929150612231565b5090565b5b8082111561222d575f8155600101612232565b6001600160e01b0319811681146116d7575f5ffd5b5f6020828403121561226a575f5ffd5b813561128381612245565b5f81518084528060208401602086015e5f602082860101526020601f19601f83011685010191505092915050565b602081525f6112836020830184612275565b5f602082840312156122c5575f5ffd5b5035919050565b80356001600160a01b03811681146122e2575f5ffd5b919050565b5f5f604083850312156122f8575f5ffd5b612301836122cc565b946020939093013593505050565b5f6020828403121561231f575f5ffd5b611283826122cc565b8781526020808201889052604082018790526001600160401b03861660608301526001600160a01b038516608083015260e060a0830181905284519083018190525f91850190610100840190835b81811015612394578351835260209384019390920191600101612376565b505084151560c085015291506123a79050565b98975050505050505050565b5f5f5f606084860312156123c5575f5ffd5b6123ce846122cc565b92506123dc602085016122cc565b929592945050506040919091013590565b634e487b7160e01b5f52604160045260245ffd5b5f82601f830112612410575f5ffd5b81356001600160401b03811115612429576124296123ed565b604051601f8201601f19908116603f011681016001600160401b0381118282101715612457576124576123ed565b60405281815283820160200185101561246e575f5ffd5b816020850160208301375f918101602001919091529392505050565b5f5f5f6060848603121561249c575f5ffd5b833592506020840135915060408401356001600160401b038111156124bf575f5ffd5b6124cb86828701612401565b9150509250925092565b5f5f604083850312156124e6575f5ffd5b6124ef836122cc565b91506124fd602084016122cc565b90509250929050565b634e487b7160e01b5f52602160045260245ffd5b602081016003831061253a57634e487b7160e01b5f52602160045260245ffd5b91905290565b80151581146116d7575f5ffd5b5f5f6040838503121561255e575f5ffd5b612567836122cc565b9150602083013561257781612540565b809150509250929050565b5f5f5f5f60808587031215612595575f5ffd5b61259e856122cc565b93506125ac602086016122cc565b92506040850135915060608501356001600160401b038111156125cd575f5ffd5b6125d987828801612401565b91505092959194509250565b5f5f5f5f5f5f60c087890312156125fa575f5ffd5b863595506020870135945060408701356001600160401b0381111561261d575f5ffd5b61262989828a01612401565b9450506060870135925060808701356001600160401b038116811461264c575f5ffd5b915061265a60a088016122cc565b90509295509295509295565b600181811c9082168061267a57607f821691505b60208210810361269857634e487b7160e01b5f52602260045260245ffd5b50919050565b634e487b7160e01b5f52603260045260245ffd5b5f602082840312156126c2575f5ffd5b815161128381612540565b634e487b7160e01b5f52601160045260245ffd5b8082018082111561045b5761045b6126cd565b8181038181111561045b5761045b6126cd565b5f81518060208401855e5f93019283525090919050565b5f611fb661272c8386612707565b84612707565b5f60018201612743576127436126cd565b5060010190565b6001600160a01b03858116825284166020820152604081018390526080606082018190525f9061277c90830184612275565b9695505050505050565b5f60208284031215612796575f5ffd5b815161128381612245565b601f82111561093757805f5260205f20601f840160051c810160208510156127c65750805b601f840160051c820191505b81811015611b43575f81556001016127d2565b81516001600160401b038111156127fe576127fe6123ed565b6128128161280c8454612666565b846127a1565b6020601f821160018114612844575f831561282d5750848201515b5f19600385901b1c1916600184901b178455611b43565b5f84815260208120601f198516915b828110156128735787850151825560209485019460019092019101612853565b508482101561289057868401515f19600387901b60f8161c191681555b50505050600190811b0190555056fe80bb2b638cc20bc4d0a60d66940f3ab4a00c1d7b313497ca82fb0b4ab007930068747470733a2f2f7265736f75726365732e6f67756f67752e6d652f6368616c6c656e6765732fa264697066735822122002dc7eea60a8b1c3b88bd45475cbb6b77257424763d201206ed1e9f1f65f259664736f6c634300081c0033","linkReferences":{}},"methodIdentifiers":{"approve(address,uint256)":"095ea7b3","balanceOf(address)":"70a08231","challengeHashes(bytes32)":"29071254","completeChallenge(uint256)":"a7817bbc","createChallenge(uint256,bytes32,bytes,uint256,uint64,address)":"cb345eca","depositReward(address,uint256)":"7db4e28f","getApproved(uint256)":"081812fc","getChallenge(uint256)":"1bdd4b74","getChallengeStatus(uint256)":"832c8bc6","initialize(address,address)":"485cc955","isApprovedForAll(address,address)":"e985e9c5","name()":"06fdde03","owner()":"8da5cb5b","ownerOf(uint256)":"6352211e","renounceOwnership()":"715018a6","rewardToken()":"f7c618c1","safeTransferFrom(address,address,uint256)":"42842e0e","safeTransferFrom(address,address,uint256,bytes)":"b88d4fde","setApprovalForAll(address,bool)":"a22cb465","submitProof(uint256,bytes32,bytes)":"3dd68feb","supportsInterface(bytes4)":"01ffc9a7","symbol()":"95d89b41","tokenURI(uint256)":"c87b56dd","transferFrom(address,address,uint256)":"23b872dd","transferOwnership(address)":"f2fde38b","userAllocatedRewards(address)":"91469fbe","userReserves(address)":"0d08e181"},"storageLayout":{"storage":[{"astId":48706,"contract":"src/Oguogu.sol:OGUOGU","label":"rewardToken","offset":0,"slot":"0","type":"t_contract(IERC20)43429"},{"astId":48710,"contract":"src/Oguogu.sol:OGUOGU","label":"userReserves","offset":0,"slot":"1","type":"t_mapping(t_address,t_uint256)"},{"astId":48714,"contract":"src/Oguogu.sol:OGUOGU","label":"userAllocatedRewards","offset":0,"slot":"2","type":"t_mapping(t_address,t_uint256)"},{"astId":48716,"contract":"src/Oguogu.sol:OGUOGU","label":"_challengeId","offset":0,"slot":"3","type":"t_uint256"},{"astId":48721,"contract":"src/Oguogu.sol:OGUOGU","label":"_challenges","offset":0,"slot":"4","type":"t_mapping(t_uint256,t_struct(Challenge)48741_storage)"},{"astId":48725,"contract":"src/Oguogu.sol:OGUOGU","label":"challengeHashes","offset":0,"slot":"5","type":"t_mapping(t_bytes32,t_address)"}],"types":{"t_address":{"encoding":"inplace","label":"address","numberOfBytes":"20"},"t_array(t_bytes32)dyn_storage":{"encoding":"dynamic_array","label":"bytes32[]","numberOfBytes":"32","base":"t_bytes32"},"t_bool":{"encoding":"inplace","label":"bool","numberOfBytes":"1"},"t_bytes32":{"encoding":"inplace","label":"bytes32","numberOfBytes":"32"},"t_contract(IERC20)43429":{"encoding":"inplace","label":"contract IERC20","numberOfBytes":"20"},"t_mapping(t_address,t_uint256)":{"encoding":"mapping","key":"t_address","label":"mapping(address => uint256)","numberOfBytes":"32","value":"t_uint256"},"t_mapping(t_bytes32,t_address)":{"encoding":"mapping","key":"t_bytes32","label":"mapping(bytes32 => address)","numberOfBytes":"32","value":"t_address"},"t_mapping(t_uint256,t_struct(Challenge)48741_storage)":{"encoding":"mapping","key":"t_uint256","label":"mapping(uint256 => struct OGUOGU.Challenge)","numberOfBytes":"32","value":"t_struct(Challenge)48741_storage"},"t_struct(Challenge)48741_storage":{"encoding":"inplace","label":"struct OGUOGU.Challenge","numberOfBytes":"192","members":[{"astId":48727,"contract":"src/Oguogu.sol:OGUOGU","label":"reward","offset":0,"slot":"0","type":"t_uint256"},{"astId":48729,"contract":"src/Oguogu.sol:OGUOGU","label":"challengeHash","offset":0,"slot":"1","type":"t_bytes32"},{"astId":48731,"contract":"src/Oguogu.sol:OGUOGU","label":"dueDate","offset":0,"slot":"2","type":"t_uint256"},{"astId":48733,"contract":"src/Oguogu.sol:OGUOGU","label":"minimumProofCount","offset":0,"slot":"3","type":"t_uint64"},{"astId":48735,"contract":"src/Oguogu.sol:OGUOGU","label":"receipent","offset":8,"slot":"3","type":"t_address"},{"astId":48738,"contract":"src/Oguogu.sol:OGUOGU","label":"proofHashes","offset":0,"slot":"4","type":"t_array(t_bytes32)dyn_storage"},{"astId":48740,"contract":"src/Oguogu.sol:OGUOGU","label":"isClosed","offset":0,"slot":"5","type":"t_bool"}]},"t_uint256":{"encoding":"inplace","label":"uint256","numberOfBytes":"32"},"t_uint64":{"encoding":"inplace","label":"uint64","numberOfBytes":"8"}}},"id":62}