{"abi":[{"type":"function","name":"approve","inputs":[{"name":"to","type":"address","internalType":"address"},{"name":"tokenId","type":"uint256","internalType":"uint256"}],"outputs":[],"stateMutability":"nonpayable"},{"type":"function","name":"balanceOf","inputs":[{"name":"owner","type":"address","internalType":"address"}],"outputs":[{"name":"","type":"uint256","internalType":"uint256"}],"stateMutability":"view"},{"type":"function","name":"challengeHashes","inputs":[{"name":"challengeHash","type":"bytes32","internalType":"bytes32"}],"outputs":[{"name":"","type":"address","internalType":"address"}],"stateMutability":"view"},{"type":"function","name":"completeChallenge","inputs":[{"name":"receipent","type":"address","internalType":"address"},{"name":"tokenId","type":"uint256","internalType":"uint256"}],"outputs":[],"stateMutability":"nonpayable"},{"type":"function","name":"createChallenge","inputs":[{"name":"reward","type":"uint256","internalType":"uint256"},{"name":"challengeHash","type":"bytes32","internalType":"bytes32"},{"name":"challengeSignature","type":"bytes","internalType":"bytes"},{"name":"startDate","type":"uint256","internalType":"uint256"},{"name":"endDate","type":"uint256","internalType":"uint256"},{"name":"minimumActivityCount","type":"uint64","internalType":"uint64"}],"outputs":[{"name":"","type":"uint256","internalType":"uint256"}],"stateMutability":"nonpayable"},{"type":"function","name":"depositReward","inputs":[{"name":"challenger","type":"address","internalType":"address"},{"name":"amount","type":"uint256","internalType":"uint256"}],"outputs":[],"stateMutability":"nonpayable"},{"type":"function","name":"getApproved","inputs":[{"name":"tokenId","type":"uint256","internalType":"uint256"}],"outputs":[{"name":"","type":"address","internalType":"address"}],"stateMutability":"view"},{"type":"function","name":"getChallenge","inputs":[{"name":"tokenId","type":"uint256","internalType":"uint256"}],"outputs":[{"name":"","type":"bytes32","internalType":"bytes32"},{"name":"","type":"bytes32[]","internalType":"bytes32[]"},{"name":"","type":"uint256","internalType":"uint256"},{"name":"","type":"uint256","internalType":"uint256"},{"name":"","type":"uint256","internalType":"uint256"},{"name":"","type":"uint64","internalType":"uint64"},{"name":"","type":"bool","internalType":"bool"}],"stateMutability":"view"},{"type":"function","name":"getChallengeStatus","inputs":[{"name":"tokenId","type":"uint256","internalType":"uint256"}],"outputs":[{"name":"","type":"uint8","internalType":"enum OGUOGU.ChallengeStatus"}],"stateMutability":"view"},{"type":"function","name":"initialize","inputs":[{"name":"_rewardToken","type":"address","internalType":"address"},{"name":"_operator","type":"address","internalType":"address"}],"outputs":[],"stateMutability":"nonpayable"},{"type":"function","name":"isApprovedForAll","inputs":[{"name":"owner","type":"address","internalType":"address"},{"name":"operator","type":"address","internalType":"address"}],"outputs":[{"name":"","type":"bool","internalType":"bool"}],"stateMutability":"view"},{"type":"function","name":"name","inputs":[],"outputs":[{"name":"","type":"string","internalType":"string"}],"stateMutability":"view"},{"type":"function","name":"owner","inputs":[],"outputs":[{"name":"","type":"address","internalType":"address"}],"stateMutability":"view"},{"type":"function","name":"ownerOf","inputs":[{"name":"tokenId","type":"uint256","internalType":"uint256"}],"outputs":[{"name":"","type":"address","internalType":"address"}],"stateMutability":"view"},{"type":"function","name":"renounceOwnership","inputs":[],"outputs":[],"stateMutability":"nonpayable"},{"type":"function","name":"rewardToken","inputs":[],"outputs":[{"name":"","type":"address","internalType":"contract IERC20"}],"stateMutability":"view"},{"type":"function","name":"safeTransferFrom","inputs":[{"name":"from","type":"address","internalType":"address"},{"name":"to","type":"address","internalType":"address"},{"name":"tokenId","type":"uint256","internalType":"uint256"}],"outputs":[],"stateMutability":"nonpayable"},{"type":"function","name":"safeTransferFrom","inputs":[{"name":"from","type":"address","internalType":"address"},{"name":"to","type":"address","internalType":"address"},{"name":"tokenId","type":"uint256","internalType":"uint256"},{"name":"data","type":"bytes","internalType":"bytes"}],"outputs":[],"stateMutability":"nonpayable"},{"type":"function","name":"setApprovalForAll","inputs":[{"name":"operator","type":"address","internalType":"address"},{"name":"approved","type":"bool","internalType":"bool"}],"outputs":[],"stateMutability":"nonpayable"},{"type":"function","name":"submitActivity","inputs":[{"name":"tokenId","type":"uint256","internalType":"uint256"},{"name":"activityHash","type":"bytes32","internalType":"bytes32"},{"name":"activitySignature","type":"bytes","internalType":"bytes"}],"outputs":[],"stateMutability":"nonpayable"},{"type":"function","name":"supportsInterface","inputs":[{"name":"interfaceId","type":"bytes4","internalType":"bytes4"}],"outputs":[{"name":"","type":"bool","internalType":"bool"}],"stateMutability":"view"},{"type":"function","name":"symbol","inputs":[],"outputs":[{"name":"","type":"string","internalType":"string"}],"stateMutability":"view"},{"type":"function","name":"tokenURI","inputs":[{"name":"tokenId","type":"uint256","internalType":"uint256"}],"outputs":[{"name":"","type":"string","internalType":"string"}],"stateMutability":"view"},{"type":"function","name":"transferFrom","inputs":[{"name":"from","type":"address","internalType":"address"},{"name":"to","type":"address","internalType":"address"},{"name":"tokenId","type":"uint256","internalType":"uint256"}],"outputs":[],"stateMutability":"nonpayable"},{"type":"function","name":"transferOwnership","inputs":[{"name":"newOwner","type":"address","internalType":"address"}],"outputs":[],"stateMutability":"nonpayable"},{"type":"function","name":"userAllocatedRewards","inputs":[{"name":"challenger","type":"address","internalType":"address"}],"outputs":[{"name":"","type":"uint256","internalType":"uint256"}],"stateMutability":"view"},{"type":"function","name":"userReserves","inputs":[{"name":"challenger","type":"address","internalType":"address"}],"outputs":[{"name":"","type":"uint256","internalType":"uint256"}],"stateMutability":"view"},{"type":"function","name":"withdrawReward","inputs":[{"name":"receiver","type":"address","internalType":"address"}],"outputs":[],"stateMutability":"nonpayable"},{"type":"function","name":"withdrawableUnlockTime","inputs":[{"name":"challenger","type":"address","internalType":"address"}],"outputs":[{"name":"","type":"uint256","internalType":"uint256"}],"stateMutability":"view"},{"type":"event","name":"Approval","inputs":[{"name":"owner","type":"address","indexed":true,"internalType":"address"},{"name":"approved","type":"address","indexed":true,"internalType":"address"},{"name":"tokenId","type":"uint256","indexed":true,"internalType":"uint256"}],"anonymous":false},{"type":"event","name":"ApprovalForAll","inputs":[{"name":"owner","type":"address","indexed":true,"internalType":"address"},{"name":"operator","type":"address","indexed":true,"internalType":"address"},{"name":"approved","type":"bool","indexed":false,"internalType":"bool"}],"anonymous":false},{"type":"event","name":"BatchMetadataUpdate","inputs":[{"name":"_fromTokenId","type":"uint256","indexed":false,"internalType":"uint256"},{"name":"_toTokenId","type":"uint256","indexed":false,"internalType":"uint256"}],"anonymous":false},{"type":"event","name":"ChallengeCompleted","inputs":[{"name":"tokenId","type":"uint256","indexed":true,"internalType":"uint256"},{"name":"challenger","type":"address","indexed":true,"internalType":"address"},{"name":"status","type":"uint8","indexed":false,"internalType":"enum OGUOGU.ChallengeStatus"},{"name":"paymentReward","type":"uint256","indexed":false,"internalType":"uint256"}],"anonymous":false},{"type":"event","name":"ChallengeCreated","inputs":[{"name":"tokenId","type":"uint256","indexed":true,"internalType":"uint256"},{"name":"challenger","type":"address","indexed":true,"internalType":"address"},{"name":"challengeHash","type":"bytes32","indexed":false,"internalType":"bytes32"}],"anonymous":false},{"type":"event","name":"DepositReward","inputs":[{"name":"challenger","type":"address","indexed":true,"internalType":"address"},{"name":"amount","type":"uint256","indexed":false,"internalType":"uint256"}],"anonymous":false},{"type":"event","name":"Initialized","inputs":[{"name":"version","type":"uint64","indexed":false,"internalType":"uint64"}],"anonymous":false},{"type":"event","name":"MetadataUpdate","inputs":[{"name":"_tokenId","type":"uint256","indexed":false,"internalType":"uint256"}],"anonymous":false},{"type":"event","name":"OwnershipTransferred","inputs":[{"name":"previousOwner","type":"address","indexed":true,"internalType":"address"},{"name":"newOwner","type":"address","indexed":true,"internalType":"address"}],"anonymous":false},{"type":"event","name":"SubmitActivity","inputs":[{"name":"tokenId","type":"uint256","indexed":true,"internalType":"uint256"},{"name":"challenger","type":"address","indexed":true,"internalType":"address"},{"name":"challengeHash","type":"bytes32","indexed":false,"internalType":"bytes32"},{"name":"activityHash","type":"bytes32","indexed":false,"internalType":"bytes32"}],"anonymous":false},{"type":"event","name":"Transfer","inputs":[{"name":"from","type":"address","indexed":true,"internalType":"address"},{"name":"to","type":"address","indexed":true,"internalType":"address"},{"name":"tokenId","type":"uint256","indexed":true,"internalType":"uint256"}],"anonymous":false},{"type":"event","name":"WithdrawReward","inputs":[{"name":"challenger","type":"address","indexed":true,"internalType":"address"},{"name":"amount","type":"uint256","indexed":false,"internalType":"uint256"}],"anonymous":false},{"type":"error","name":"ECDSAInvalidSignature","inputs":[]},{"type":"error","name":"ECDSAInvalidSignatureLength","inputs":[{"name":"length","type":"uint256","internalType":"uint256"}]},{"type":"error","name":"ECDSAInvalidSignatureS","inputs":[{"name":"s","type":"bytes32","internalType":"bytes32"}]},{"type":"error","name":"ERC721IncorrectOwner","inputs":[{"name":"sender","type":"address","internalType":"address"},{"name":"tokenId","type":"uint256","internalType":"uint256"},{"name":"owner","type":"address","internalType":"address"}]},{"type":"error","name":"ERC721InsufficientApproval","inputs":[{"name":"operator","type":"address","internalType":"address"},{"name":"tokenId","type":"uint256","internalType":"uint256"}]},{"type":"error","name":"ERC721InvalidApprover","inputs":[{"name":"approver","type":"address","internalType":"address"}]},{"type":"error","name":"ERC721InvalidOperator","inputs":[{"name":"operator","type":"address","internalType":"address"}]},{"type":"error","name":"ERC721InvalidOwner","inputs":[{"name":"owner","type":"address","internalType":"address"}]},{"type":"error","name":"ERC721InvalidReceiver","inputs":[{"name":"receiver","type":"address","internalType":"address"}]},{"type":"error","name":"ERC721InvalidSender","inputs":[{"name":"sender","type":"address","internalType":"address"}]},{"type":"error","name":"ERC721NonexistentToken","inputs":[{"name":"tokenId","type":"uint256","internalType":"uint256"}]},{"type":"error","name":"InvalidInitialization","inputs":[]},{"type":"error","name":"NotInitializing","inputs":[]},{"type":"error","name":"OwnableInvalidOwner","inputs":[{"name":"owner","type":"address","internalType":"address"}]},{"type":"error","name":"OwnableUnauthorizedAccount","inputs":[{"name":"account","type":"address","internalType":"address"}]}],"bytecode":{"object":"0x6080604052348015600e575f5ffd5b50612c778061001c5f395ff3fe608060405234801561000f575f5ffd5b50600436106101c6575f3560e01c806370a08231116100fe578063a22cb4651161009e578063c87b56dd1161006e578063c87b56dd14610437578063e985e9c51461044a578063f2fde38b1461045d578063f7c618c114610470575f5ffd5b8063a22cb465146103eb578063b86e321c146103fe578063b88d4fde14610411578063be3f2e3a14610424575f5ffd5b8063832c8bc6116100d9578063832c8bc6146103935780638da5cb5b146103b357806391469fbe146103bb57806395d89b41146103e3575f5ffd5b806370a0823114610365578063715018a6146103785780637db4e28f14610380575f5ffd5b806323b872dd1161016957806342842e0e1161014457806342842e0e14610319578063485cc9551461032c5780636352211e1461033f5780636e9b992514610352575f5ffd5b806323b872dd146102cb57806329071254146102de578063343020a514610306575f5ffd5b8063081812fc116101a4578063081812fc1461023d578063095ea7b3146102685780630d08e1811461027d5780631bdd4b74146102a5575f5ffd5b806301ffc9a7146101ca57806306fdde03146101f257806307feb30914610207575b5f5ffd5b6101dd6101d8366004612557565b610482565b60405190151581526020015b60405180910390f35b6101fa6104d3565b6040516101e991906125a0565b61022f6102153660046125cd565b6001600160a01b03165f9081526004602052604090205490565b6040519081526020016101e9565b61025061024b3660046125e6565b610574565b6040516001600160a01b0390911681526020016101e9565b61027b6102763660046125fd565b610588565b005b61022f61028b3660046125cd565b6001600160a01b03165f9081526002602052604090205490565b6102b86102b33660046125e6565b610597565b6040516101e99796959493929190612625565b61027b6102d93660046126a9565b6106a6565b6102506102ec3660046125e6565b5f908152600660205260409020546001600160a01b031690565b61027b610314366004612780565b610734565b61027b6103273660046126a9565b610951565b61027b61033a3660046127cb565b610970565b61025061034d3660046125e6565b610b85565b61027b6103603660046125fd565b610b8f565b61022f6103733660046125cd565b610f00565b61027b610f58565b61027b61038e3660046125fd565b610f6b565b6103a66103a13660046125e6565b611141565b6040516101e99190612830565b610250611236565b61022f6103c93660046125cd565b6001600160a01b03165f9081526003602052604090205490565b6101fa611264565b61027b6103f936600461284b565b6112a2565b61027b61040c3660046125cd565b6112ad565b61027b61041f366004612880565b6114c2565b61022f6104323660046128e3565b6114da565b6101fa6104453660046125e6565b61186a565b6101dd6104583660046127cb565b6118cf565b61027b61046b3660046125cd565b61191b565b5f54610250906001600160a01b031681565b5f6001600160e01b031982166380ac58cd60e01b14806104b257506001600160e01b03198216635b5e139f60e01b145b806104cd57506301ffc9a760e01b6001600160e01b03198316145b92915050565b5f516020612bfe5f395f51905f5280546060919081906104f29061295f565b80601f016020809104026020016040519081016040528092919081815260200182805461051e9061295f565b80156105695780601f1061054057610100808354040283529160200191610569565b820191905f5260205f20905b81548152906001019060200180831161054c57829003601f168201915b505050505091505090565b5f61057e82611958565b506104cd8261198f565b6105938282336119c8565b5050565b5f60605f5f5f5f5f5f60055f8a81526020019081526020015f206040518060e00160405290815f82015481526020016001820180548060200260200160405190810160405280929190818152602001828054801561061257602002820191905f5260205f20905b8154815260200190600101908083116105fe575b50505091835250506002820154602080830191909152600383015460408084019190915260048401546060808501919091526005909401546001600160401b038116608080860191909152600160401b90910460ff16151560a0948501528551928601519186015194860151908601519386015160c090960151929f919e50939c50929a5090985091965090945092505050565b6001600160a01b0382166106d457604051633250574960e11b81525f60048201526024015b60405180910390fd5b5f6106e08383336119d5565b9050836001600160a01b0316816001600160a01b03161461072e576040516364283d7b60e01b81526001600160a01b03808616600483015260248201849052821660448201526064016106cb565b50505050565b61073c611ad7565b5f61074684611141565b6002811115610757576107576127fc565b1461079d5760405162461bcd60e51b815260206004820152601660248201527518da185b1b195b99d9481a5cc818dbdb5c1b195d195960521b60448201526064016106cb565b6107b06107a984610b85565b8383611b09565b6107f05760405162461bcd60e51b8152602060048201526011602482015270496e76616c6964207369676e617475726560781b60448201526064016106cb565b5f5b5f8481526005602052604090206001015481101561088d575f84815260056020526040902060010180548491908390811061082f5761082f612997565b905f5260205f200154036108855760405162461bcd60e51b815260206004820152601a60248201527f416374697669747920616c7265616479207375626d697474656400000000000060448201526064016106cb565b6001016107f2565b505f838152600560209081526040822060019081018054918201815583529120018290556108ba83610b85565b6001600160a01b0316837f04e795b277c586184b86dd1444bf0ff4f9b20068da2a6345c599fe509ba1b87f60055f8781526020019081526020015f205f015485604051610911929190918252602082015260400190565b60405180910390a36040518381527ff8e1a15aba9398e019f0b49df1a4fde98ee17ae345cb5f6b5e2c27f5033e8ce79060200160405180910390a1505050565b61096b83838360405180602001604052805f8152506114c2565b505050565b7ff0c57e16840df040f15088dc2f81fe391c3923bec73e23a9662efc9c229c6a008054600160401b810460ff1615906001600160401b03165f811580156109b45750825b90505f826001600160401b031660011480156109cf5750303b155b9050811580156109dd575080155b156109fb5760405163f92ee8a960e01b815260040160405180910390fd5b845467ffffffffffffffff191660011785558315610a2557845460ff60401b1916600160401b1785555b6001600160a01b038716610a735760405162461bcd60e51b8152602060048201526015602482015274496e76616c696420746f6b656e206164647265737360581b60448201526064016106cb565b6001600160a01b038616610ac95760405162461bcd60e51b815260206004820152601860248201527f496e76616c6964206f70657261746f722061646472657373000000000000000060448201526064016106cb565b5f80546001600160a01b0319166001600160a01b03891617905560018055610af086611b5e565b610b36604051806040016040528060068152602001654f47554f475560d01b815250604051806040016040528060068152602001654f47554f475560d01b815250611b6f565b8315610b7c57845460ff60401b19168555604051600181527fc7f505b2f371ae2175ee4913f4499e1f2633a7b5936321eed1cdaeb6115181d29060200160405180910390a15b50505050505050565b5f6104cd82611958565b5f610b9982610b85565b9050336001600160a01b03821614610baf578092505b5f610bb983611141565b90505f60055f8581526020019081526020015f206040518060e00160405290815f820154815260200160018201805480602002602001604051908101604052809291908181526020018280548015610c2e57602002820191905f5260205f20905b815481526020019060010190808311610c1a575b50505091835250506002820154602082015260038201546040820152600482015460608201526005909101546001600160401b0381166080830152600160401b900460ff16151560a09091015290505f826002811115610c9057610c906127fc565b03610cdd5760405162461bcd60e51b815260206004820152601760248201527f4368616c6c656e6765206973206e6f7420636c6f73656400000000000000000060448201526064016106cb565b8060c0015115610d2f5760405162461bcd60e51b815260206004820152601b60248201527f4368616c6c656e676520697320616c726561647920636c6f736564000000000060448201526064016106cb565b5f848152600560208181526040808420909201805460ff60401b1916600160401b179055838201516001600160a01b03871684526003909152908220805491929091610d7c9084906129bf565b909155505f90506001836002811115610d9757610d976127fc565b03610e5157610da98260400151611b81565b5f5460405163a9059cbb60e01b81526001600160a01b0389811660048301526024820184905292935091169063a9059cbb906044016020604051808303815f875af1158015610dfa573d5f5f3e3d5ffd5b505050506040513d601f19601f82011682018060405250810190610e1e91906129d2565b506001600160a01b0384165f9081526002602052604081208054839290610e469084906129bf565b90915550610e819050565b6001600160a01b0384165f908152600460205260408120805462093a809290610e7b9084906129ed565b90915550505b836001600160a01b0316857f4a6c71421a36589a138e810099781dc08801db5ef0a3e6d9c3d4ccc16de42feb8584604051610ebd929190612a00565b60405180910390a36040518581527ff8e1a15aba9398e019f0b49df1a4fde98ee17ae345cb5f6b5e2c27f5033e8ce79060200160405180910390a1505050505050565b5f5f516020612bfe5f395f51905f526001600160a01b038316610f38576040516322718ad960e21b81525f60048201526024016106cb565b6001600160a01b039092165f908152600390920160205250604090205490565b610f60611ad7565b610f695f611ba0565b565b6001600160a01b038216610fc15760405162461bcd60e51b815260206004820152601a60248201527f496e76616c6964206368616c6c656e676572206164647265737300000000000060448201526064016106cb565b5f81116110015760405162461bcd60e51b815260206004820152600e60248201526d125b9d985b1a5908185b5bdd5b9d60921b60448201526064016106cb565b5f546040516323b872dd60e01b8152336004820152306024820152604481018390526001600160a01b03909116906323b872dd906064016020604051808303815f875af1158015611054573d5f5f3e3d5ffd5b505050506040513d601f19601f8201168201806040525081019061107891906129d2565b6110b65760405162461bcd60e51b815260206004820152600f60248201526e151c985b9cd9995c8819985a5b1959608a1b60448201526064016106cb565b6001600160a01b0382165f8181526002602052604090208054830190553390036110fa576001600160a01b0382165f9081526004602052604090206224ea00420190555b816001600160a01b03167f4f7fd5c9e17300a4800fd572ea53fc291e2ee7470d73346d16b357faee4e72108260405161113591815260200190565b60405180910390a25050565b5f818152600560209081526040808320815160e081018352815481526001820180548451818702810187019095528085528695929485840193909291908301828280156111ab57602002820191905f5260205f20905b815481526020019060010190808311611197575b5050509183525050600282015460208083019190915260038301546040830152600483015460608301526005909201546001600160401b038082166080840152600160401b90910460ff16151560a09283015290830151918301515192935016116112195750600192915050565b428160800151101561122e5750600292915050565b505f92915050565b7f9016d09d72d40fdae2fd8ceac6b6234c7706214fd39c1cd1e609a0528c199300546001600160a01b031690565b7f80bb2b638cc20bc4d0a60d66940f3ab4a00c1d7b313497ca82fb0b4ab007930180546060915f516020612bfe5f395f51905f52916104f29061295f565b610593338383611c10565b336001600160a01b0382166113045760405162461bcd60e51b815260206004820152601860248201527f496e76616c69642072656365697665722061646472657373000000000000000060448201526064016106cb565b6001600160a01b0381165f90815260036020908152604080832054600290925282205461133191906129bf565b90505f81116113735760405162461bcd60e51b815260206004820152600e60248201526d125b9d985b1a5908185b5bdd5b9d60921b60448201526064016106cb565b6001600160a01b0382165f908152600460205260409020544210156113da5760405162461bcd60e51b815260206004820152601c60248201527f5769746864726177616c206e6f742079657420617661696c61626c650000000060448201526064016106cb565b6001600160a01b0382165f90815260026020526040812080548392906114019084906129bf565b90915550505f5460405163a9059cbb60e01b81526001600160a01b038581166004830152602482018490529091169063a9059cbb906044016020604051808303815f875af1158015611455573d5f5f3e3d5ffd5b505050506040513d601f19601f8201168201806040525081019061147991906129d2565b50816001600160a01b03167fbc84835063c693975166f00cffb19f01a94c2db55b1bf259238c5da3594e5066826040516114b591815260200190565b60405180910390a2505050565b6114cd8484846106a6565b61072e3385858585611cbf565b5f5f871161151b5760405162461bcd60e51b815260206004820152600e60248201526d125b9d985b1a59081c995dd85c9960921b60448201526064016106cb565b82841061155f5760405162461bcd60e51b8152602060048201526012602482015271496e76616c6964207374617274206461746560701b60448201526064016106cb565b8242106115a15760405162461bcd60e51b815260206004820152601060248201526f496e76616c696420656e64206461746560801b60448201526064016106cb565b5f826001600160401b0316116115f95760405162461bcd60e51b815260206004820152601e60248201527f496e76616c6964206d696e696d756d20616374697669747920636f756e74000060448201526064016106cb565b5f868152600660205260409020546001600160a01b03161561165d5760405162461bcd60e51b815260206004820152601860248201527f4368616c6c656e676520616c726561647920657869737473000000000000000060448201526064016106cb565b5f86815260066020526040902080546001600160a01b0319163317905561168c611685611236565b8787611b09565b6116cc5760405162461bcd60e51b8152602060048201526011602482015270496e76616c6964207369676e617475726560781b60448201526064016106cb565b335f90815260036020818152604080842080548c01908190556002835293205491905210156117345760405162461bcd60e51b8152602060048201526014602482015273496e73756666696369656e742062616c616e636560601b60448201526064016106cb565b6040805160e08101825287815281515f808252602080830185528084019283528385018c905260608401899052608084018890526001600160401b03871660a085015260c0840182905260018054835260058252949091208351815591518051939492936117a99385019291909101906124e5565b5060408201516002820155606082015160038201556080820151600482015560a08201516005909101805460c0909301511515600160401b0268ffffffffffffffffff199093166001600160401b0390921691909117919091179055600154611813903390611de7565b6001546040518781523391907feac6e327176e3b77d65d71ae889f4dc718d3cc814cfdfcb18da967415fc542239060200160405180910390a360018054905f61185b83612a1b565b90915550979650505050505050565b606061187582611958565b505f61187f611e00565b90505f81511161189d5760405180602001604052805f8152506118c8565b806118a784611e20565b6040516020016118b8929190612a4a565b6040516020818303038152906040525b9392505050565b6001600160a01b039182165f9081527f80bb2b638cc20bc4d0a60d66940f3ab4a00c1d7b313497ca82fb0b4ab00793056020908152604080832093909416825291909152205460ff1690565b611923611ad7565b6001600160a01b03811661194c57604051631e4fbdf760e01b81525f60048201526024016106cb565b61195581611ba0565b50565b5f5f61196383611eaf565b90506001600160a01b0381166104cd57604051637e27328960e01b8152600481018490526024016106cb565b5f9081527f80bb2b638cc20bc4d0a60d66940f3ab4a00c1d7b313497ca82fb0b4ab007930460205260409020546001600160a01b031690565b61096b8383836001611ee8565b5f5f516020612bfe5f395f51905f52816119ee85611eaf565b90506001600160a01b03841615611a0a57611a0a818587611ffb565b6001600160a01b03811615611a4657611a255f865f5f611ee8565b6001600160a01b0381165f908152600383016020526040902080545f190190555b6001600160a01b03861615611a76576001600160a01b0386165f9081526003830160205260409020805460010190555b5f85815260028301602052604080822080546001600160a01b0319166001600160a01b038a811691821790925591518893918516917fddf252ad1be2c89b69c2b068fc378daa952ba7f163c4a11628f55a4df523b3ef91a495945050505050565b33611ae0611236565b6001600160a01b031614610f695760405163118cdaa760e01b81523360048201526024016106cb565b7f19457468657265756d205369676e6564204d6573736167653a0a3332000000005f908152601c839052603c81206001600160a01b038516611b4b828561205f565b6001600160a01b03161495945050505050565b611b66612087565b611955816120d0565b611b77612087565b61059382826120d8565b5f6064611b8c612108565b611b969084612a5e565b6104cd9190612a89565b7f9016d09d72d40fdae2fd8ceac6b6234c7706214fd39c1cd1e609a0528c19930080546001600160a01b031981166001600160a01b03848116918217845560405192169182907f8be0079c531659141344cd1fd0a4f28419497f9722a3daafe3b4186f6b6457e0905f90a3505050565b5f516020612bfe5f395f51905f526001600160a01b038316611c5057604051630b61174360e31b81526001600160a01b03841660048201526024016106cb565b6001600160a01b038481165f818152600584016020908152604080832094881680845294825291829020805460ff191687151590811790915591519182527f17307eab39ab6107e8899845ad3d59bd9653f200f220920489ca2b5937696c31910160405180910390a350505050565b6001600160a01b0383163b15611de057604051630a85bd0160e11b81526001600160a01b0384169063150b7a0290611d01908890889087908790600401612aa8565b6020604051808303815f875af1925050508015611d3b575060408051601f3d908101601f19168201909252611d3891810190612ae4565b60015b611da2573d808015611d68576040519150601f19603f3d011682016040523d82523d5f602084013e611d6d565b606091505b5080515f03611d9a57604051633250574960e11b81526001600160a01b03851660048201526024016106cb565b805181602001fd5b6001600160e01b03198116630a85bd0160e11b14611dde57604051633250574960e11b81526001600160a01b03851660048201526024016106cb565b505b5050505050565b610593828260405180602001604052805f815250612168565b6060604051806060016040528060248152602001612c1e60249139905090565b60605f611e2c8361217f565b60010190505f816001600160401b03811115611e4a57611e4a6126e3565b6040519080825280601f01601f191660200182016040528015611e74576020820181803683370190505b5090508181016020015b5f19016f181899199a1a9b1b9c1cb0b131b232b360811b600a86061a8153600a8504945084611e7e57509392505050565b5f9081527f80bb2b638cc20bc4d0a60d66940f3ab4a00c1d7b313497ca82fb0b4ab007930260205260409020546001600160a01b031690565b5f516020612bfe5f395f51905f528180611f0a57506001600160a01b03831615155b15611fcb575f611f1985611958565b90506001600160a01b03841615801590611f455750836001600160a01b0316816001600160a01b031614155b8015611f585750611f5681856118cf565b155b15611f815760405163a9fbf51f60e01b81526001600160a01b03851660048201526024016106cb565b8215611fc95784866001600160a01b0316826001600160a01b03167f8c5be1e5ebec7d5bd14f71427d1e84f3dd0314c0f7b2291e5b200ac8c7c3b92560405160405180910390a45b505b5f93845260040160205250506040902080546001600160a01b0319166001600160a01b0392909216919091179055565b612006838383612256565b61096b576001600160a01b03831661203457604051637e27328960e01b8152600481018290526024016106cb565b60405163177e802f60e01b81526001600160a01b0383166004820152602481018290526044016106cb565b5f5f5f5f61206d86866122bb565b92509250925061207d8282612304565b5090949350505050565b7ff0c57e16840df040f15088dc2f81fe391c3923bec73e23a9662efc9c229c6a0054600160401b900460ff16610f6957604051631afcd79f60e31b815260040160405180910390fd5b611923612087565b6120e0612087565b5f516020612bfe5f395f51905f52806120f98482612b43565b506001810161072e8382612b43565b5f606460014303404160405160200161213d92919091825260601b6bffffffffffffffffffffffff1916602082015260340190565b604051602081830303815290604052805190602001205f1c8161216257612162612a75565b06905090565b61217283836123bc565b61096b335f858585611cbf565b5f8072184f03e93ff9f4daa797ed6e38ed64bf6a1f0160401b83106121bd5772184f03e93ff9f4daa797ed6e38ed64bf6a1f0160401b830492506040015b6d04ee2d6d415b85acef810000000083106121e9576d04ee2d6d415b85acef8100000000830492506020015b662386f26fc10000831061220757662386f26fc10000830492506010015b6305f5e100831061221f576305f5e100830492506008015b612710831061223357612710830492506004015b60648310612245576064830492506002015b600a83106104cd5760010192915050565b5f6001600160a01b038316158015906122b35750826001600160a01b0316846001600160a01b0316148061228f575061228f84846118cf565b806122b35750826001600160a01b03166122a88361198f565b6001600160a01b0316145b949350505050565b5f5f5f83516041036122f2576020840151604085015160608601515f1a6122e48882858561241d565b9550955095505050506122fd565b505081515f91506002905b9250925092565b5f826003811115612317576123176127fc565b03612320575050565b6001826003811115612334576123346127fc565b036123525760405163f645eedf60e01b815260040160405180910390fd5b6002826003811115612366576123666127fc565b036123875760405163fce698f760e01b8152600481018290526024016106cb565b600382600381111561239b5761239b6127fc565b03610593576040516335e2f38360e21b8152600481018290526024016106cb565b6001600160a01b0382166123e557604051633250574960e11b81525f60048201526024016106cb565b5f6123f183835f6119d5565b90506001600160a01b0381161561096b576040516339e3563760e11b81525f60048201526024016106cb565b5f80807f7fffffffffffffffffffffffffffffff5d576e7357a4501ddfe92f46681b20a084111561245657505f915060039050826124db565b604080515f808252602082018084528a905260ff891692820192909252606081018790526080810186905260019060a0016020604051602081039080840390855afa1580156124a7573d5f5f3e3d5ffd5b5050604051601f1901519150506001600160a01b0381166124d257505f9250600191508290506124db565b92505f91508190505b9450945094915050565b828054828255905f5260205f2090810192821561251e579160200282015b8281111561251e578251825591602001919060010190612503565b5061252a92915061252e565b5090565b5b8082111561252a575f815560010161252f565b6001600160e01b031981168114611955575f5ffd5b5f60208284031215612567575f5ffd5b81356118c881612542565b5f81518084528060208401602086015e5f602082860101526020601f19601f83011685010191505092915050565b602081525f6118c86020830184612572565b80356001600160a01b03811681146125c8575f5ffd5b919050565b5f602082840312156125dd575f5ffd5b6118c8826125b2565b5f602082840312156125f6575f5ffd5b5035919050565b5f5f6040838503121561260e575f5ffd5b612617836125b2565b946020939093013593505050565b5f60e0820189835260e060208401528089518083526101008501915060208b0192505f5b81811015612667578351835260209384019390920191600101612649565b5050809250505086604083015285606083015284608083015261269560a08301856001600160401b03169052565b82151560c083015298975050505050505050565b5f5f5f606084860312156126bb575f5ffd5b6126c4846125b2565b92506126d2602085016125b2565b929592945050506040919091013590565b634e487b7160e01b5f52604160045260245ffd5b5f82601f830112612706575f5ffd5b81356001600160401b0381111561271f5761271f6126e3565b604051601f8201601f19908116603f011681016001600160401b038111828210171561274d5761274d6126e3565b604052818152838201602001851015612764575f5ffd5b816020850160208301375f918101602001919091529392505050565b5f5f5f60608486031215612792575f5ffd5b833592506020840135915060408401356001600160401b038111156127b5575f5ffd5b6127c1868287016126f7565b9150509250925092565b5f5f604083850312156127dc575f5ffd5b6127e5836125b2565b91506127f3602084016125b2565b90509250929050565b634e487b7160e01b5f52602160045260245ffd5b6003811061282c57634e487b7160e01b5f52602160045260245ffd5b9052565b602081016104cd8284612810565b8015158114611955575f5ffd5b5f5f6040838503121561285c575f5ffd5b612865836125b2565b915060208301356128758161283e565b809150509250929050565b5f5f5f5f60808587031215612893575f5ffd5b61289c856125b2565b93506128aa602086016125b2565b92506040850135915060608501356001600160401b038111156128cb575f5ffd5b6128d7878288016126f7565b91505092959194509250565b5f5f5f5f5f5f60c087890312156128f8575f5ffd5b863595506020870135945060408701356001600160401b0381111561291b575f5ffd5b61292789828a016126f7565b945050606087013592506080870135915060a08701356001600160401b0381168114612951575f5ffd5b809150509295509295509295565b600181811c9082168061297357607f821691505b60208210810361299157634e487b7160e01b5f52602260045260245ffd5b50919050565b634e487b7160e01b5f52603260045260245ffd5b634e487b7160e01b5f52601160045260245ffd5b818103818111156104cd576104cd6129ab565b5f602082840312156129e2575f5ffd5b81516118c88161283e565b808201808211156104cd576104cd6129ab565b60408101612a0e8285612810565b8260208301529392505050565b5f60018201612a2c57612a2c6129ab565b5060010190565b5f81518060208401855e5f93019283525090919050565b5f6122b3612a588386612a33565b84612a33565b80820281158282048414176104cd576104cd6129ab565b634e487b7160e01b5f52601260045260245ffd5b5f82612aa357634e487b7160e01b5f52601260045260245ffd5b500490565b6001600160a01b03858116825284166020820152604081018390526080606082018190525f90612ada90830184612572565b9695505050505050565b5f60208284031215612af4575f5ffd5b81516118c881612542565b601f82111561096b57805f5260205f20601f840160051c81016020851015612b245750805b601f840160051c820191505b81811015611de0575f8155600101612b30565b81516001600160401b03811115612b5c57612b5c6126e3565b612b7081612b6a845461295f565b84612aff565b6020601f821160018114612ba2575f8315612b8b5750848201515b5f19600385901b1c1916600184901b178455611de0565b5f84815260208120601f198516915b82811015612bd15787850151825560209485019460019092019101612bb1565b5084821015612bee57868401515f19600387901b60f8161c191681555b50505050600190811b0190555056fe80bb2b638cc20bc4d0a60d66940f3ab4a00c1d7b313497ca82fb0b4ab007930068747470733a2f2f6173736574732e6f67756f67752e6d652f6368616c6c656e6765732fa2646970667358221220c9459174e7161d830bb339483f3af83855c0ca42f81502c13e4261b9d4faebae64736f6c634300081c0033","linkReferences":{}},"methodIdentifiers":{"approve(address,uint256)":"095ea7b3","balanceOf(address)":"70a08231","challengeHashes(bytes32)":"29071254","completeChallenge(address,uint256)":"6e9b9925","createChallenge(uint256,bytes32,bytes,uint256,uint256,uint64)":"be3f2e3a","depositReward(address,uint256)":"7db4e28f","getApproved(uint256)":"081812fc","getChallenge(uint256)":"1bdd4b74","getChallengeStatus(uint256)":"832c8bc6","initialize(address,address)":"485cc955","isApprovedForAll(address,address)":"e985e9c5","name()":"06fdde03","owner()":"8da5cb5b","ownerOf(uint256)":"6352211e","renounceOwnership()":"715018a6","rewardToken()":"f7c618c1","safeTransferFrom(address,address,uint256)":"42842e0e","safeTransferFrom(address,address,uint256,bytes)":"b88d4fde","setApprovalForAll(address,bool)":"a22cb465","submitActivity(uint256,bytes32,bytes)":"343020a5","supportsInterface(bytes4)":"01ffc9a7","symbol()":"95d89b41","tokenURI(uint256)":"c87b56dd","transferFrom(address,address,uint256)":"23b872dd","transferOwnership(address)":"f2fde38b","userAllocatedRewards(address)":"91469fbe","userReserves(address)":"0d08e181","withdrawReward(address)":"b86e321c","withdrawableUnlockTime(address)":"07feb309"},"storageLayout":{"storage":[{"astId":49336,"contract":"src/Oguogu.sol:OGUOGU","label":"rewardToken","offset":0,"slot":"0","type":"t_contract(IERC20)43429"},{"astId":49338,"contract":"src/Oguogu.sol:OGUOGU","label":"_challengeId","offset":0,"slot":"1","type":"t_uint256"},{"astId":49342,"contract":"src/Oguogu.sol:OGUOGU","label":"_userReserves","offset":0,"slot":"2","type":"t_mapping(t_address,t_uint256)"},{"astId":49346,"contract":"src/Oguogu.sol:OGUOGU","label":"_userAllocatedRewards","offset":0,"slot":"3","type":"t_mapping(t_address,t_uint256)"},{"astId":49350,"contract":"src/Oguogu.sol:OGUOGU","label":"_withdrawableUnlockTime","offset":0,"slot":"4","type":"t_mapping(t_address,t_uint256)"},{"astId":49355,"contract":"src/Oguogu.sol:OGUOGU","label":"_challenges","offset":0,"slot":"5","type":"t_mapping(t_uint256,t_struct(Challenge)49375_storage)"},{"astId":49359,"contract":"src/Oguogu.sol:OGUOGU","label":"_challengeHashes","offset":0,"slot":"6","type":"t_mapping(t_bytes32,t_address)"}],"types":{"t_address":{"encoding":"inplace","label":"address","numberOfBytes":"20"},"t_array(t_bytes32)dyn_storage":{"encoding":"dynamic_array","label":"bytes32[]","numberOfBytes":"32","base":"t_bytes32"},"t_bool":{"encoding":"inplace","label":"bool","numberOfBytes":"1"},"t_bytes32":{"encoding":"inplace","label":"bytes32","numberOfBytes":"32"},"t_contract(IERC20)43429":{"encoding":"inplace","label":"contract IERC20","numberOfBytes":"20"},"t_mapping(t_address,t_uint256)":{"encoding":"mapping","key":"t_address","label":"mapping(address => uint256)","numberOfBytes":"32","value":"t_uint256"},"t_mapping(t_bytes32,t_address)":{"encoding":"mapping","key":"t_bytes32","label":"mapping(bytes32 => address)","numberOfBytes":"32","value":"t_address"},"t_mapping(t_uint256,t_struct(Challenge)49375_storage)":{"encoding":"mapping","key":"t_uint256","label":"mapping(uint256 => struct OGUOGU.Challenge)","numberOfBytes":"32","value":"t_struct(Challenge)49375_storage"},"t_struct(Challenge)49375_storage":{"encoding":"inplace","label":"struct OGUOGU.Challenge","numberOfBytes":"192","members":[{"astId":49361,"contract":"src/Oguogu.sol:OGUOGU","label":"challengeHash","offset":0,"slot":"0","type":"t_bytes32"},{"astId":49364,"contract":"src/Oguogu.sol:OGUOGU","label":"activityHashes","offset":0,"slot":"1","type":"t_array(t_bytes32)dyn_storage"},{"astId":49366,"contract":"src/Oguogu.sol:OGUOGU","label":"reward","offset":0,"slot":"2","type":"t_uint256"},{"astId":49368,"contract":"src/Oguogu.sol:OGUOGU","label":"startDate","offset":0,"slot":"3","type":"t_uint256"},{"astId":49370,"contract":"src/Oguogu.sol:OGUOGU","label":"endDate","offset":0,"slot":"4","type":"t_uint256"},{"astId":49372,"contract":"src/Oguogu.sol:OGUOGU","label":"minimumActivityCount","offset":0,"slot":"5","type":"t_uint64"},{"astId":49374,"contract":"src/Oguogu.sol:OGUOGU","label":"isClosed","offset":8,"slot":"5","type":"t_bool"}]},"t_uint256":{"encoding":"inplace","label":"uint256","numberOfBytes":"32"},"t_uint64":{"encoding":"inplace","label":"uint64","numberOfBytes":"8"}}},"id":66}