{"abi":[{"type":"function","name":"approve","inputs":[{"name":"to","type":"address","internalType":"address"},{"name":"tokenId","type":"uint256","internalType":"uint256"}],"outputs":[],"stateMutability":"nonpayable"},{"type":"function","name":"balanceOf","inputs":[{"name":"owner","type":"address","internalType":"address"}],"outputs":[{"name":"","type":"uint256","internalType":"uint256"}],"stateMutability":"view"},{"type":"function","name":"calculateChallengeHash","inputs":[{"name":"title","type":"string","internalType":"string"},{"name":"reward","type":"uint128","internalType":"uint128"},{"name":"challengeType","type":"uint8","internalType":"enum OGUOGU.ChallengeType"},{"name":"challenger","type":"address","internalType":"address"},{"name":"startDate","type":"uint64","internalType":"uint64"},{"name":"endDate","type":"uint64","internalType":"uint64"},{"name":"nonce","type":"uint32","internalType":"uint32"},{"name":"minimumActivityCount","type":"uint8","internalType":"uint8"}],"outputs":[{"name":"","type":"bytes32","internalType":"bytes32"}],"stateMutability":"pure"},{"type":"function","name":"challengeHashes","inputs":[{"name":"challengeHash","type":"bytes32","internalType":"bytes32"}],"outputs":[{"name":"","type":"address","internalType":"address"}],"stateMutability":"view"},{"type":"function","name":"completeChallenge","inputs":[{"name":"receipent","type":"address","internalType":"address"},{"name":"tokenId","type":"uint256","internalType":"uint256"}],"outputs":[],"stateMutability":"nonpayable"},{"type":"function","name":"createChallenge","inputs":[{"name":"title","type":"string","internalType":"string"},{"name":"reward","type":"uint128","internalType":"uint128"},{"name":"challengeType","type":"uint8","internalType":"enum OGUOGU.ChallengeType"},{"name":"challengeSignature","type":"bytes","internalType":"bytes"},{"name":"startDate","type":"uint64","internalType":"uint64"},{"name":"endDate","type":"uint64","internalType":"uint64"},{"name":"nonce","type":"uint32","internalType":"uint32"},{"name":"minimumActivityCount","type":"uint8","internalType":"uint8"}],"outputs":[{"name":"","type":"uint256","internalType":"uint256"}],"stateMutability":"nonpayable"},{"type":"function","name":"depositReward","inputs":[{"name":"challenger","type":"address","internalType":"address"},{"name":"amount","type":"uint128","internalType":"uint128"}],"outputs":[],"stateMutability":"nonpayable"},{"type":"function","name":"getApproved","inputs":[{"name":"tokenId","type":"uint256","internalType":"uint256"}],"outputs":[{"name":"","type":"address","internalType":"address"}],"stateMutability":"view"},{"type":"function","name":"getChallenge","inputs":[{"name":"tokenId","type":"uint256","internalType":"uint256"}],"outputs":[{"name":"","type":"bytes32","internalType":"bytes32"},{"name":"","type":"bytes32[]","internalType":"bytes32[]"},{"name":"","type":"uint256","internalType":"uint256"},{"name":"","type":"uint256","internalType":"uint256"},{"name":"","type":"uint256","internalType":"uint256"},{"name":"","type":"uint64","internalType":"uint64"},{"name":"","type":"bool","internalType":"bool"}],"stateMutability":"view"},{"type":"function","name":"getChallengeStatus","inputs":[{"name":"tokenId","type":"uint256","internalType":"uint256"}],"outputs":[{"name":"","type":"uint8","internalType":"enum OGUOGU.ChallengeStatus"}],"stateMutability":"view"},{"type":"function","name":"initialize","inputs":[{"name":"_rewardToken","type":"address","internalType":"address"},{"name":"_operator","type":"address","internalType":"address"},{"name":"_baseURI","type":"string","internalType":"string"}],"outputs":[],"stateMutability":"nonpayable"},{"type":"function","name":"isApprovedForAll","inputs":[{"name":"owner","type":"address","internalType":"address"},{"name":"operator","type":"address","internalType":"address"}],"outputs":[{"name":"","type":"bool","internalType":"bool"}],"stateMutability":"view"},{"type":"function","name":"name","inputs":[],"outputs":[{"name":"","type":"string","internalType":"string"}],"stateMutability":"view"},{"type":"function","name":"owner","inputs":[],"outputs":[{"name":"","type":"address","internalType":"address"}],"stateMutability":"view"},{"type":"function","name":"ownerOf","inputs":[{"name":"tokenId","type":"uint256","internalType":"uint256"}],"outputs":[{"name":"","type":"address","internalType":"address"}],"stateMutability":"view"},{"type":"function","name":"renounceOwnership","inputs":[],"outputs":[],"stateMutability":"nonpayable"},{"type":"function","name":"rewardToken","inputs":[],"outputs":[{"name":"","type":"address","internalType":"contract IERC20"}],"stateMutability":"view"},{"type":"function","name":"safeTransferFrom","inputs":[{"name":"from","type":"address","internalType":"address"},{"name":"to","type":"address","internalType":"address"},{"name":"tokenId","type":"uint256","internalType":"uint256"}],"outputs":[],"stateMutability":"nonpayable"},{"type":"function","name":"safeTransferFrom","inputs":[{"name":"from","type":"address","internalType":"address"},{"name":"to","type":"address","internalType":"address"},{"name":"tokenId","type":"uint256","internalType":"uint256"},{"name":"data","type":"bytes","internalType":"bytes"}],"outputs":[],"stateMutability":"nonpayable"},{"type":"function","name":"setApprovalForAll","inputs":[{"name":"operator","type":"address","internalType":"address"},{"name":"approved","type":"bool","internalType":"bool"}],"outputs":[],"stateMutability":"nonpayable"},{"type":"function","name":"submitActivity","inputs":[{"name":"tokenId","type":"uint256","internalType":"uint256"},{"name":"activityHash","type":"bytes32","internalType":"bytes32"},{"name":"activitySignature","type":"bytes","internalType":"bytes"}],"outputs":[],"stateMutability":"nonpayable"},{"type":"function","name":"supportsInterface","inputs":[{"name":"interfaceId","type":"bytes4","internalType":"bytes4"}],"outputs":[{"name":"","type":"bool","internalType":"bool"}],"stateMutability":"view"},{"type":"function","name":"symbol","inputs":[],"outputs":[{"name":"","type":"string","internalType":"string"}],"stateMutability":"view"},{"type":"function","name":"tokenURI","inputs":[{"name":"tokenId","type":"uint256","internalType":"uint256"}],"outputs":[{"name":"","type":"string","internalType":"string"}],"stateMutability":"view"},{"type":"function","name":"transferFrom","inputs":[{"name":"from","type":"address","internalType":"address"},{"name":"to","type":"address","internalType":"address"},{"name":"tokenId","type":"uint256","internalType":"uint256"}],"outputs":[],"stateMutability":"nonpayable"},{"type":"function","name":"transferOwnership","inputs":[{"name":"newOwner","type":"address","internalType":"address"}],"outputs":[],"stateMutability":"nonpayable"},{"type":"function","name":"userAccumulatedReserves","inputs":[{"name":"challenger","type":"address","internalType":"address"}],"outputs":[{"name":"","type":"uint256","internalType":"uint256"}],"stateMutability":"view"},{"type":"function","name":"userAllocatedRewards","inputs":[{"name":"challenger","type":"address","internalType":"address"}],"outputs":[{"name":"","type":"uint256","internalType":"uint256"}],"stateMutability":"view"},{"type":"function","name":"userReserves","inputs":[{"name":"challenger","type":"address","internalType":"address"}],"outputs":[{"name":"","type":"uint256","internalType":"uint256"}],"stateMutability":"view"},{"type":"function","name":"withdrawReward","inputs":[{"name":"receiver","type":"address","internalType":"address"}],"outputs":[],"stateMutability":"nonpayable"},{"type":"function","name":"withdrawableUnlockTime","inputs":[{"name":"challenger","type":"address","internalType":"address"}],"outputs":[{"name":"","type":"uint256","internalType":"uint256"}],"stateMutability":"view"},{"type":"event","name":"Approval","inputs":[{"name":"owner","type":"address","indexed":true,"internalType":"address"},{"name":"approved","type":"address","indexed":true,"internalType":"address"},{"name":"tokenId","type":"uint256","indexed":true,"internalType":"uint256"}],"anonymous":false},{"type":"event","name":"ApprovalForAll","inputs":[{"name":"owner","type":"address","indexed":true,"internalType":"address"},{"name":"operator","type":"address","indexed":true,"internalType":"address"},{"name":"approved","type":"bool","indexed":false,"internalType":"bool"}],"anonymous":false},{"type":"event","name":"BatchMetadataUpdate","inputs":[{"name":"_fromTokenId","type":"uint256","indexed":false,"internalType":"uint256"},{"name":"_toTokenId","type":"uint256","indexed":false,"internalType":"uint256"}],"anonymous":false},{"type":"event","name":"ChallengeCompleted","inputs":[{"name":"tokenId","type":"uint256","indexed":true,"internalType":"uint256"},{"name":"challenger","type":"address","indexed":true,"internalType":"address"},{"name":"status","type":"uint8","indexed":false,"internalType":"enum OGUOGU.ChallengeStatus"},{"name":"paymentReward","type":"uint128","indexed":false,"internalType":"uint128"}],"anonymous":false},{"type":"event","name":"ChallengeCreated","inputs":[{"name":"tokenId","type":"uint256","indexed":true,"internalType":"uint256"},{"name":"challenger","type":"address","indexed":true,"internalType":"address"},{"name":"challengeHash","type":"bytes32","indexed":false,"internalType":"bytes32"}],"anonymous":false},{"type":"event","name":"DepositReward","inputs":[{"name":"challenger","type":"address","indexed":true,"internalType":"address"},{"name":"amount","type":"uint128","indexed":false,"internalType":"uint128"}],"anonymous":false},{"type":"event","name":"Initialized","inputs":[{"name":"version","type":"uint64","indexed":false,"internalType":"uint64"}],"anonymous":false},{"type":"event","name":"MetadataUpdate","inputs":[{"name":"_tokenId","type":"uint256","indexed":false,"internalType":"uint256"}],"anonymous":false},{"type":"event","name":"OwnershipTransferred","inputs":[{"name":"previousOwner","type":"address","indexed":true,"internalType":"address"},{"name":"newOwner","type":"address","indexed":true,"internalType":"address"}],"anonymous":false},{"type":"event","name":"SubmitActivity","inputs":[{"name":"tokenId","type":"uint256","indexed":true,"internalType":"uint256"},{"name":"challenger","type":"address","indexed":true,"internalType":"address"},{"name":"challengeHash","type":"bytes32","indexed":false,"internalType":"bytes32"},{"name":"activityHash","type":"bytes32","indexed":false,"internalType":"bytes32"}],"anonymous":false},{"type":"event","name":"Transfer","inputs":[{"name":"from","type":"address","indexed":true,"internalType":"address"},{"name":"to","type":"address","indexed":true,"internalType":"address"},{"name":"tokenId","type":"uint256","indexed":true,"internalType":"uint256"}],"anonymous":false},{"type":"event","name":"WithdrawReward","inputs":[{"name":"challenger","type":"address","indexed":true,"internalType":"address"},{"name":"amount","type":"uint128","indexed":false,"internalType":"uint128"}],"anonymous":false},{"type":"error","name":"ECDSAInvalidSignature","inputs":[]},{"type":"error","name":"ECDSAInvalidSignatureLength","inputs":[{"name":"length","type":"uint256","internalType":"uint256"}]},{"type":"error","name":"ECDSAInvalidSignatureS","inputs":[{"name":"s","type":"bytes32","internalType":"bytes32"}]},{"type":"error","name":"ERC721IncorrectOwner","inputs":[{"name":"sender","type":"address","internalType":"address"},{"name":"tokenId","type":"uint256","internalType":"uint256"},{"name":"owner","type":"address","internalType":"address"}]},{"type":"error","name":"ERC721InsufficientApproval","inputs":[{"name":"operator","type":"address","internalType":"address"},{"name":"tokenId","type":"uint256","internalType":"uint256"}]},{"type":"error","name":"ERC721InvalidApprover","inputs":[{"name":"approver","type":"address","internalType":"address"}]},{"type":"error","name":"ERC721InvalidOperator","inputs":[{"name":"operator","type":"address","internalType":"address"}]},{"type":"error","name":"ERC721InvalidOwner","inputs":[{"name":"owner","type":"address","internalType":"address"}]},{"type":"error","name":"ERC721InvalidReceiver","inputs":[{"name":"receiver","type":"address","internalType":"address"}]},{"type":"error","name":"ERC721InvalidSender","inputs":[{"name":"sender","type":"address","internalType":"address"}]},{"type":"error","name":"ERC721NonexistentToken","inputs":[{"name":"tokenId","type":"uint256","internalType":"uint256"}]},{"type":"error","name":"InvalidInitialization","inputs":[]},{"type":"error","name":"NotInitializing","inputs":[]},{"type":"error","name":"OwnableInvalidOwner","inputs":[{"name":"owner","type":"address","internalType":"address"}]},{"type":"error","name":"OwnableUnauthorizedAccount","inputs":[{"name":"account","type":"address","internalType":"address"}]}],"bytecode":{"object":"0x6080604052348015600e575f5ffd5b506134328061001c5f395ff3fe608060405234801561000f575f5ffd5b50600436106101dc575f3560e01c806370a0823111610109578063b88d4fde1161009e578063ef840e161161006e578063ef840e16146104c0578063f2fde38b146104d3578063f7c618c1146104e6578063feb29ece146104f8575f5ffd5b8063b88d4fde14610474578063c617b17f14610487578063c87b56dd1461049a578063e985e9c5146104ad575f5ffd5b806391469fbe116100d957806391469fbe1461040e57806395d89b4114610446578063a22cb4651461044e578063b86e321c14610461575f5ffd5b806370a08231146103cb578063715018a6146103de578063832c8bc6146103e65780638da5cb5b14610406575f5ffd5b806323b872dd1161017f57806342842e0e1161014f57806342842e0e1461037f5780634571e3a6146103925780636352211e146103a55780636e9b9925146103b8575f5ffd5b806323b872dd146102fd57806329071254146103105780632fb7e09914610338578063343020a51461036c575f5ffd5b8063081812fc116101ba578063081812fc14610266578063095ea7b3146102915780630d08e181146102a65780631bdd4b74146102d7575f5ffd5b806301ffc9a7146101e057806306fdde031461020857806307feb3091461021d575b5f5ffd5b6101f36101ee366004612a6f565b61050b565b60405190151581526020015b60405180910390f35b61021061055c565b6040516101ff9190612ab8565b61025861022b366004612ae5565b6001600160a01b03165f90815260036020526040902060010154600160801b90046001600160401b031690565b6040519081526020016101ff565b610279610274366004612afe565b6105fd565b6040516001600160a01b0390911681526020016101ff565b6102a461029f366004612b15565b610611565b005b6102586102b4366004612ae5565b6001600160a01b03165f908152600360205260409020546001600160801b031690565b6102ea6102e5366004612afe565b610620565b6040516101ff9796959493929190612b3d565b6102a461030b366004612bba565b6107a6565b61027961031e366004612afe565b5f908152600560205260409020546001600160a01b031690565b610258610346366004612ae5565b6001600160a01b03165f908152600360205260409020600101546001600160801b031690565b6102a461037a366004612c97565b610834565b6102a461038d366004612bba565b610a51565b6102a46103a0366004612ce2565b610a70565b6102796103b3366004612afe565b610c93565b6102a46103c6366004612b15565b610c9d565b6102586103d9366004612ae5565b6110da565b6102a4611132565b6103f96103f4366004612afe565b611145565b6040516101ff9190612d4d565b6102796112a4565b61025861041c366004612ae5565b6001600160a01b03165f90815260036020526040902054600160801b90046001600160801b031690565b6102106112d2565b6102a461045c366004612d68565b611310565b6102a461046f366004612ae5565b61131b565b6102a4610482366004612d9d565b611558565b610258610495366004612e5d565b611570565b6102106104a8366004612afe565b6115b5565b6101f36104bb366004612f08565b61161a565b6102a46104ce366004612f39565b611666565b6102a46104e1366004612ae5565b6118fe565b5f54610279906001600160a01b031681565b610258610506366004612f61565b61193b565b5f6001600160e01b031982166380ac58cd60e01b148061053b57506001600160e01b03198216635b5e139f60e01b145b8061055657506301ffc9a760e01b6001600160e01b03198316145b92915050565b5f5160206133dd5f395f51905f52805460609190819061057b90612fec565b80601f01602080910402602001604051908101604052809291908181526020018280546105a790612fec565b80156105f25780601f106105c9576101008083540402835291602001916105f2565b820191905f5260205f20905b8154815290600101906020018083116105d557829003601f168201915b505050505091505090565b5f61060782611e06565b5061055682611e3d565b61061c828233611e76565b5050565b5f60605f5f5f5f5f5f60045f8a81526020019081526020015f20604051806101200160405290815f82015481526020016001820180548060200260200160405190810160405280929190818152602001828054801561069c57602002820191905f5260205f20905b815481526020019060010190808311610688575b505050918352505060028201546001600160801b03811660208301526001600160401b03600160801b820481166040840152600160c01b909104166060820152600382015460809091019060ff1660018111156106fb576106fb612d25565b600181111561070c5761070c612d25565b81526003919091015463ffffffff6101008083049190911660208085019190915260ff600160281b84048116604080870191909152600160301b909404811615156060958601528551918601519386015194860151608087015160e08801519790940151929e50939c506001600160801b039094169a506001600160401b0392831699509116965091169350915050919395979092949650565b6001600160a01b0382166107d457604051633250574960e11b81525f60048201526024015b60405180910390fd5b5f6107e0838333611e83565b9050836001600160a01b0316816001600160a01b03161461082e576040516364283d7b60e01b81526001600160a01b03808616600483015260248201849052821660448201526064016107cb565b50505050565b61083c611f85565b5f61084684611145565b600281111561085757610857612d25565b1461089d5760405162461bcd60e51b815260206004820152601660248201527518da185b1b195b99d9481a5cc818dbdb5c1b195d195960521b60448201526064016107cb565b6108b06108a984610c93565b8383611fb7565b6108f05760405162461bcd60e51b8152602060048201526011602482015270496e76616c6964207369676e617475726560781b60448201526064016107cb565b5f5b5f8481526004602052604090206001015481101561098d575f84815260046020526040902060010180548491908390811061092f5761092f613024565b905f5260205f200154036109855760405162461bcd60e51b815260206004820152601a60248201527f416374697669747920616c7265616479207375626d697474656400000000000060448201526064016107cb565b6001016108f2565b505f838152600460209081526040822060019081018054918201815583529120018290556109ba83610c93565b6001600160a01b0316837f04e795b277c586184b86dd1444bf0ff4f9b20068da2a6345c599fe509ba1b87f60045f8781526020019081526020015f205f015485604051610a11929190918252602082015260400190565b60405180910390a36040518381527ff8e1a15aba9398e019f0b49df1a4fde98ee17ae345cb5f6b5e2c27f5033e8ce79060200160405180910390a1505050565b610a6b83838360405180602001604052805f815250611558565b505050565b7ff0c57e16840df040f15088dc2f81fe391c3923bec73e23a9662efc9c229c6a008054600160401b810460ff1615906001600160401b03165f81158015610ab45750825b90505f826001600160401b03166001148015610acf5750303b155b905081158015610add575080155b15610afb5760405163f92ee8a960e01b815260040160405180910390fd5b845467ffffffffffffffff191660011785558315610b2557845460ff60401b1916600160401b1785555b6001600160a01b038816610b735760405162461bcd60e51b8152602060048201526015602482015274496e76616c696420746f6b656e206164647265737360581b60448201526064016107cb565b6001600160a01b038716610bc95760405162461bcd60e51b815260206004820152601860248201527f496e76616c6964206f70657261746f722061646472657373000000000000000060448201526064016107cb565b5f80546001600160a01b0319166001600160a01b038a16179055600180556002610bf3878261307c565b50610bfd8761200c565b610c43604051806040016040528060068152602001654f47554f475560d01b815250604051806040016040528060068152602001654f47554f475560d01b81525061201d565b8315610c8957845460ff60401b19168555604051600181527fc7f505b2f371ae2175ee4913f4499e1f2633a7b5936321eed1cdaeb6115181d29060200160405180910390a15b5050505050505050565b5f61055682611e06565b5f610ca782610c93565b9050336001600160a01b03821614610cbd578092505b5f610cc783611145565b90505f60045f8581526020019081526020015f20604051806101200160405290815f820154815260200160018201805480602002602001604051908101604052809291908181526020018280548015610d3d57602002820191905f5260205f20905b815481526020019060010190808311610d29575b505050918352505060028201546001600160801b03811660208301526001600160401b03600160801b820481166040840152600160c01b909104166060820152600382015460809091019060ff166001811115610d9c57610d9c612d25565b6001811115610dad57610dad612d25565b81526003919091015463ffffffff610100820416602083015260ff600160281b820481166040840152600160301b90910416151560609091015290505f826002811115610dfc57610dfc612d25565b03610e495760405162461bcd60e51b815260206004820152601760248201527f4368616c6c656e6765206973206e6f7420636c6f73656400000000000000000060448201526064016107cb565b80610100015115610e9c5760405162461bcd60e51b815260206004820152601b60248201527f4368616c6c656e676520697320616c726561647920636c6f736564000000000060448201526064016107cb565b5f8481526004602090815260408083206003908101805466ff0000000000001916600160301b1790556001600160a01b0387168452909152908190209082015181548290601090610eff9084906001600160801b03600160801b9091041661314a565b82546001600160801b039182166101009390930a9283029190920219909116179055505f6001846002811115610f3757610f37612d25565b0361100c57610f49836040015161202f565b5f5460405163a9059cbb60e01b81526001600160a01b038a811660048301526001600160801b038416602483015292935091169063a9059cbb906044016020604051808303815f875af1158015610fa2573d5f5f3e3d5ffd5b505050506040513d601f19601f82011682018060405250810190610fc69190613169565b508154819083905f90610fe39084906001600160801b031661314a565b92506101000a8154816001600160801b0302191690836001600160801b0316021790555061105a565b62093a808260010160108282829054906101000a90046001600160401b03166110359190613184565b92506101000a8154816001600160401b0302191690836001600160401b031602179055505b846001600160a01b0316867f598150ea0608d7d82ad3dbe630fb677412590240396a4e08562454e4d04b8b3a86846040516110969291906131a3565b60405180910390a36040518681527ff8e1a15aba9398e019f0b49df1a4fde98ee17ae345cb5f6b5e2c27f5033e8ce79060200160405180910390a150505050505050565b5f5f5160206133dd5f395f51905f526001600160a01b038316611112576040516322718ad960e21b81525f60048201526024016107cb565b6001600160a01b039092165f908152600390920160205250604090205490565b61113a611f85565b6111435f61204e565b565b5f818152600460209081526040808320815161012081018352815481526001820180548451818702810187019095528085528695929485840193909291908301828280156111b057602002820191905f5260205f20905b81548152602001906001019080831161119c575b505050918352505060028201546001600160801b03811660208301526001600160401b03600160801b820481166040840152600160c01b909104166060820152600382015460809091019060ff16600181111561120f5761120f612d25565b600181111561122057611220612d25565b81526003919091015463ffffffff61010082041660208084019190915260ff600160281b830481166040850152600160301b9092048216151560609093019290925260e08301519183015151929350161161127e5750600192915050565b4281608001516001600160401b0316101561129c5750600292915050565b505f92915050565b7f9016d09d72d40fdae2fd8ceac6b6234c7706214fd39c1cd1e609a0528c199300546001600160a01b031690565b7f80bb2b638cc20bc4d0a60d66940f3ab4a00c1d7b313497ca82fb0b4ab007930180546060915f5160206133dd5f395f51905f529161057b90612fec565b61061c3383836120be565b336001600160a01b0382166113725760405162461bcd60e51b815260206004820152601860248201527f496e76616c69642072656365697665722061646472657373000000000000000060448201526064016107cb565b6001600160a01b0381165f90815260036020526040812080549091906113aa906001600160801b03600160801b82048116911661314a565b90505f816001600160801b0316116113f55760405162461bcd60e51b815260206004820152600e60248201526d125b9d985b1a5908185b5bdd5b9d60921b60448201526064016107cb565b600182015442600160801b9091046001600160401b0316111561145a5760405162461bcd60e51b815260206004820152601c60248201527f5769746864726177616c206e6f742079657420617661696c61626c650000000060448201526064016107cb565b8154819083905f906114769084906001600160801b031661314a565b82546101009290920a6001600160801b038181021990931691831602179091555f5460405163a9059cbb60e01b81526001600160a01b03888116600483015292851660248201529116915063a9059cbb906044016020604051808303815f875af11580156114e6573d5f5f3e3d5ffd5b505050506040513d601f19601f8201168201806040525081019061150a9190613169565b506040516001600160801b03821681526001600160a01b038416907fe10712f8eb2555e8cf7077d6d0583213e8acee8f85aa249543e1d8c10f0520d59060200160405180910390a250505050565b6115638484846107a6565b61082e338585858561216d565b5f88888888888888886040516020016115909897969594939291906131de565b6040516020818303038152906040528051906020012090505b98975050505050505050565b60606115c082611e06565b505f6115ca612295565b90505f8151116115e85760405180602001604052805f815250611613565b806115f284612325565b604051602001611603929190613297565b6040516020818303038152906040525b9392505050565b6001600160a01b039182165f9081527f80bb2b638cc20bc4d0a60d66940f3ab4a00c1d7b313497ca82fb0b4ab00793056020908152604080832093909416825291909152205460ff1690565b6001600160a01b0382166116bc5760405162461bcd60e51b815260206004820152601a60248201527f496e76616c6964206368616c6c656e676572206164647265737300000000000060448201526064016107cb565b5f816001600160801b0316116117055760405162461bcd60e51b815260206004820152600e60248201526d125b9d985b1a5908185b5bdd5b9d60921b60448201526064016107cb565b5f546040516323b872dd60e01b81523360048201523060248201526001600160801b03831660448201526001600160a01b03909116906323b872dd906064016020604051808303815f875af1158015611760573d5f5f3e3d5ffd5b505050506040513d601f19601f820116820180604052508101906117849190613169565b6117c25760405162461bcd60e51b815260206004820152600f60248201526e151c985b9cd9995c8819985a5b1959608a1b60448201526064016107cb565b6001600160a01b0382165f9081526003602052604081208054909183918391906117f69084906001600160801b03166132ab565b92506101000a8154816001600160801b0302191690836001600160801b0316021790555081816001015f8282829054906101000a90046001600160801b031661183f91906132ab565b92506101000a8154816001600160801b0302191690836001600160801b03160217905550336001600160a01b0316836001600160a01b0316036118b257611889426224ea006132ca565b8160010160106101000a8154816001600160401b0302191690836001600160401b031602179055505b6040516001600160801b03831681526001600160a01b038416907f58b0086385ea1a7abaff117e2852298e1676efea11c5ba4071309ce7b71e633f9060200160405180910390a2505050565b611906611f85565b6001600160a01b03811661192f57604051631e4fbdf760e01b81525f60048201526024016107cb565b6119388161204e565b50565b5f5f886001600160801b0316116119855760405162461bcd60e51b815260206004820152600e60248201526d125b9d985b1a59081c995dd85c9960921b60448201526064016107cb565b836001600160401b0316856001600160401b0316106119db5760405162461bcd60e51b8152602060048201526012602482015271496e76616c6964207374617274206461746560701b60448201526064016107cb565b836001600160401b03164210611a265760405162461bcd60e51b815260206004820152601060248201526f496e76616c696420656e64206461746560801b60448201526064016107cb565b5f8260ff1611611a785760405162461bcd60e51b815260206004820152601e60248201527f496e76616c6964206d696e696d756d20616374697669747920636f756e74000060448201526064016107cb565b5f611a898a8a8a338a8a8a8a611570565b5f818152600560205260409020549091506001600160a01b031615611af05760405162461bcd60e51b815260206004820152601860248201527f4368616c6c656e676520616c726561647920657869737473000000000000000060448201526064016107cb565b611b02611afb6112a4565b8289611fb7565b611b425760405162461bcd60e51b8152602060048201526011602482015270496e76616c6964207369676e617475726560781b60448201526064016107cb565b5f81815260056020908152604080832080546001600160a01b0319163390811790915583526003909152902080548a908290601090611b939084906001600160801b03600160801b909104166132ab565b82546101009290920a6001600160801b038181021990931691831602179091558254808216600160801b90910490911611159050611c0a5760405162461bcd60e51b8152602060048201526014602482015273496e73756666696369656e742062616c616e636560601b60448201526064016107cb565b604080516101208101825283815281515f8152602080820184528201526001600160801b038c16918101919091526001600160401b0380891660608301528716608082015260a081018a6001811115611c6557611c65612d25565b815263ffffffff871660208083019190915260ff87166040808401919091525f6060909301839052600180548452600483529220835181558382015180519193611cb593908501929101906129fd565b506040820151600282018054606085015160808601516001600160801b039094166001600160c01b031990921691909117600160801b6001600160401b0392831602176001600160c01b0316600160c01b919093160291909117905560a082015160038201805460ff191660018381811115611d3357611d33612d25565b021790555060c08201516003909101805460e0840151610100948501511515600160301b0266ff0000000000001960ff909216600160281b0265ff00000000001963ffffffff9096169096029490941665ffffffffff0019909216919091179390931792909216179055600154611dab9033906123b4565b6001546040518381523391907feac6e327176e3b77d65d71ae889f4dc718d3cc814cfdfcb18da967415fc542239060200160405180910390a360018054905f611df3836132dd565b909155509b9a5050505050505050505050565b5f5f611e11836123cd565b90506001600160a01b03811661055657604051637e27328960e01b8152600481018490526024016107cb565b5f9081527f80bb2b638cc20bc4d0a60d66940f3ab4a00c1d7b313497ca82fb0b4ab007930460205260409020546001600160a01b031690565b610a6b8383836001612406565b5f5f5160206133dd5f395f51905f5281611e9c856123cd565b90506001600160a01b03841615611eb857611eb8818587612519565b6001600160a01b03811615611ef457611ed35f865f5f612406565b6001600160a01b0381165f908152600383016020526040902080545f190190555b6001600160a01b03861615611f24576001600160a01b0386165f9081526003830160205260409020805460010190555b5f85815260028301602052604080822080546001600160a01b0319166001600160a01b038a811691821790925591518893918516917fddf252ad1be2c89b69c2b068fc378daa952ba7f163c4a11628f55a4df523b3ef91a495945050505050565b33611f8e6112a4565b6001600160a01b0316146111435760405163118cdaa760e01b81523360048201526024016107cb565b7f19457468657265756d205369676e6564204d6573736167653a0a3332000000005f908152601c839052603c81206001600160a01b038516611ff9828561257d565b6001600160a01b03161495945050505050565b6120146125a5565b611938816125ee565b6120256125a5565b61061c82826125f6565b5f606461203a612626565b61204490846132f5565b6105569190613332565b7f9016d09d72d40fdae2fd8ceac6b6234c7706214fd39c1cd1e609a0528c19930080546001600160a01b031981166001600160a01b03848116918217845560405192169182907f8be0079c531659141344cd1fd0a4f28419497f9722a3daafe3b4186f6b6457e0905f90a3505050565b5f5160206133dd5f395f51905f526001600160a01b0383166120fe57604051630b61174360e31b81526001600160a01b03841660048201526024016107cb565b6001600160a01b038481165f818152600584016020908152604080832094881680845294825291829020805460ff191687151590811790915591519182527f17307eab39ab6107e8899845ad3d59bd9653f200f220920489ca2b5937696c31910160405180910390a350505050565b6001600160a01b0383163b1561228e57604051630a85bd0160e11b81526001600160a01b0384169063150b7a02906121af90889088908790879060040161335f565b6020604051808303815f875af19250505080156121e9575060408051601f3d908101601f191682019092526121e69181019061339b565b60015b612250573d808015612216576040519150601f19603f3d011682016040523d82523d5f602084013e61221b565b606091505b5080515f0361224857604051633250574960e11b81526001600160a01b03851660048201526024016107cb565b805181602001fd5b6001600160e01b03198116630a85bd0160e11b1461228c57604051633250574960e11b81526001600160a01b03851660048201526024016107cb565b505b5050505050565b6060600280546122a490612fec565b80601f01602080910402602001604051908101604052809291908181526020018280546122d090612fec565b801561231b5780601f106122f25761010080835404028352916020019161231b565b820191905f5260205f20905b8154815290600101906020018083116122fe57829003601f168201915b5050505050905090565b60605f61233183612680565b60010190505f816001600160401b0381111561234f5761234f612bf4565b6040519080825280601f01601f191660200182016040528015612379576020820181803683370190505b5090508181016020015b5f19016f181899199a1a9b1b9c1cb0b131b232b360811b600a86061a8153600a850494508461238357509392505050565b61061c828260405180602001604052805f815250612757565b5f9081527f80bb2b638cc20bc4d0a60d66940f3ab4a00c1d7b313497ca82fb0b4ab007930260205260409020546001600160a01b031690565b5f5160206133dd5f395f51905f52818061242857506001600160a01b03831615155b156124e9575f61243785611e06565b90506001600160a01b038416158015906124635750836001600160a01b0316816001600160a01b031614155b80156124765750612474818561161a565b155b1561249f5760405163a9fbf51f60e01b81526001600160a01b03851660048201526024016107cb565b82156124e75784866001600160a01b0316826001600160a01b03167f8c5be1e5ebec7d5bd14f71427d1e84f3dd0314c0f7b2291e5b200ac8c7c3b92560405160405180910390a45b505b5f93845260040160205250506040902080546001600160a01b0319166001600160a01b0392909216919091179055565b61252483838361276e565b610a6b576001600160a01b03831661255257604051637e27328960e01b8152600481018290526024016107cb565b60405163177e802f60e01b81526001600160a01b0383166004820152602481018290526044016107cb565b5f5f5f5f61258b86866127d3565b92509250925061259b828261281c565b5090949350505050565b7ff0c57e16840df040f15088dc2f81fe391c3923bec73e23a9662efc9c229c6a0054600160401b900460ff1661114357604051631afcd79f60e31b815260040160405180910390fd5b6119066125a5565b6125fe6125a5565b5f5160206133dd5f395f51905f5280612617848261307c565b506001810161082e838261307c565b5f60646126346001436133b6565b60408051914060208301526bffffffffffffffffffffffff194160601b1690820152605401604051602081830303815290604052805190602001205f1c61267b91906133c9565b905090565b5f8072184f03e93ff9f4daa797ed6e38ed64bf6a1f0160401b83106126be5772184f03e93ff9f4daa797ed6e38ed64bf6a1f0160401b830492506040015b6d04ee2d6d415b85acef810000000083106126ea576d04ee2d6d415b85acef8100000000830492506020015b662386f26fc10000831061270857662386f26fc10000830492506010015b6305f5e1008310612720576305f5e100830492506008015b612710831061273457612710830492506004015b60648310612746576064830492506002015b600a83106105565760010192915050565b61276183836128d4565b610a6b335f85858561216d565b5f6001600160a01b038316158015906127cb5750826001600160a01b0316846001600160a01b031614806127a757506127a7848461161a565b806127cb5750826001600160a01b03166127c083611e3d565b6001600160a01b0316145b949350505050565b5f5f5f835160410361280a576020840151604085015160608601515f1a6127fc88828585612935565b955095509550505050612815565b505081515f91506002905b9250925092565b5f82600381111561282f5761282f612d25565b03612838575050565b600182600381111561284c5761284c612d25565b0361286a5760405163f645eedf60e01b815260040160405180910390fd5b600282600381111561287e5761287e612d25565b0361289f5760405163fce698f760e01b8152600481018290526024016107cb565b60038260038111156128b3576128b3612d25565b0361061c576040516335e2f38360e21b8152600481018290526024016107cb565b6001600160a01b0382166128fd57604051633250574960e11b81525f60048201526024016107cb565b5f61290983835f611e83565b90506001600160a01b03811615610a6b576040516339e3563760e11b81525f60048201526024016107cb565b5f80807f7fffffffffffffffffffffffffffffff5d576e7357a4501ddfe92f46681b20a084111561296e57505f915060039050826129f3565b604080515f808252602082018084528a905260ff891692820192909252606081018790526080810186905260019060a0016020604051602081039080840390855afa1580156129bf573d5f5f3e3d5ffd5b5050604051601f1901519150506001600160a01b0381166129ea57505f9250600191508290506129f3565b92505f91508190505b9450945094915050565b828054828255905f5260205f20908101928215612a36579160200282015b82811115612a36578251825591602001919060010190612a1b565b50612a42929150612a46565b5090565b5b80821115612a42575f8155600101612a47565b6001600160e01b031981168114611938575f5ffd5b5f60208284031215612a7f575f5ffd5b813561161381612a5a565b5f81518084528060208401602086015e5f602082860101526020601f19601f83011685010191505092915050565b602081525f6116136020830184612a8a565b80356001600160a01b0381168114612ae0575f5ffd5b919050565b5f60208284031215612af5575f5ffd5b61161382612aca565b5f60208284031215612b0e575f5ffd5b5035919050565b5f5f60408385031215612b26575f5ffd5b612b2f83612aca565b946020939093013593505050565b5f60e0820189835260e060208401528089518083526101008501915060208b0192505f5b81811015612b7f578351835260209384019390920191600101612b61565b50508092505050866040830152856060830152846080830152612bad60a08301856001600160401b03169052565b82151560c08301526115a9565b5f5f5f60608486031215612bcc575f5ffd5b612bd584612aca565b9250612be360208501612aca565b929592945050506040919091013590565b634e487b7160e01b5f52604160045260245ffd5b5f82601f830112612c17575f5ffd5b8135602083015f5f6001600160401b03841115612c3657612c36612bf4565b50604051601f19601f85018116603f011681018181106001600160401b0382111715612c6457612c64612bf4565b604052838152905080828401871015612c7b575f5ffd5b838360208301375f602085830101528094505050505092915050565b5f5f5f60608486031215612ca9575f5ffd5b833592506020840135915060408401356001600160401b03811115612ccc575f5ffd5b612cd886828701612c08565b9150509250925092565b5f5f5f60608486031215612cf4575f5ffd5b612cfd84612aca565b9250612d0b60208501612aca565b915060408401356001600160401b03811115612ccc575f5ffd5b634e487b7160e01b5f52602160045260245ffd5b60038110612d4957612d49612d25565b9052565b602081016105568284612d39565b8015158114611938575f5ffd5b5f5f60408385031215612d79575f5ffd5b612d8283612aca565b91506020830135612d9281612d5b565b809150509250929050565b5f5f5f5f60808587031215612db0575f5ffd5b612db985612aca565b9350612dc760208601612aca565b92506040850135915060608501356001600160401b03811115612de8575f5ffd5b612df487828801612c08565b91505092959194509250565b80356001600160801b0381168114612ae0575f5ffd5b803560028110612ae0575f5ffd5b80356001600160401b0381168114612ae0575f5ffd5b803563ffffffff81168114612ae0575f5ffd5b803560ff81168114612ae0575f5ffd5b5f5f5f5f5f5f5f5f610100898b031215612e75575f5ffd5b88356001600160401b03811115612e8a575f5ffd5b612e968b828c01612c08565b985050612ea560208a01612e00565b9650612eb360408a01612e16565b9550612ec160608a01612aca565b9450612ecf60808a01612e24565b9350612edd60a08a01612e24565b9250612eeb60c08a01612e3a565b9150612ef960e08a01612e4d565b90509295985092959890939650565b5f5f60408385031215612f19575f5ffd5b612f2283612aca565b9150612f3060208401612aca565b90509250929050565b5f5f60408385031215612f4a575f5ffd5b612f5383612aca565b9150612f3060208401612e00565b5f5f5f5f5f5f5f5f610100898b031215612f79575f5ffd5b88356001600160401b03811115612f8e575f5ffd5b612f9a8b828c01612c08565b985050612fa960208a01612e00565b9650612fb760408a01612e16565b955060608901356001600160401b03811115612fd1575f5ffd5b612fdd8b828c01612c08565b955050612ecf60808a01612e24565b600181811c9082168061300057607f821691505b60208210810361301e57634e487b7160e01b5f52602260045260245ffd5b50919050565b634e487b7160e01b5f52603260045260245ffd5b601f821115610a6b57805f5260205f20601f840160051c8101602085101561305d5750805b601f840160051c820191505b8181101561228e575f8155600101613069565b81516001600160401b0381111561309557613095612bf4565b6130a9816130a38454612fec565b84613038565b6020601f8211600181146130db575f83156130c45750848201515b5f19600385901b1c1916600184901b17845561228e565b5f84815260208120601f198516915b8281101561310a57878501518255602094850194600190920191016130ea565b508482101561312757868401515f19600387901b60f8161c191681555b50505050600190811b01905550565b634e487b7160e01b5f52601160045260245ffd5b6001600160801b03828116828216039081111561055657610556613136565b5f60208284031215613179575f5ffd5b815161161381612d5b565b6001600160401b03818116838216019081111561055657610556613136565b604081016131b18285612d39565b6001600160801b03831660208301529392505050565b5f81518060208401855e5f93019283525090919050565b5f6131e9828b6131c7565b6001600160801b03198a60801b1681526002891061320957613209612d25565b8860f81b60108201526bffffffffffffffffffffffff198860601b1660118201526001600160401b0360c01b8760c01b1660258201526001600160401b0360c01b8660c01b16602d82015261326d603582018660e01b6001600160e01b0319169052565b613286603982018560f81b6001600160f81b0319169052565b603a019a9950505050505050505050565b5f6127cb6132a583866131c7565b846131c7565b6001600160801b03818116838216019081111561055657610556613136565b8082018082111561055657610556613136565b5f600182016132ee576132ee613136565b5060010190565b6001600160801b03818116838216029081169081811461331757613317613136565b5092915050565b634e487b7160e01b5f52601260045260245ffd5b5f6001600160801b0383168061334a5761334a61331e565b806001600160801b0384160491505092915050565b6001600160a01b03858116825284166020820152604081018390526080606082018190525f9061339190830184612a8a565b9695505050505050565b5f602082840312156133ab575f5ffd5b815161161381612a5a565b8181038181111561055657610556613136565b5f826133d7576133d761331e565b50069056fe80bb2b638cc20bc4d0a60d66940f3ab4a00c1d7b313497ca82fb0b4ab0079300a2646970667358221220840cd331398d2d40f2e26bb3fc6a7d9a9ec5360e00c0021d2d45dcbbbebfa6bb64736f6c634300081c0033","linkReferences":{}},"methodIdentifiers":{"approve(address,uint256)":"095ea7b3","balanceOf(address)":"70a08231","calculateChallengeHash(string,uint128,uint8,address,uint64,uint64,uint32,uint8)":"c617b17f","challengeHashes(bytes32)":"29071254","completeChallenge(address,uint256)":"6e9b9925","createChallenge(string,uint128,uint8,bytes,uint64,uint64,uint32,uint8)":"feb29ece","depositReward(address,uint128)":"ef840e16","getApproved(uint256)":"081812fc","getChallenge(uint256)":"1bdd4b74","getChallengeStatus(uint256)":"832c8bc6","initialize(address,address,string)":"4571e3a6","isApprovedForAll(address,address)":"e985e9c5","name()":"06fdde03","owner()":"8da5cb5b","ownerOf(uint256)":"6352211e","renounceOwnership()":"715018a6","rewardToken()":"f7c618c1","safeTransferFrom(address,address,uint256)":"42842e0e","safeTransferFrom(address,address,uint256,bytes)":"b88d4fde","setApprovalForAll(address,bool)":"a22cb465","submitActivity(uint256,bytes32,bytes)":"343020a5","supportsInterface(bytes4)":"01ffc9a7","symbol()":"95d89b41","tokenURI(uint256)":"c87b56dd","transferFrom(address,address,uint256)":"23b872dd","transferOwnership(address)":"f2fde38b","userAccumulatedReserves(address)":"2fb7e099","userAllocatedRewards(address)":"91469fbe","userReserves(address)":"0d08e181","withdrawReward(address)":"b86e321c","withdrawableUnlockTime(address)":"07feb309"},"storageLayout":{"storage":[{"astId":49432,"contract":"src/Oguogu.sol:OGUOGU","label":"rewardToken","offset":0,"slot":"0","type":"t_contract(IERC20)43429"},{"astId":49434,"contract":"src/Oguogu.sol:OGUOGU","label":"_challengeId","offset":0,"slot":"1","type":"t_uint256"},{"astId":49436,"contract":"src/Oguogu.sol:OGUOGU","label":"_url","offset":0,"slot":"2","type":"t_string_storage"},{"astId":49450,"contract":"src/Oguogu.sol:OGUOGU","label":"_userBalances","offset":0,"slot":"3","type":"t_mapping(t_address,t_struct(UserBalance)49445_storage)"},{"astId":49455,"contract":"src/Oguogu.sol:OGUOGU","label":"_challenges","offset":0,"slot":"4","type":"t_mapping(t_uint256,t_struct(Challenge)49483_storage)"},{"astId":49459,"contract":"src/Oguogu.sol:OGUOGU","label":"_challengeHashes","offset":0,"slot":"5","type":"t_mapping(t_bytes32,t_address)"}],"types":{"t_address":{"encoding":"inplace","label":"address","numberOfBytes":"20"},"t_array(t_bytes32)dyn_storage":{"encoding":"dynamic_array","label":"bytes32[]","numberOfBytes":"32","base":"t_bytes32"},"t_bool":{"encoding":"inplace","label":"bool","numberOfBytes":"1"},"t_bytes32":{"encoding":"inplace","label":"bytes32","numberOfBytes":"32"},"t_contract(IERC20)43429":{"encoding":"inplace","label":"contract IERC20","numberOfBytes":"20"},"t_enum(ChallengeType)49462":{"encoding":"inplace","label":"enum OGUOGU.ChallengeType","numberOfBytes":"1"},"t_mapping(t_address,t_struct(UserBalance)49445_storage)":{"encoding":"mapping","key":"t_address","label":"mapping(address => struct OGUOGU.UserBalance)","numberOfBytes":"32","value":"t_struct(UserBalance)49445_storage"},"t_mapping(t_bytes32,t_address)":{"encoding":"mapping","key":"t_bytes32","label":"mapping(bytes32 => address)","numberOfBytes":"32","value":"t_address"},"t_mapping(t_uint256,t_struct(Challenge)49483_storage)":{"encoding":"mapping","key":"t_uint256","label":"mapping(uint256 => struct OGUOGU.Challenge)","numberOfBytes":"32","value":"t_struct(Challenge)49483_storage"},"t_string_storage":{"encoding":"bytes","label":"string","numberOfBytes":"32"},"t_struct(Challenge)49483_storage":{"encoding":"inplace","label":"struct OGUOGU.Challenge","numberOfBytes":"128","members":[{"astId":49464,"contract":"src/Oguogu.sol:OGUOGU","label":"challengeHash","offset":0,"slot":"0","type":"t_bytes32"},{"astId":49467,"contract":"src/Oguogu.sol:OGUOGU","label":"activityHashes","offset":0,"slot":"1","type":"t_array(t_bytes32)dyn_storage"},{"astId":49469,"contract":"src/Oguogu.sol:OGUOGU","label":"reward","offset":0,"slot":"2","type":"t_uint128"},{"astId":49471,"contract":"src/Oguogu.sol:OGUOGU","label":"startDate","offset":16,"slot":"2","type":"t_uint64"},{"astId":49473,"contract":"src/Oguogu.sol:OGUOGU","label":"endDate","offset":24,"slot":"2","type":"t_uint64"},{"astId":49476,"contract":"src/Oguogu.sol:OGUOGU","label":"challengeType","offset":0,"slot":"3","type":"t_enum(ChallengeType)49462"},{"astId":49478,"contract":"src/Oguogu.sol:OGUOGU","label":"nonce","offset":1,"slot":"3","type":"t_uint32"},{"astId":49480,"contract":"src/Oguogu.sol:OGUOGU","label":"minimumActivityCount","offset":5,"slot":"3","type":"t_uint8"},{"astId":49482,"contract":"src/Oguogu.sol:OGUOGU","label":"isClosed","offset":6,"slot":"3","type":"t_bool"}]},"t_struct(UserBalance)49445_storage":{"encoding":"inplace","label":"struct OGUOGU.UserBalance","numberOfBytes":"64","members":[{"astId":49438,"contract":"src/Oguogu.sol:OGUOGU","label":"reserve","offset":0,"slot":"0","type":"t_uint128"},{"astId":49440,"contract":"src/Oguogu.sol:OGUOGU","label":"allocatedRewards","offset":16,"slot":"0","type":"t_uint128"},{"astId":49442,"contract":"src/Oguogu.sol:OGUOGU","label":"accumulatedReserves","offset":0,"slot":"1","type":"t_uint128"},{"astId":49444,"contract":"src/Oguogu.sol:OGUOGU","label":"withdrawableUnlockTime","offset":16,"slot":"1","type":"t_uint64"}]},"t_uint128":{"encoding":"inplace","label":"uint128","numberOfBytes":"16"},"t_uint256":{"encoding":"inplace","label":"uint256","numberOfBytes":"32"},"t_uint32":{"encoding":"inplace","label":"uint32","numberOfBytes":"4"},"t_uint64":{"encoding":"inplace","label":"uint64","numberOfBytes":"8"},"t_uint8":{"encoding":"inplace","label":"uint8","numberOfBytes":"1"}}},"id":67}